:020000040800F2
:10000000E8060224F9840008C5820008C7820008B7
:10001000C9820008CB820008CD82000800000000E1
:10002000000000000000000000000000CF82000877
:10003000D182000800000000D3820008D5820008A9
:1000400015850008198500081D8500082185000810
:1000500025850008298500082D85000831850008C0
:1000600035850008398500083D850008D9820008DB
:10007000DF820008418500084585000849850008A1
:100080004D850008518500085585000859850008F0
:100090005D850008618500086585000869850008A0
:1000A0006D85000871850008758500087985000850
:1000B0002B83000831830008378300087D85000802
:1000C0008185000885850008898500088D850008E0
:1000D0009185000895850008E5820008998500084B
:1000E0009D850008A185000800000000A585000886
:1000F000A9850008AD850008B1850008B585000810
:10010000B9850008BD8500083D830008C185000849
:10011000C5850008C9850008CD850008D18500087F
:10012000D5850008D9850008DD850008E18500082F
:10013000E585000825830008E9850008ED850008AD
:1001400000000000000000000000000000000000AF
:10015000F1850008F5850008F9850008FD8500088F
:100160000186000805860008098600080D8600083B
:100170001186000815860008198600080000000096
:100180001D860008218600082586000829860008AB
:100190002D8600083186000835860008398600085B
:1001A0003D8600084186000845860008498600080B
:1001B0004D860008518600085586000859860008BB
:1001C0005D8600086186000865860008698600086B
:1001D0006D8600087186000875860008798600081B
:1001E0007D860008818600088586000889860008CB
:1001F0008D8600089186000895860008998600087B
:100200009D860008A1860008A5860008A98600082A
:10021000AD860008B1860008B5860008B9860008DA
:10022000BD860008C1860008C586000800000000E1
:10023000C9860008CD86000800000000D1860008AD
:10024000D5860008D9860008DD860008E18600080A
:10025000E5860008E9860008ED860008F1860008BA
:10026000F5860008F9860008FD8600080187000869
:1002700005870008098700080D87000800000000B6
:100280001187000815870008198700080000000082
:10029000000000001D87000838B5040009D004F1F3
:1002A0007C05696809B900F01FF800F022F8012800
:1002B00001D1012032BDA06A08B100F02AF800F097
:1002C0000BF822F02A02826000F01DF8FFE72046BA
:1002D000BDE8324001F01FBB2068416821F4904125
:1002E000416020688268704700202870204601F035
:1002F0006DBC2421696020680268520852000260C7
:10030000204600F023BA2068016841F00101016035
:100310007047204601F09BBAF8B5044604F17C050D
:1003200068681346202838D149B3180027D02878A8
:10033000012832D0012204F154062A7000202165E0
:10034000212133807380E8606960306AC8B1DFF8CA
:10035000D4130027C163326ADFF8CC03DFF8CC1373
:100360001064306AC164306A07652068216D00F14D
:100370002802306A01F0B4FD18B100F059F80120EC
:10038000F2BD21684020002208622A70206883683C
:1003900043F0800383600020F2BD0220F2BDF8B577
:1003A000044604F17C05A868134620283ED141B3D9
:1003B000180026D02878012838D0012204F15C06E4
:1003C0002A700020A16522213380E860A960F069CD
:1003D000C8B1DFF85C130027C163F269DFF854038A
:1003E000DFF848131064F069C164F069076520689C
:1003F000A26D00F12401F06901F072FD18B100F066
:1004000017F80120F2BD002028702068016841F42F
:10041000807101602068826842F001028260206879
:10042000816841F0400181600020F2BD0220F2BDF0
:1004300010202022E8602F706A60704770B5044673
:1004400004F18405D4F880002E6821688A681306B8
:1004500012D5212810D1886820F080008860606F54
:1004600038B101F037FE20B1606F02F013FC202894
:1004700015D0204601F0ADFA00F01AF816D5222E5C
:1004800014D1816821F040018160A06F58B101F062
:1004900021FE40B1A06F02F0FDFB202803D1102007
:1004A0006860032070BD204601F0A1FA002070BDF5
:1004B000206881684A06704770B5054605F16406F4
:1004C00028680124016821F4F0710160296800F0B6
:1004D00059F8306940B129688A68130647BFDFF8C8
:1004E0005812016500220265706940B129688A6866
:1004F000530647BFDFF844120165002202652868F1
:1005000081680A060DD5836823F080038360306913
:1005100038B101F005FF00281DBF002031690865D2
:100520000024286881684A060AD500F030F870690E
:1005300030B101F0F5FE18B371690020086500E0E4
:10054000F4B105F156000021018001810F20B16056
:10055000F16071622A6810623368B3F1005F04D100
:100560002868816941F0100181612868816941F042
:10057000080181612020F0613062284602F004FD0C
:10058000002070BD6E488A6802408A6070478368A8
:1005900023F0400383607047F8B504462568E96995
:1005A0002A68AB6811F00F000CD1880602D59606B8
:1005B00001D4D80079D5E16E002975D02046BDE878
:1005C000F44008475F48034208BF12F4907F6CD0A4
:1005D000CE0709D5D70507D501262E62D4F8885055
:1005E00045F00105C4F888508E070AD5DD0708D507
:1005F000266802273762D4F8885045F00405C4F80D
:1006000088504E070AD5DD0708D5266804273762CB
:10061000D4F8885045F00205C4F888500E070CD570
:10062000950601D4034208D0266808203062D4F829
:10063000885045F00805C4F88850D4F88800002890
:100640006FD0890607D5900601D4D90003D5E16E95
:1006500009B120468847D4F8880021688A68530683
:1006600001D400071AD5204601F0C1F9FFF720FF99
:100670000FD5FFF78CFFA06F58B133490165A06F0C
:1006800001F04EFE00284CD0A06F016DBDE8F44093
:1006900008472046BDE8F24002F023BE204602F0A3
:1006A00020FE0020C4F88800F1BDCE0209D5580212
:1006B00007D54FF4801120462962BDE8F24002F0D0
:1006C00073BF080609D5160601D4180205D5216F97
:1006D00039B32046BDE8F440084748060FD5530615
:1006E0000DD529682020002221F040012960C4F89E
:1006F000800020462267BDE8F24002F0EDBD08020E
:1007000006D5530004D52046BDE8F24002F04DBFA7
:10071000C80148BF002A04D52046BDE8F24002F0D7
:1007200045BFF1BD2D1A0008591A00089F1A00088C
:100730005F1A0008991A0008FD1A00083F1B0008FC
:10074000FEFF7FEF01000010ED1A00082DE9F04FC9
:1007500087B004462768DFF8A8280026B046DFF8EF
:10076000A4A84FF480753B68A068216913406269B2
:100770000343E0690B43616E134303430B433B6048
:100780007A68E068DFF8803822F4405202439F42E2
:100790007A60A269DFF874081CBF216A0A43BB684B
:1007A00003401A43BA60F96A606A090940EA011114
:1007B000F962DFF85C188F4246D1DFF85808426DC5
:1007C00012F0380200F09F80082A4ED0102A5FD025
:1007D000182A00F06F80202A00F07F80282A00F07D
:1007E000A6804FF08009DFF820B8DFF82C085F45BD
:1007F000DFF82818DFF82828DFF82838DFF828C8BD
:10080000DFF828E840F01684B9F1020F14D0B9F1EE
:10081000040F00F0F880B9F1080F00F02781B9F15A
:10082000100F00F05681B9F1200F00F0BB81B9F133
:10083000400F00F0ED81E4E003F05AFA0146606AEF
:10084000002840F0A280CCE0DFF8E40787420FD117
:10085000DFF8C0174A6D02F00702052AC1D8DFE8A9
:1008600002F07B0417293C66BBE74FF00409BAE7A6
:10087000DFF87C1ADFF89C078F420CD100F0D8FF1C
:10088000AFD8DFE800F0690405172A54A9E7ECE7C0
:100890004FF00809A7E7DFF85C1A8F420DD100F08E
:1008A000C7FF9ED8DFE800F058050406194398E713
:1008B000EEE7DAE74FF0100995E7DFF83C1A8F42D0
:1008C0000ED100F0B5FFF2D8DFE800F046060504CF
:1008D000073186E7EEE7DBE7C7E74FF0200982E75D
:1008E000DFF8841A8F4211D1406D10F038000AD021
:1008F0000828BAD01028CBD01828DBD02028ECD07C
:10090000282814D06DE74FF001096CE7DFF85C1A76
:100910008F420FD100F08CFFF4D8DFE800F01D0704
:10092000060504085DE7D8E7C4E7B1E79DE74FF0A7
:10093000400958E7DFF8381A8F420FD100F078FFEE
:1009400004D8DFE800F009080706050449E7EEE7E8
:10095000C3E7AFE79CE788E7C14644E7DFF8A8169E
:100960008F42F3D1806D00F00700052804D8DFE83E
:1009700000F009080706050433E7D8E7ADE799E773
:1009800086E772E74FF0020956E7012808BF022008
:1009900028D0022808BF042024D0032808BF06203E
:1009A00020D0042808BF08201CD0052808BF0A2032
:1009B00018D0062808BF0C2014D0072808BF102024
:1009C00010D0082808BF20200CD0092808BF4020DC
:1009D00008D00A2808BF802004D00B2808BF28466A
:1009E00000D00120B1FBF0F0002800F0F58661682E
:1009F000009101EB4102904203D30903814280F050
:100A0000428100F0E7BE00F010FF606A58B3012891
:100A100008BF022028D0022808BF042024D00328C1
:100A200008BF062020D0042808BF08201CD00528B5
:100A300008BF0A2018D0062808BF0C2014D00728A9
:100A400008BF102010D0082808BF20200CD009288B
:100A500008BF402008D00A2808BF802004D00B28F7
:100A600008BF284600D001200599BBE700F0DAFE58
:100A7000606A58B3012808BF022028D0022808BFA6
:100A8000042024D0032808BF062020D0042808BF53
:100A900008201CD0052808BF0A2018D0062808BF47
:100AA0000C2014D0072808BF102010D0082808BF39
:100AB00020200CD0092808BF402008D00A2808BFF1
:100AC000802004D00B2808BF284600D001200299BE
:100AD00088E7676ADFF83CB5DBF800B05FEA8B6B4C
:100AE00037D5DFF8300500685FB3012F08BF02215A
:100AF00028D0022F08BF042124D0032F08BF0621CD
:100B000020D0042F08BF08211CD0052F08BF0A21C0
:100B100018D0062F08BF0C2114D0072F08BF1021B2
:100B200010D0082F08BF20210CD0092F08BF40216A
:100B300008D00A2F08BF802104D00B2F08BF2946F8
:100B400000D00121C0F3C1002AFA00F2B2FBF1F09B
:100B50004AE72FB3012F08BFDFF8180821D0022F72
:100B600008BFDFF814081CD0032F08BFDFF80C08FB
:100B700017D0042F08BF704613D0052F08BFDFF829
:100B800000080ED0062F0CBFDFF8F807072F08D09B
:100B9000082F0CD0092F0ED00A2F15D00B2F21D0E3
:100BA000504624E7676A002FFBD0012F01D1084689
:100BB0001DE7022F01D1104619E7032F08BFDFF808
:100BC000C807F9D0042F01D1184610E7052F08BF38
:100BD000DFF8B807F9D0062F08BFDFF8F00A02D017
:100BE000072F01D1604602E7082F08BFDFF8E00AAF
:100BF000F9D0092F08BF4FF22440F4D00A2F08BFC4
:100C000047F6122003D00B2F01D143F60950EEE630
:100C1000606A002834D0012808BF4FF48040F6D025
:100C2000022808BF4FF40050F1D0032808BF41F25A
:100C30005550ECD0042808BF4FF48050E7D0052869
:100C400008BF40F6CC40E2D0062808BF40F6AA20F4
:100C500018D0072808BF4FF4006013D0082808BF39
:100C60004FF480600ED0092808BF4FF4007009D0FF
:100C70000A2808BF284605D00B2808BF802001D0CD
:100C80004FF40040B3E600230021B9F1020FDFF872
:100C9000447ADFF8442ADFF8440A12D0B9F1040F8D
:100CA00043D0B9F1080F71D0B9F1100F00F0A8804E
:100CB000B9F1200F00F01F81B9F1400F00F04F8112
:100CC00091E103F015F80146606A40B3012808BFBE
:100CD000022525D0022808BF042521D0032808BFFB
:100CE00006251DD0042808BF082519D0052808BFEF
:100CF0000A2515D0062808BF0C2511D0072808BFE3
:100D000010250DD0082808BF202509D0092808BFC4
:100D1000402505D00A280CBF80250B2800D00125CE
:100D20006268B1FBF5F6002163E000F07EFD606AC9
:100D300040B3012808BF022525D0022808BF04259A
:100D400021D0032808BF06251DD0042808BF082588
:100D500019D0052808BF0A2515D0062808BF0C257C
:100D600011D0072808BF10250DD0082808BF20255E
:100D700009D0092808BF402505D00A280CBF8025C6
:100D80000B2800D001256268059E2FE000F04AFD87
:100D9000606A40B3012808BF022525D0022808BF99
:100DA000042521D0032808BF06251DD0042808BF2C
:100DB000082519D0052808BF0A2515D0062808BF20
:100DC0000C2511D0072808BF10250DD0082808BF12
:100DD000202509D0092808BF402505D00A280CBFC6
:100DE00080250B2800D001256268029E0021B6FBF9
:100DF000F5F6500810EB062051EB16610023EEE0EB
:100E0000666ADFF810C2DCF800E05FEA8E6938D568
:100E1000DCF8000046B3012E08BF022525D0022EC3
:100E200008BF042521D0032E08BF06251DD0042E9F
:100E300008BF082519D0052E08BF0A2515D0062E93
:100E400008BF0C2511D0072E08BF10250DD0082E85
:100E500008BF202509D0092E08BF402505D00A2E3D
:100E60000CBF80250B2E00D00125C0F3C1002AFA4B
:100E700000F1009EB1FBF5F0010E760816EB0020A4
:100E800037E086B3012E03D1DFF8640901212DE09C
:100E9000022E08BFDFF85C0928D0032E08BFDFF858
:100EA000580923D0042E08BFDFF850091ED0052EA4
:100EB00008BFDFF84C0919D0062E08BFDFF8440937
:100EC00014D0072E0CBFDFF84009082E0ED0092ED3
:100ED00008BF10460AD00A2E08BF384606D00B2E8F
:100EE00008BF504602D0DFF824090321009E10EB12
:100EF0005600594172E0666A76B3012E6AD0022E1E
:100F000008BF104666D0032E08BFDFF8040961D081
:100F1000042E08BF38465DD0052E08BFDFF8F40860
:100F200058D0062E08BFDFF8F00A53D0072E08BFAE
:100F300050464FD0082E08BFDFF838044AD0092E9B
:100F400008BFDFF8340445D00A2E08BF374841D027
:100F50000B2E08BF30483DD0DFF8AC083AE0606A9D
:100F6000B0B3012808BF4FF4800033D0022808BF77
:100F70004FF400102ED0032808BFDFF8A00A29D0B4
:100F8000042808BF4FF4801024D0052808BFDFF8DC
:100F9000900A1FD0062808BFDFF8880A1AD0072851
:100FA00008BF4FF4002015D0082808BF4FF4802058
:100FB00010D0092808BF4FF400300BD00A2808BF12
:100FC0004FF4803006D00B2808BF4FF4004001D00A
:100FD0004FF40000009E10EB56004941009A03F0C8
:100FE00087F8064601E04FF00108A6F54073DFF8E8
:100FF000380A834280F0EE832068C660ECE300BFCD
:10100000F369FFCF0090D003000C0058FFF4FF11EC
:10101000001001400044025800093D0080841E0079
:1010200040420F0020A1070090D0030000127A0078
:1010300000440040D4F81CB04FF6F077BBF5004FE9
:1010400040F0EF81B9F1000F16D0B9F1010F44D093
:10105000B9F1040F72D0B9F1080F00F0A080B9F116
:10106000100F00F0D480B9F1200F00F04781B9F1E2
:10107000400F00F08D81C6E103F042FA0146606A3C
:1010800040B3012808BF022525D0022808BF042547
:1010900021D0032808BF06251DD0042808BF082535
:1010A00019D0052808BF0A2515D0062808BF0C2529
:1010B00011D0072808BF10250DD0082808BF20250B
:1010C00009D0092808BF402505D00A280CBF802573
:1010D0000B2800D00125606891E003F019FA014661
:1010E000606A40B3012808BF022525D0022808BF46
:1010F000042521D0032808BF06251DD0042808BFD9
:10110000082519D0052808BF0A2515D0062808BFCC
:101110000C2511D0072808BF10250DD0082808BFBE
:10112000202509D0092808BF402505D00A280CBF72
:1011300080250B2800D00125606860E000F075FB79
:10114000606A40B3012808BF022525D0022808BFE5
:10115000042521D0032808BF06251DD0042808BF78
:10116000082519D0052808BF0A2515D0062808BF6C
:101170000C2511D0072808BF10250DD0082808BF5E
:10118000202509D0092808BF402505D00A280CBF12
:1011900080250B2800D00125606805992FE000F01C
:1011A00041FB606A40B3012808BF022525D0022810
:1011B00008BF042521D0032808BF06251DD0042818
:1011C00008BF082519D0052808BF0A2515D006280C
:1011D00008BF0C2511D0072808BF10250DD00828FE
:1011E00008BF202509D0092808BF402505D00A28B6
:1011F0000CBF80250B2800D0012560680299B1FB47
:10120000F5F1420802EB4102B2FBF0F6F9E0666A42
:10121000DFF87CC9DCF800905FEA896B39D5DCF82F
:10122000000046B3012E08BF022525D0022E08BFBC
:10123000042521D0032E08BF06251DD0042E08BF8B
:10124000082519D0052E08BF0A2515D0062E08BF7F
:101250000C2511D0072E08BF10250DD0082E08BF71
:10126000202509D0092E08BF402505D00A2E0CBF25
:1012700080250B2E00D001256168C0F3C1002AFA39
:1012800000F2B2FBF5F04A0802EB4002B2FBF1F6C5
:10129000B7E056B3012E08BF504661D0022E08BFFA
:1012A00034485DD0032E08BFDFF8E80858D0042E7C
:1012B00008BF314854D0052E08BFDFF8DC084FD0F6
:1012C000062E08BF2D484BD0072E0CBF7046082EA7
:1012D00046D0092E08BF084642D00A2E08BF104645
:1012E0003ED00B2E08BF18463AD0DFF8E80337E0AF
:1012F00000480040004C004000500040666A76B351
:10130000012E2DD0022E08BF084629D0032E08BF7B
:10131000DFF8880824D0042E08BF104620D0052E00
:1013200008BFDFF87C081BD0062E08BF164817D070
:10133000072E08BF184613D0082E08BF60460FD0EE
:10134000092E08BFDFF888030AD00A2E08BF4FF223
:10135000244005D00B2E08BF47F6122000D070465F
:1013600000F05AFA4DE000BF001401400078004040
:10137000007C00400048E8010024F400AAC2A2005A
:1013800000A86100556151002A2C0A00801A06004D
:10139000606A90B3012808BF4FF400452FD002289F
:1013A00008BF4FF480452AD0032808BF42F6AA257B
:1013B00025D0042808BF4FF4005520D0052808BFC9
:1013C00041F698151BD0062808BF41F2545516D097
:1013D000072808BF4FF4805511D0082808BF4FF4E4
:1013E00000650CD0092808BF4FF4806507D00A2893
:1013F0000CBF4FF400750B2801D04FF4803500F07E
:1014000020FAB6B201E04FF00108A6F11000B84290
:1014100080F0E08121683740C6F342000743CF6087
:10142000DAE1B9F1000F16D0B9F1010F45D0B9F1E9
:10143000040F74D0B9F1080F00F0A380B9F1100FB8
:1014400000F0D180B9F1200F00F04A81B9F1400FCE
:1014500000F07D81B5E103F053F80146606A40B3C6
:10146000012808BF022525D0022808BF042521D065
:10147000032808BF06251DD0042808BF082519D059
:10148000052808BF0A2515D0062808BF0C2511D04D
:10149000072808BF10250DD0082808BF202509D02F
:1014A000092808BF402505D00A280CBF80250B2835
:1014B00000D0012500F0C1F9D1E003F029F8014680
:1014C000606A40B3012808BF022525D0022808BF62
:1014D000042521D0032808BF06251DD0042808BFF5
:1014E000082519D0052808BF0A2515D0062808BFE9
:1014F0000C2511D0072808BF10250DD0082808BFDB
:10150000202509D0092808BF402505D00A280CBF8E
:1015100080250B2800D0012500F08FF99FE000F016
:1015200084F9606A40B3012808BF022525D002284B
:1015300008BF042521D0032808BF06251DD0042894
:1015400008BF082519D0052808BF0A2515D0062888
:1015500008BF0C2511D0072808BF10250DD008287A
:1015600008BF202509D0092808BF402505D00A2832
:101570000CBF80250B2800D00125059900F05DF9EE
:101580006DE000F04FF9606A40B3012808BF022502
:1015900025D0022808BF042521D0032808BF06252E
:1015A0001DD0042808BF082519D0052808BF0A2522
:1015B00015D0062808BF0C2511D0072808BF102514
:1015C0000DD0082808BF202509D0092808BF4025CC
:1015D00005D00A280CBF80250B2800D001250299D0
:1015E00000F02BF93BE0666ADFF8A495D9F800B06B
:1015F0005FEA8B6B38D5D9F8001046B3012E08BFCF
:10160000022525D0022E08BF042521D0032E08BFB5
:1016100006251DD0042E08BF082519D0052E08BFA9
:101620000A2515D0062E08BF0C2511D0072E08BF9D
:1016300010250DD0082E08BF202509D0092E08BF7F
:10164000402505D00A2E0CBF80250B2E00D0012589
:10165000C1F3C1012AFA01F26068B2FBF5F101EBB6
:101660005001B1FBF0F6AAE06EB3012E08BFDFF81F
:10167000340569D0022E08BFDFF82C0564D0032E94
:1016800008BFDFF828055FD0042E08BF70465BD086
:10169000052E08BFDFF8180556D0062E0CBFDFF860
:1016A0001405072E50D0082E08BF08464CD0092E2E
:1016B00008BF104648D00A2E08BF184644D00B2E4B
:1016C00008BF604640D050463EE000BF15160500FA
:1016D00048E801000020A1070040420F0080841E5E
:1016E000666A8EB3012E08BF08462DD0022E08BFB1
:1016F000104629D0032E08BFDFF8BC0424D0042EE6
:1017000008BF184620D0052E08BFDFF8B0041BD054
:10171000062E08BFDFF8A80416D0072E08BF6046C3
:1017200012D0082E08BFDFF89C040DD0092E08BF88
:101730004FF2244008D00A2E08BF47F6122003D0EB
:101740000B2E08BF43F6095000F066F837E0606AD8
:1017500088B3012808BF4FF480452ED0022808BF67
:101760004FF4005529D0032808BF41F2555524D025
:10177000042808BF4FF480551FD0052808BF40F645
:10178000CC451AD0062808BF40F6AA2515D0072850
:1017900008BF4FF4006510D0082808BF4FF48065DB
:1017A0000BD009280CBF4FF400750A2805D00B2870
:1017B00008BF802501D04FF4004500F042F8B6B2D2
:1017C00001E04FF00108A6F11000B84202D22168F2
:1017D000CE6001E04FF0010804F168000121002310
:1017E0004180018043608360404607B0BDE8F08FD0
:1017F000000048E8000024F400AAC2A20000127A07
:101800000000A861005561510000093D000090D022
:10181000002A2C0A00801A06616800EB5100B0FB18
:10182000F1F6704701A802F09FBA04A802F070BA5E
:10183000406D00F00700052870476068B1FBF5F1C6
:101840007047606805EB5005B5FBF0F6704710B5C2
:1018500090F82810CA0706D502685368C16A23F4B5
:1018600000330B43536090F82820910706D5026897
:101870005368016B23F480330B43536090F82820A6
:10188000510706D502685368416B23F480230B434C
:10189000536090F82820110706D502685368816BC1
:1018A00023F400430B43536090F82820D10606D55B
:1018B00002689368C16B23F480530B43936090F8E4
:1018C0002820910606D502689368016C23F4005322
:1018D0000B43936090F82820510610D50268536896
:1018E000416C23F480130B435360436CB3F5801FAA
:1018F00005D15468816C24F4C0040C43546090F802
:101900002820110606D501684A68C06C22F400221E
:1019100002434A6010BDF8B5044604F17C0500207E
:101920006FF07E47E86003F063F8216806460868B8
:10193000020708D50097334600224FF400112046D5
:1019400000F017F860B9206801684A070AD50097C7
:10195000334600224FF48001204600F00AF808B117
:101960000320F2BD202000226860A86000202A70B9
:10197000F2BD2DE9F04105460E4690461F46069CF5
:101980002868C1693140B1420CBF012000204045A8
:101990001CD114F1010FF3D003F02AF8C01B8442CC
:1019A00001D3002CECD128680023016821F4D07108
:1019B000016028682021826852085200826005F187
:1019C0007C00416081600370032000E00020BDE8DE
:1019D000F08101680A6822F0C0020A6001688B6821
:1019E00023F400038B602021C0F88010704710B5ED
:1019F0000168002400F005F82022C0F88420C466A5
:101A000010BD0A6822F490720A600268DFF8B8110B
:101A100093680B409360704700151605005515003C
:101A200000CC0C0000AA0A0000FD0F00816BC06909
:101A3000B0F5807F04BF084601F04EBC0022A1F83B
:101A400056200868836823F0800383600868016873
:101A500041F0400101607047806B02F0CFBF816BA5
:101A6000C069B0F5807F14D00022A1F85E2008681C
:101A7000036823F480730360086882685208520088
:101A800082600868836823F0400383602020C1F8E7
:101A90008400084601F024BC806B02F0B0BFF8B5AA
:101AA000846B04F1800528686E68216804F156078C
:101AB0008A68130606D5212804D1002038802046E4
:101AC000FFF787FF21688A68500606D5222E04D1C9
:101AD000002120463981FFF78AFFA86840F01000F6
:101AE000A8602046BDE8F24001F0FBBB806B0022FD
:101AF00000F156010A810A8001F0F3BB38B5816B11
:101B0000002001F1640213691865506900281CBFA8
:101B1000006D002812D100F02FF853620B681D628F
:101B20001468B4F1005F04D10868836943F01003BE
:101B3000836120240846D461146224E031BD38B5A5
:101B4000816B002001F17402536818651068002849
:101B50001CBF006D00280ED100F00EF853610B6819
:101B60001D6208682023846944F0080484610846E3
:101B7000D360136107E031BD01F1560000230380FB
:101B80000F2503817047BDE8324001F0FDB9000028
:101B900000440258548545010050C30054581400B5
:101BA00000350C000048E8010024F400AAC2A2009D
:101BB00000A86100556151002A2C0A00801A060015
:101BC0001516050048E80100FEFFFFEF704730B42E
:101BD000002513E050F8042BD30744BFA9F10103FB
:101BE0009A18091F042942F8045BFAD213468C079D
:101BF00044BF15809B1CC90748BF1D7050F8041BCB
:101C00000029E7D130BC70472DE9F84F044602F0B7
:101C1000EFFE002C009000F0C780236800F05BF915
:101C200004F13405DFF89C06DFF89C165345DFF815
:101C30009C26DFF89C66DFF89C76DFF89CC6DFF810
:101C40009CE618BF4B45DFF8988627D0434518BF60
:101C5000734523D0634518BFBB421FD0B34218BFA2
:101C600093421BD08B4218BF834217D0DFF874B663
:101C70005B451CBFDFF870B65B450FD0DFF86CB674
:101C80005B451CBFDFF868B65B4507D0DFF864B67C
:101C90005B451CBFDFF860B65B453BD153454FF059
:101CA000000B85F800B04FF0020B85F801B018BFAB
:101CB0004B451ED0434518BF73451AD0634518BF26
:101CC000BB4216D0B34218BF934212D08B4218BF0A
:101CD00083420ED0DFF80C0683421CBFDFF80816E3
:101CE0008B4206D0DFF8042693421CBFDFF80006C3
:101CF00083421868400840001860009E23681868F6
:101D0000C10740F1998002F073FE801B0628F5D3CD
:101D1000202046E0DFF8E40583421CBFDFF8E01531
:101D20008B4217D0DFF8DC2593421CBFDFF8D805C3
:101D300083420FD0DFF8D4158B421CBFDFF8D025CB
:101D4000934207D0DFF8CC0583421CBFDFF8C815EB
:101D50008B4225D1002202262A706E701E68A06870
:101D600040286FF3101621D1102024E0B0F5005F59
:101D70000AD1032E00F29180DFE806F00D0A0D0271
:101D8000B1F1C07F79D106E0022E04D9F61E74D1DC
:101D9000C80140F18280402101222962012048E0EF
:101DA0004020286203216970012043E080280CBF95
:101DB0004FF4804000200643E76820696269A1690A
:101DC0000743E0691743226A0F430743DFF84C05D6
:101DD00046EAD70646EA12161E6021681423411807
:101DE0002046B1FBF3F39B00AB6200F0CAFF00F0AA
:101DF0006AF8204601F016F8A068802804BF002188
:101E00006160E96A20790860286B6A6B42606068EB
:101E100038B1092805D2204601F052F800F044F804
:101E200003E00021A963E9632964002101222962FA
:101E300000206A70BDE8F28F1E68A068DFF8A01667
:101E4000E2680E402169064360691643A2690E43A9
:101E5000E1690643206A1643626A0E430643042A78
:101E600003D1E16A206B01430E431E6023685A6967
:101E7000606AD20840EAC20204280ED1A66AE16A6A
:101E8000324351B1A06900287FF470AF002E18BF13
:101E9000022E3FF47DAFFFF473AF5A61204600F08D
:101EA00070FF00F008F8A4E7A96B00200860E86B59
:101EB0002A6C4260704795F828203F2102F01F02EB
:101EC00091408160704795F82820012102F01F029F
:101ED000914041607047DFF80CA6DFF80C96704720
:101EE0002DE9F84F044600250CB90120E7E004F184
:101EF00034063078012808BF0220F7D00127377058
:101F00007078012840F0D5800220DFF8D8B57070D5
:101F1000DFF8D4A535622068DFF8BC73DFF8BC8336
:101F2000DFF8BC93584518BF504528D0484518BF26
:101F3000404524D0B8421CBFDFF898C360451ED08E
:101F4000DFF88CE370451CBFDFF880C3604516D016
:101F5000DFF898C560451CBFDFF868E370450ED018
:101F6000DFF880C360451CBFDFF87CC3604506D046
:101F7000DFF878E370451CBFDFF874C3604500F0FC
:101F8000A0F8204600F088FE2068584518BF50454C
:101F900031D0484518BF40452DD0B8421CBFDFF8AE
:101FA0003413884227D0DFF8282390421CBFDFF883
:101FB0001C3398421FD0DFF8341588421CBFDFF86D
:101FC0000423904217D0DFF81C3398421CBFDFF87F
:101FD000181388420FD0DFF8142390421CBFDFF89B
:101FE0001033984207D0DFF8081588421CBFDFF88D
:101FF000082390420CD1036823F01E0343F016031C
:102000000360F06888B12068016841F008010BE0C6
:10201000026822F00E0242F00A020260F06820B16B
:102020002068016841F004010160F06A0268D10390
:1020300003D5036843F480730360B06B18B1016883
:1020400041F4807101602068584518BF504526D082
:10205000484518BF404522D0B8421CBF9D4A904217
:102060001DD09B4988421CBF984B984217D000F066
:1020700025F91CBF9349884211D09A4B98421CBF46
:10208000994A90420BD0994988421CBF984B98427C
:1020900005D000F00FF91CBF9749884204D10368AE
:1020A00043F00103036009E0026842F001020260AC
:1020B00004E035704FF40061316201252846BDE827
:1020C000F28FD0F800C04FEA5C0C4FEA4C0CC0F81D
:1020D00000C070472DE9F84F054602F089FC002D3D
:1020E000044608D005F134067078022804D0802117
:1020F00000223162327087E02868FFF7ECFEDFF8DB
:10210000DCB1DFF8DC81504518BF484527D0404599
:1021100018BF584523D000F0ABFD1CBF6D4A90425C
:102120001DD000F0AFFD1CBF6849884217D000F0F9
:10213000C5F81CBF634B984211D000F095FD1CBF41
:10214000694A90420BD000F099FD1CBF6849884253
:1021500005D000F0AFF81CBF674B984209D1016869
:1021600021F01E0101602868426922F0800242616C
:1021700003E0016821F00E010160F06A2F68016838
:1021800021F4807101602868504518BF484529D066
:10219000404518BF584525D04F4A90421CBF4D4975
:1021A00088421FD000F06EFD1CBF484A904219D0F3
:1021B000DFF8381388421CBF424B984212D0494A7C
:1021C00090421CBF484988420CD000F057FD1CBF0C
:1021D000474A904206D0DFF8181388421CBF464B8E
:1021E000984213D102685208520002603868C10751
:1021F0002BD502F0FDFB001B0628F7D32020002181
:10220000306203223170727001201CE003685B08A9
:102210005B000360EAE796F82810726A012000F07C
:102220007FF95060316B706B4860B06B30B1016802
:1022300021F480710160F26B306C5060002101204C
:10224000317070700020BDE8F28F2868504518BFCB
:10225000484527D0404518BF584523D000F008FD19
:102260001CBF1C4A90421DD000F00CFD1CBF17493A
:10227000884217D000F022F81CBF124B984211D0B0
:1022800000F0F2FC1CBF184A90420BD000F0F6FCA4
:102290001CBF1749884205D000F00CF81CBF164B34
:1022A0009842B8D196F82810726A3F2000F038F9A9
:1022B0009060B7E7DFF8382290427047DFF82C22B1
:1022C000904270472804024010040240B8000240C7
:1022D000A000024088000240700002405800024006
:1022E0004000024040040240580402407004024092
:1022F00088040240A0040240B80402400854025876
:102300001C5402583054025844540258585402582D
:102310006C5402588054025894540258F8ABFDA7EC
:102320002DE9F14F30B100F134014A78022A03D08F
:10233000802008620120D1E0DFF8A891DFF8A881B1
:102340000668DFF8B001DFF8B021DFF8A031DFF870
:10235000AC41DFF8AC514E45DFF8A8A1DFF8A8B1D9
:10236000DFF8A8C1DFF8A8E118BF464525D07645BB
:1023700018BF664521D05E4518BF56451DD0AE42F8
:1023800018BFA64219D09E4218BF964215D0864269
:102390001CBFDFF88071BE420FD0DFF87C71BE42F7
:1023A0001CBFDFF87871BE4207D0DFF84471BE422F
:1023B0001CBFDFF8C478BE4230D104274E454F70B1
:1023C00018BF464525D0764518BF664521D05E45E5
:1023D00018BF56451DD0AE4218BFA64219D09E4226
:1023E00018BF964215D086421CBFDFF828018642EE
:1023F0000FD0DFF824118E421CBFDFF82021964257
:1024000007D0DFF8EC0086421CBFDFF86C188E4264
:1024100039D132685208520032605EE0376827F0E6
:102420000E073760009E36684E4518BF464525D0DA
:10243000764518BF664521D05E4518BF56451DD06C
:10244000AE4218BFA64219D09E4218BF964215D080
:1024500086421CBFDFF8BC0086420FD0DFF8B820F0
:1024600096421CBFDFF8B4309E4207D0DFF88000F0
:1024700086421CBFDFF80028964209D133685B080A
:102480005B00336008E0306840084000306024E0C2
:102490003268520852003260C86A036823F48073BD
:1024A000036091F828204B6A012002F01F0290403F
:1024B00058600A6B486B5060886B30B1026822F438
:1024C00080720260CB6B086C5860002201200A7099
:1024D0004870C96909B1009888470020BDE8F28FAB
:1024E0003F8010FE1000024028000240100402400D
:1024F000A00402404004024028040240B800024008
:10250000A0000240880002407000024058000240D3
:102510004000024058040240700402408804024017
:1025200001F01F01884070472DE9FE4F0021DFF8C0
:10253000E828019113684FF4165504460121DFF88D
:102540004CA7B3FBF5F5029504F13405686A08233E
:102550000090DFF83C97DFF8C4B8DFF8C48806685D
:10256000D0F800E02268524518BF4A4533D04245B2
:1025700018BF5A452FD0DFF8A879BA421CBFDFF840
:102580002479BA4227D0DFF89C79BA421CBFDFF821
:102590001879BA421FD0DFF81479BA421CBFDFF8AD
:1025A0001079BA4217D0DFF88079BA421CBFDFF841
:1025B0000479BA420FD0DFF87479BA421CBFDFF851
:1025C000F878BA4207D0DFF8F478BA421CBFDFF8D7
:1025D0006079BA4242D100F042FB03FA00F00642B1
:1025E00000F09480524518BF4A4533D0424518BF89
:1025F0005A452FD0DFF8280982421CBFDFF8A40813
:10260000824227D0DFF81C0982421CBFDFF89808FD
:1026100082421FD0DFF8940882421CBFDFF8900886
:10262000824217D0DFF8000982421CBFDFF884081D
:1026300082420FD0DFF8F40882421CBFDFF878082E
:10264000824207D0DFF8740882421CBFDFF8E0083E
:10265000824248D1106800F0040047E0DFF8D468F7
:10266000B2421CBFDFF8D068B24218D0DFF8CC7895
:10267000BA421CBFDFF8C868B24210D0DFF8C468A5
:10268000B2421CBFDFF8C078BA4208D0DFF8BC689D
:10269000B2421CBFDFF8B868B24240F0DE82166872
:1026A00095F8287007F01F0C04278DF800C007FA72
:1026B0000CF7BC461EEA0C0F019700F04D8277071D
:1026C00040F14A82C0F804C0300440F1FF81F103B8
:1026D00000F13A826969002900F0BF82204603B008
:1026E000BDE8F04F0847106800F0080070B11068AE
:1026F00020F00400106095F82820009802F01F02D6
:10270000934083602A6A42F001022A6295F8280009
:10271000DFF80C7800F01F0026FA00F2D30741D54D
:102720002268524518BF4A4532D0424518BF5A4523
:102730002ED0BA421CBFDFF86C379A4228D0DFF89F
:10274000E4379A421CBFDFF860379A4220D0DFF8A6
:102750005C379A421CBFDFF858379A4218D0DFF82E
:10276000C8379A421CBFDFF84C379A4210D0DFF8C6
:10277000BC379A421CBFDFF840379A4208D0DFF8D6
:102780003C379A421CBFDFF8A8379A4240F093804A
:102790005269120606D5814000988160296A41F08D
:1027A0000201296295F82800042200F01F0002FAB5
:1027B00000F006423FD02168514518BF494531D04D
:1027C000414518BF59452DD0B9421CBFDFF8D4266A
:1027D000914227D0DFF84C3799421CBFDFF8C8265A
:1027E00091421FD0DFF8C42691421CBFDFF8C036EB
:1027F000994217D0DFF8302791421CBFDFF8B4268A
:1028000091420FD0DFF8243799421CBFDFF8A82689
:10281000914207D0DFF8A42691421CBFDFF81037A1
:1028200099424AD109688A0705D5009B9860286AB1
:1028300040F00400286295F82810102201F01F01D2
:1028400002FA01F10E4257D02068504518BF4845A2
:102850002DD0404518BF584529D0B8421CBFDFF8DD
:102860004426904223D000F00DFA1CBFDFF8382632
:1028700090421CD0FFF722FD1CBFDFF8343698428F
:1028800015D0DFF8A42690421CBFDFF8282690421E
:102890000DD000F0F3F91CBFDFF81C26904206D0E3
:1028A000FFF708FD1CBFDFF88836984207D10068A3
:1028B00000F0080006E0106874E70968BBE70068EC
:1028C00000F00400C0B100988160206801684A03EC
:1028D00007D5006801030BD5696969B120468847AF
:1028E0000AE00168CA0503D4036823F00803036003
:1028F000E96809B12046884795F82810202001F0A2
:102900001F0100FA01F10E423AD02068504518BF6D
:1029100048452DD0404518BF584529D0B8421CBF66
:10292000DFF88025904223D000F0ACF91CBFDFF81F
:102930007865B0421CD0FFF7C1FC1CBFDFF87035D2
:10294000984215D0DFF8E065B0421CBFDFF864257F
:1029500090420DD000F092F91CBFDFF85C65B042E8
:1029600006D0FFF7A7FC1CBFDFF8C435984203D19F
:10297000006800F0100002E0006800F0020000288B
:1029800047D00098816020686978042927D10268BF
:1029900022F0160202602068436923F0800343613D
:1029A000E968002904BF6869002804D0206801682C
:1029B00021F00801016095F8282000993F2002F0DD
:1029C0001F02904088600020287001226A70E96927
:1029D000002920D0204603B0BDE8F04F0847016829
:1029E0004A0307D5006801030FD4296989B120463D
:1029F00088470EE00168CA0507D40368012123F067
:102A000010030360002028706970A96809B120468E
:102A10008847286A002800F02081296AC8074FD516
:102A200004226A702068504518BF484531D040459F
:102A300018BF58452DD0B8421CBFDFF86814884233
:102A400027D0DFF8E02490421CBFDFF85C349842C6
:102A50001FD0DFF8581488421CBFDFF8542490427E
:102A600017D0DFF8C43498421CBFDFF848148842FE
:102A70000FD0DFF8B82490421CBFDFF83C349842F6
:102A800007D0DFF8381488421CBFDFF8A424904236
:102A900017D103685B085B0003600298019A521C1F
:102AA00090420192216802D30A68D307F6D400202D
:102AB00028700968CA0759BF0120687003236B702A
:102AC000C4E00168490849000160E6E7B0063BD46C
:102AD0002068504518BF48452DD0404518BF58457F
:102AE00029D000F0C5F81CBFDFF8B823904222D0EF
:102AF00000F0C8F81CBFDFF8B01388421BD0FFF706
:102B0000DDFB1CBFDFF8A833984214D000F0ACF80E
:102B10001CBFDFF8A02390420DD000F0AFF81CBF1F
:102B2000DFF89413884206D0FFF7C4FB1CBFDFF820
:102B30000034984204D1016821F00801016003E0EB
:102B4000026822F004020260E968002918D02046D9
:102B500003B0BDE8F04F08479DF800C0022707FA10
:102B60000CF7BC461EEA0C0F019758D0B70756D594
:102B7000C0F804C0300409D5F10349D429690029FB
:102B80006BD0204603B0BDE8F04F0847B0063FD4F5
:102B90002068504518BF48452DD0404518BF5845BE
:102BA00029D000F065F81CBFDFF8F822904222D04F
:102BB00000F068F81CBFDFF8F01288421BD0FFF766
:102BC0007DFB1CBFDFF8E832984214D000F04CF8CF
:102BD0001CBFDFF8E02290420DD000F04FF81CBF80
:102BE000DFF8D412884206D0FFF764FB1CBFDFF881
:102BF0004033984204D1016821F01401016003E0E0
:102C0000026822F00A020260002001212870697027
:102C1000A96811B3204603B0BDE8F04F08479DF8FE
:102C20000070BB401EEA030F17D0330715D5166896
:102C300026F00E06166095F8282002F01F0291403B
:102C4000416001202862002129706870A96921B1C2
:102C5000204603B0BDE8F04F0847BDE8F78F95F870
:102C6000280000F01F007047DFF8BC128842704750
:102C7000DFF8AC1288427047B8040240DFF8AC328B
:102C800098427047DFF89C3298427047100002402B
:102C900028000240406D7047F0B5446E876E856D28
:102CA0006760C46E2E4614B1046F476F6760046896
:102CB000A84FBC421CBFA84FBC4229D0584FBC42B1
:102CC0001CBF564FBC4223D0954FBC421CBF754F12
:102CD000BC421DD0934FBC421CBF734FBC4217D0A7
:102CE000724FBC421CBF724FBC4211D08E4FBC42CF
:102CF0001CBF704FBC420BD08C4FBC421CBF6E4FF0
:102D0000BC4205D06D4FBC421CBF894FBC4211D1A3
:102D100090F85C703F2607F01F07BE40AE60256844
:102D200025F48025256063608068402826D0A16056
:102D3000E260F0BD7F4DAC421CBF7F4FBC4211D062
:102D40007E4DAC421CBF7E4DAC420BD07D4FBC4291
:102D50001CBF7D4DAC4205D07C4DAC421CBF7C4FAE
:102D6000BC42E6D190F85C50012705F01F0507FA38
:102D700005F57560636080684028D8D1A260E16085
:102D8000F0BDF0B50168734A91421CBF724B994285
:102D900029D0234CA1421CBF204A914223D0604B32
:102DA00099421CBF3F4CA1421DD05E4A91421CBFBC
:102DB0003D4B994217D03D4CA1421CBF3C4A914229
:102DC00011D0594B99421CBF3A4CA1420BD0574AE3
:102DD00091421CBF384B994205D0384CA1421CBFD0
:102DE000534A914211D101F0FF03890A103B182484
:102DF000B3FBF4F20FF2881502F007068902AF5D0B
:102E0000042AC76503D3091D01E0090A0902816587
:102E10000846F0BD000000008C000024580002406D
:102E2000400002400122F0B5424D0468AC421CBF94
:102E3000414EB442234611D0404FBC421CBF404DCE
:102E4000AC420BD03F4EB4421CBF3F4FBC4205D0FA
:102E50003E4DAC421CBF3E4EB4420DD104F0FF01CA
:102E6000083914233D4DB1FBF3F13D4B03EB8103D6
:102E700001F01F018A4011E004F0FF01103918240D
:102E8000384DB1FBF4F43849CB18A92B374B38BF78
:102E9000083403EB840304F01F04A24082664566F5
:102EA0000366F0BD88000240B800024010040240F2
:102EB000280402405804024088040240A004024052
:102EC0000179002900D170470929F0B527D202689D
:102ED000184B9A421CBF184DAA4211D0174EB2424D
:102EE0001CBF174B9A420BD0164DAA421CBF164E60
:102EF000B24205D0154FBA421CBF154DAA4204D1AB
:102F00001B4B1C4A03EB810403E01B4A02EB8104C8
:102F10001A4A0123491E8B400267C4664367F0BD0D
:102F200070000240A00002404004024070040240D1
:102F3000B8040240085402581C5402583054025835
:102F400044540258585402586C5402588054025841
:102F50009454025810000240280002408058025841
:102F60000058025880080240F0FBFDBF00080240F4
:102F7000FC58025840590258FC08024040090240DF
:102F8000000610160006101670470000BFF34F8FA2
:102F9000DFF88C2402E01060203020390129FADAB1
:102FA000BFF34F8FBFF36F8F704700002DE9F041E3
:102FB00086B0DFF870542868002240F001002860D5
:102FC000296801F0010100910098296941F400315C
:102FD0002961286900F4003000900099A86840F049
:102FE0000800A860A96801F0080100910098DFF8C6
:102FF0003814DFF838048280426182610122016066
:10300000026201F0FDFC08B101F066FEDFF8204429
:103010000020E0642969DFF81C240B2341F0020141
:1030200029612869DFF8105400F00200009000992F
:103030000020E260A061E0616061206204F10C00A8
:10304000236101F04BFE002200211D2001F0C2FF90
:103050001D2001F0DCFF18210122019100230292C2
:1030600001A903932846049302F03EF8602102224E
:10307000019103210292012304910722039301A9E4
:103080000592284602F030F8DFF8B053DFF8B003BD
:103090002860DFF8B01369604FF4004000220C2173
:1030A000E8612846AA60EA602A616961AA612A6229
:1030B0006A62AA62FDF7F0F808B101F00DFE002186
:1030C000284600F006FA08B101F006FE0021284665
:1030D00000F00AFA08B101F0FFFD284600F0DCF923
:1030E00008B101F0F9FD2B20DFF85C63DFF85C73B9
:1030F000002170604FF4806837603046B160F16045
:10310000C6F810807161B161F16131627162FEF7E0
:103110007BFD08B101F0E0FD07F1180006F184071E
:10312000AE672C21B067002040223860B860F8609C
:1031300038617861B86106F17800B563F167C6F867
:103140008020C7F80480FEF75FFD08B101F0C4FDE0
:1031500006F17800102168672620FD622A68116256
:103160000022002101F036FF262001F050FF00224E
:1031700000210B2001F02EFF0B2001F048FF002260
:1031800000210C2001F026FF0C2001F040FF00BFC1
:10319000BFA0AF49D0E90023C1E900234FF4C862C2
:1031A00004F15401284600F06FF806B0BDE8F08144
:1031B0002DE9F0410E46A14CD4F88030202BFBD1F4
:1031C000DFF88C820146324608F1080002F09AF8D6
:1031D000314608F10800964F00F051F87860002061
:1031E000032108F1080207F1040C5FFA81FEC3B263
:1031F0001CF80E509B19401C491ED554C3B2042B19
:10320000F3DB0C36934D02F089F84FF47A724FF4E9
:103210007A7190FBF2F201FB120000F57A70A8605F
:103220000020286007F10C0001F065FD39780129C4
:10323000FCD1002038707A78012AE4D14FF4C861BB
:103240004046FFF7A3FE2068016821F010010160ED
:103250002068026822F02002026000F05FF800F0AF
:103260005AF8012200F034F8B2B241462046FDF788
:1032700053F810B1386D401C3865BDE8F0810A463E
:1032800001466A4801F0F8BB70B504460D46164683
:10329000D4F880002028FBD100F040F800F03BF883
:1032A000002200F015F84FF4C8612846FFF76EFEC3
:1032B000324629462046FDF772F82068016841F041
:1032C000100101602068026842F02002026070BDB7
:1032D0001821594801F0F0BF4FF4C8625E49D3E7A6
:1032E000704710B5044600F087F8C369190744BF5A
:1032F00008220262C169C269930744BF02210162C8
:1033000000F00CF800F007F820464FF4C86252496C
:10331000BDE81040B8E72046FDF7CEB82046FDF7DF
:103320008DB870B504464949A06F006888421CBF3B
:103330004A4A904222D04A4B98421CBF494988428F
:103340001CD0494A90421CBF484B984216D048496D
:1033500088421CBF474A904210D0474B98421CBF3E
:10336000464988420AD0464A90421CBF454B984283
:1033700004D0454988421CBF444A904240682C4DC5
:103380002881FFF7CBFFFFF7C6FF00F035F82E8945
:10339000C6F5C866B0B200286E8125D0193840F253
:1033A000E251884220D203220FF2E90105F15900CF
:1033B00002F006F8C0B9B6B2A6F1080105F15C004A
:1033C000FFF75DFF50B14FF4C86205F1540120468C
:1033D000FFF75AFFE86C401CE86470BD6989012260
:1033E00005F1540002F07DF805F1540120464FF438
:1033F000C862BDE8704047E72068016821F010010D
:103400000160026822F02002026070470848012132
:1034100000F80C1B01F083BC0549487070470000A0
:1034200070EF00E0D8440258004C02589412002477
:103430009400002400040040000C025838100024BE
:1034400000440040808D5B00480F002410000240C3
:103450003007002424040040E80000242800024033
:1034600040000240580002407000024088000240C4
:10347000A0000240B80002401004024028040240AC
:103480004004024058040240700402408804024094
:10349000AAAAAAAAAAAAAAAB10B500F17C010A7826
:1034A000012A01D1022010BD012324220B704A60A1
:1034B000026813681468640864001460002242669D
:1034C000006823F00053036020234B6000200A7043
:1034D00010BD70B500F01FF801D1022070BD00F0E2
:1034E00020F822F0604209E070B500F014F801D134
:1034F000022070BD00F015F822F060621143816077
:10350000204600F01DF820682021002206600020DF
:1035100069602A7070BD044604F17C052878012892
:103520007047012224202A706860206806680368BA
:103530005B085B0003602068826870470000000041
:10354000BFB500BF14A300BF15A702AAD3E9004569
:10355000D7E900CEC2E90045CDE900CE416E11B9F0
:103560000121012213E0016802AC8A688968520EC9
:1035700002F00702490F655CA45C1DF801101DF8FC
:103580000220ED00E40095FBF1F194FBF2F26830CB
:1035900041800280BFBD000001010103070100005E
:1035A00008040204080101017047704770470000D9
:1035B0002DE9F047044600262068B046DFF8685839
:1035C000010122D5626E4AB1B2F5801F0BD0B2F56F
:1035D000001F15D0B2F5401F09D014E0EB6943F489
:1035E0000033EB6105E0022100F07BFB0646300072
:1035F0000AD1296C606E21F440110143296404E072
:1036000000F071FBF2E70126B0462068C1051CD529
:10361000626D042A17D8DFE802F0030E12050500D8
:1036200000F054FB30000FD1296C606DC90840EAEE
:10363000C101296409E000F053FB0646F2E70021CE
:1036400000F04AFBF9E70126B0462068810520D545
:10365000A26D4AB1402A12D0802A14D0C02A18BFC5
:10366000B2F5807F02D012E000F030FB30000FD1C5
:10367000296CA06D21F4E0710143296409E000F098
:103680002FFB0646F2E7002100F026FBF9E70126B2
:10369000B046206804F18407410523D53A6A62B137
:1036A000B2F5001F14D0B2F5800F15D0B2F5C00FDF
:1036B00018BFB2F5000F02D012E000F007FB300097
:1036C0000FD1A96C386A21F460010143A96409E0B3
:1036D00000F006FB0646F2E7002100F0FDFAF9E7EC
:1036E0000126B0462068010523D57A6A62B1B2F19D
:1036F000807F14D0B2F1007F15D0B2F1407F18BFA7
:10370000B2F1806F02D012E000F0E0FA30000FD189
:10371000A96C786A21F0E0610143A96409E000F036
:10372000DFFA0646F2E7002100F0D6FAF9E70126B3
:10373000B046206881011AD5A26C42B1102A04D08B
:10374000202A0DD0302A02D00FE000F0BFFA30005E
:103750000CD1E96BA06C21F030010143E96306E074
:10376000022100F0BEFA0646F1E70126B0462068C5
:10377000C10423D5E26D62B1B2F5805F14D0B2F519
:10378000005F15D0B2F5405F18BFB2F5804F02D090
:1037900012E000F09BFA30000FD1296CE06D21F4AB
:1037A000E0410143296409E000F09AFA0646F2E795
:1037B000002100F091FAF9E70126B0462068810463
:1037C00022D5226E92B1B2F5803F0BD0B2F5003F08
:1037D00015D0B2F5403F1CBFB2F5802FB2F5A02F37
:1037E00004D00FE0012100F07CFA064630000AD137
:1037F000296C206E21F4E0210143296404E000F0EB
:103800006AFAF2E70126B0462068410422D5BA6A76
:1038100092B1B2F1805F0BD0B2F1005F15D0B2F17E
:10382000405F1CBFB2F1804FB2F1A04F04D00FE057
:10383000012100F056FA064630000AD1A96CB86A98
:1038400021F0E0410143A96404E000F044FAF2E70A
:103850000126B046206801041AD5E26E42B1B2F1E9
:10386000805F03D0B2F1005F0BD00FE000F02EFAC2
:1038700030000CD1296CE06E21F0405101432964E5
:1038800006E0012100F02DFA0646F1E70126B046D8
:103890002068C10118D5626C032A13D8DFE802F052
:1038A00004020D0400F012FA30000CD1E96B606CD8
:1038B000890840EA8101E96306E0022100F011FA7B
:1038C0000646F1E70126B0462068410221D5DFF81F
:1038D0004896D9F8002042F48072C9F8002001F01F
:1038E00087F88246D9F80000C10500F1B98101F0DE
:1038F0007FF8A0EB0A006528F4D308E001F078F81F
:10390000A0EB090041F289318842C0F0C78103264B
:10391000B0462278D10725D5A06F68B1082807D016
:1039200010281AD018281CBF2028282804D017E0F7
:10393000012100F0D6F90646300012D1696CA06F63
:1039400021F03801014369640CE02960286EF96AAE
:10395000C1F30B0108432866DBE700F0BCF9EAE796
:103960000126B04621788A0719D5606F052814D83A
:10397000DFE800F0070310070707012100F0B1F9A5
:10398000064630000AD1696C606FC90840EAC1017F
:10399000696404E000F09FF9F2E70126B04621785F
:1039A0004A0719D5F868052814D8DFE800F007039E
:1039B00010070707012100F094F9064630000AD1EC
:1039C000A96CF868C90840EAC101A96404E000F0E4
:1039D00082F9F2E70126B04621788A0621D5B86837
:1039E00088B1B0F1805F0BD0B0F1005F14D0B0F1BE
:1039F000405F1CBFB0F1804FB0F1A04F03D00EE08C
:103A000000F06EF9064630000AD1696CB86821F002
:103A1000E0410143696404E000F065F9F2E7012642
:103A2000B04621784A0621D5786988B1B0F5806F13
:103A30000BD0B0F5006F14D0B0F5406F1CBFB0F5DF
:103A4000805FB0F5A05F03D00EE000F049F90646B4
:103A500030000AD1A96C786921F4E0510143A964CE
:103A600004E000F040F9F2E70126B04621780A06AA
:103A700021D5B86988B1B0F5005F0BD0B0F5804FA3
:103A800014D0B0F5C04F1CBFB0F5004FB0F5204FBB
:103A900003D00EE000F024F9064630000AD1A96CEC
:103AA000B86921F460410143A96404E000F01BF906
:103AB000F2E70126B04621780A070FD5D4F8800036
:103AC000B0F5805F05D100F00EF938B14FF0010874
:103AD00004E0696C21F44051084368642078C10611
:103AE0000ED53869B0F5807F05D100F0FCF838B10B
:103AF0004FF0010804E0A96C21F440710843A86468
:103B00002068010319D5FA6932B1B2F5803F0FD0B0
:103B1000B2F5003F03D00EE000F0E2F806463000B8
:103B20000AD1A96CF86921F440310143A96404E089
:103B300000F0D9F8F2E70126B04621684A031BD508
:103B40003868B0F5801F06D0B0F5001F0ED0B0F574
:103B5000401F02D00EE000F0B4F830000BD1696CC9
:103B6000386821F440110143696405E000F0B3F8BE
:103B70000646F2E70126B0462168CA0317D5E06C75
:103B800018B1B0F5803F0BD00FE000F09AF830008C
:103B90000CD1E96BE06C21F480310143E96306E06C
:103BA000022100F09EF80646F1E70126B0462168A2
:103BB0008A0004D500F097F808B14FF00108216899
:103BC0008A0318D5E06F58B1B0F5807F06D0B0F504
:103BD000007F18BFB0F5407F02D00AE000F071F816
:103BE000300007D1696CE06F21F4407101436964D2
:103BF00001E00126B0462268D00205D5296C206F6D
:103C000021F00041014329642168CA0005D52B68D1
:103C1000386B23F4804303432B6021688A0205D567
:103C20002B6CA06E23F0807303432B6421684A0041
:103C300007D52B6823F400432B602968786B014378
:103C400029602268002A05D5EB6B206D23F04053D4
:103C50000343EB635FEA080018BF0120BDE8F0876B
:103C600030007FF455AE286EF96A00F4407001F41C
:103C7000407188420BD0286E296E41F4803129664C
:103C80002A6E20F4407022F480322A662866F86A90
:103C9000B0F5807F06D100F0ABFE8146286E81072B
:103CA0007FF52CAEF86A296800F44072B2F5407FC7
:103CB00021F47C5104D1DFF81C2402EA10121143D4
:103CC00043E6E96941F40031E9617047E86940F48D
:103CD0000030E8617047012104F1240000F077B959
:103CE0000021201D1AE1022104F1240000F06FB927
:103CF00080B500F0F6FBDFF8E823DFF8E81313687F
:103D0000C3F30212895C01F01F01C84002BD00002C
:103D100030B500F082F8DA6B05F01005C1F305311B
:103D200000F08BF81DD000F081F802D0022C06D0F4
:103D300008E000F0B9F8996B00F04CF807E09FED4F
:103D4000712A01E09FED702A996B00F053F8996B8E
:103D500000F098F8996B00F086F8996B00F076F80F
:103D600001E000F031F82BE030B500F056F85A6C65
:103D700005F48075C1F3055100F05FF81DD000F027
:103D800055F802D0022C06D008E000F08DF8196C2E
:103D900000F020F807E09FED5B2A01E09FED5A2A32
:103DA000196C00F027F8196C00F06CF8196C00F031
:103DB0005AF8196C00F04AF801E000F005F800BF6D
:103DC00080ED020A30BD000000229FED500A026023
:103DD00042607047F7EE001AC1F3080101EE101AB5
:103DE000B8EE411A31EE000A70EE211A20EEA10A57
:103DF00070470000DFED461AC2EE200AC1F3080149
:103E000001EE101AB8EE411A00EE211AB7EE000AC0
:103E100031EE000A20EE800A7047DFF8CC329C6A4F
:103E2000996ADD6A704700001044025814F00304D8
:103E300000EE901AF8EE600A7047C2F3CC025543C8
:103E4000002900EE105AB8EE400A7047C1F306612F
:103E500000EE901AF8EE600A70EE810A80EE200AF9
:103E6000BCEEC00A7047C1F3064100EE901AF8EEAE
:103E7000600A70EE810AC0EE200AFCEEE00AC0ED96
:103E8000010A7047B7EE001AC1F3462100EE901AFE
:103E9000F8EE600A70EE810AC0EE200AFCEEE00A3D
:103EA000C0ED000A7047000019689FED191A20EE56
:103EB000010A8A060CD51968DFF81C42C1F3C1015A
:103EC000CC4001EE104AB8EE411AC1EE200A70470C
:103ED0009FED102AC2EE200A7047000010B500F0D6
:103EE00081FADFF8F831DFF8FC211C68DFF8FC11FB
:103EF000C4F30323D25C02F01F02D04008600868BC
:103F000010BD00000024F44A0024744A00000000A0
:103F1000000000390024744C00480258F8B500F045
:103F2000D0F801D10120F2BD286820F0806000F0B7
:103F3000ADF807462968080120D500F059FDC01BDF
:103F40000328F7D30320F2BD012C04D1E86A40F422
:103F50008010E86203E0E96A41F40011E962286830
:103F600040F0806000F092F80446296808012CD4E3
:103F700000F03EFD001B0328F7D3E3E7A86A316891
:103F800020F47C3040EA013000F083F8A863E96A4D
:103F9000706921F0C0010143E962E96AB06921F06A
:103FA00020010143002CE962E96A21F01001E96275
:103FB000E86B00F065F8E863E86A40F01000E8623A
:103FC000C2D1E86A40F40020C3E70020F2BDF8B592
:103FD00000F077F801D10120F2BD286820F0805070
:103FE00000F054F807462968880020D500F000FD4D
:103FF000C01B0328F7D30320F2BD012C04D1E86ACB
:1040000040F40000E86203E0E96A41F08071E9628F
:10401000286840F0805000F039F80446296888008C
:104020002CD400F0E5FC001B0328F7D3E3E7A86AD3
:10403000316820F07C7040EA015000F02AF82864D2
:10404000E96A706921F440610143E962E96AB06993
:1040500021F400710143002CE962E96A21F48071C6
:10406000E962686C00F00CF86864E86A40F48070FB
:10407000E862C2D1E86A40F48000C3E70020F2BDE4
:10408000F1696FF3CF0040EAC1007047286000F08B
:10409000AFBCA862B1687068F268491E4902401E50
:1040A000C0F30800521E01F47E4112040843316936
:1040B00002F4FE021043491E090601F0FE410843C6
:1040C00070470646084DA86A0C4600F00300032816
:1040D00070470000CFFFFF000090D0031844025843
:1040E00020440258F0830008004402588C00002449
:1040F000D3BBD9B1B2F5803F5BD2022A1ED98C4620
:10410000B1FBF2F102FB11C31B0443EA1043B3FB02
:10411000F2FC02FB1C3380B240EA0343B3FBF2F033
:1041200002FB103240EA0C4000237047022A05D9F6
:104130008446B0FBF2F002FB10C270474AB105D1D1
:1041400000F0010249085FEA3000704700220023B6
:10415000704701F01BBA0B000200002100207047DD
:10416000F7D3002200237047904271EB030CF2D387
:1041700070B5B1FA81F4B3FA83F52C1BA340C4F1F6
:10418000200532FA05F63343A2405FF00046E640D0
:1041900002E05B085FEA3202841A71EB030524BF78
:1041A000204629467641F4D302000B00300000215E
:1041B00070BD70B5B1FA81F4B2FA82F5C4F1200491
:1041C0006419B4F12006DAD3B2405FF00044F44041
:1041D000002502E052085FEA3303C61A71EB020EB3
:1041E00024BF3046714664416D41F3D302000B0099
:1041F0002000290070BD00002DE9F0410400884630
:1042000056D0DFF84863306800F00F00404502D216
:1042100000F0DEF84CD12078DFF82453410706D5B2
:104220002069AA6902F07002824200F0CAF8207880
:10423000010706D56069EA6902F07002824200F067
:10424000B9F82078C10606D5A069EA6902F4E062EF
:10425000824200F0A8F82078810606D5E0692A6A33
:1042600002F07002824200F097F82078810706D5AC
:10427000E068AA6902F00F02824200F086F8207816
:10428000C1076ED5AA69A06822F470620243AA61D0
:104290006068022802D129688A0308E0032802D155
:1042A00029688A0103E0012803D12968CA0503D4DB
:1042B00069E02B68590766D52A69D20840EAC2002E
:1042C000286100F095FB07462869616800F0380016
:1042D000B0EBC10F45D000F08BFBC01B41F289321F
:1042E0009042F1D303203AE02078410706D52069B7
:1042F000AA6902F07002904200F063F8207801078A
:1043000006D56069EA6902F07002904200F052F846
:104310002078C10606D5A069EA6902F4E0629042FD
:1043200000F041F82078810606D5E0692A6A02F09B
:104330007002904200F030F800F054F8AA69DFF8FB
:104340001012DFF80432C2F30322895C01F01F016E
:10435000C84018600020BDE8F04101F019B9BDE87F
:10436000F0812078810706D5E068AA6902F00F0283
:10437000904200F00AF8306800F00F008045B3D298
:1043800000F026F8B0D00120E9E704D2A9690909B4
:1043900040EA0110A861704704D2296A21F0700137
:1043A00008432862704704D2E96921F4E0610843B8
:1043B000E861704704D2E96921F070010843E861BF
:1043C000704704D2A96921F070010843A8617047C1
:1043D0003168090948EA01113160326802F00F02C0
:1043E0004245704730B5564B5648196911F03801AF
:1043F00004D010290AD018290AD069E01A68940656
:1044000067D51968C1F3C101C84030BD514830BDFE
:104410009C6A996ADD6A5A6B05F00105C1F30511C2
:10442000C2F3CC025543002900EE105AB8EE400A00
:104430004CD014F0030400EE901AF8EE600A02D09B
:10444000022C20D022E019689FED391A20EE010AD3
:104450008A0608D51968C1F3C101C84000F03CF8CC
:10446000C1EE200A03E09FED332AC2EE200A186B4A
:10447000F7EE001A00F02EF831EE000A70EE211A65
:1044800020EEA10A13E09FED2C2A01E09FED2B2ADC
:10449000186BDFED271AC2EE200A00F01BF800EEC1
:1044A000211AB7EE000A31EE000A20EE800A186BDE
:1044B000C0F34620401C00EE900AF8EE600A80EE41
:1044C000200ABCEEC00A10EE100A30BD002030BD3C
:1044D000214830BDC0F3080001EE100AB8EE411AC1
:1044E000704710B5FFF7FAFC1C4A1949136803F02E
:1044F0000F03CC5C1A4904F01F04E040086010BDB3
:1045000080B5FFF7EEFF00F00FF8C3F3021206E0EC
:1045100080B5FFF7E6FF00F007F8C3F30222895CDD
:1045200001F01F01C84002BD0E4A094913687047D7
:10453000000000390024744C0024F44A0024744A1A
:10454000004402580090D0038C0000240020005248
:10455000F083000800127A0000093D001844025858
:10456000900000241C440258F8B5050017D02878A4
:10457000DFF87064C1074AD53069B16A00F03800CD
:10458000102805D0182804BF01F00301022908D122
:1045900031688A033BD56868002840F01A81012001
:1045A000F2BD6868B0F5803F0FD038B9316821F4AA
:1045B00080313160306820F4802009E0B0F5A02F10
:1045C00008D1316841F480213160306840F4803096
:1045D000306007E0326822F480323260316821F4C2
:1045E00080213160686868B100F002FA04463168E1
:1045F000880300F1EE8000F0FBF9001B6528F6D37C
:104600000320F2BD00F0F4F904463068810340F164
:10461000E08000F0EDF9001B6528F6D3F0E700F02C
:10462000E7F9C01B0328C0F0F380E9E700F0E0F9E8
:10463000C01B0328C0F02B81E2E7E868B8B13168FD
:1046400021F019010843306000F0D2F907463068C4
:10465000410700F1378100F0CBF9C01B0328F6D3E6
:10466000CEE720F0FE40296940EA0160DEE03068D4
:1046700040084000306000F0BBF907463168480749
:1046800040F1D58000F0B4F9C01B0328F6D3B7E79A
:10469000E869C0B1316841F08001316000F0A8F9EB
:1046A00007463068C10500F1148100F0A1F9C01B74
:1046B0000328F6D3A4E7F068296A20F07C5040EA8A
:1046C0000160F060D5E0306820F08000306000F0DC
:1046D0008FF907463168C805F4D500F089F9C01B89
:1046E0000328F7D38CE7706F40084000706700F034
:1046F0007FF90746706F810740F1CD8000F078F9AF
:10470000C01B0328F6D37BE7306820F4805030606C
:1047100000F06EF907463168880440F1E08000F04F
:1047200067F9C01B0328F6D36AE700F061F9C01BE4
:104730006528C0F0DF8063E708B9306F09E005281D
:10474000306F06D140F004003067316F41F0010155
:1047500005E0400840003067316F21F00401316707
:10476000A86841F2893760B100F042F90446306F21
:10477000810700F1CC8000F03BF9001BB842F6D372
:104780003EE700F035F90446306F810740F1BF8005
:1047900000F02EF9001BB842F6D331E700F028F9FB
:1047A000C01B0328C0F0C6802AE700F021F9401B97
:1047B0000328C0F0118123E700F01AF9054631689B
:1047C000880140F10D8100F013F9401B0328F6D356
:1047D00016E7297841F204048A0728D53069B16ABE
:1047E00010F0380005D0182808BF11F0030F7FF42F
:1047F00024AFE86831684A0702D500283FF4CFAEFD
:10480000316821F019010843306000F0F1F80746E3
:10481000306841077FF503AF00F001FFA0427068E8
:1048200054D220F47C30296940EA01307060287845
:10483000C1061ED53069B16A00F03800082806D0DC
:10484000182804BF01F0030101297FF421AF30686B
:10485000C10503D5EA69802A7FF4A1AE00F0DFFE2E
:10486000A04239D27068296A20F0F84040EA81609D
:1048700070602A7811070ED5686900283FF433AFBD
:10488000716F41F00101716700F0B2F80746706F77
:1048900081077FF5CBAE2A78930620D5A86900283A
:1048A0003FF432AF316841F48051316000F0A0F83C
:1048B00004463068810412D400F09AF8001B0328E3
:1048C000F7D39DE600F0ABFEA0427068BFF4C9AE1E
:1048D000A7E700F0A4FEA042BFF4EDAEC2E728783F
:1048E000410714D5404C226842F48072226000F0E7
:1048F0007FF807462068C1057FF517AFA868012833
:104900007FF41AAF306F40F00100306728E7686A23
:10491000002865D0316901F0380118293FF43FAE15
:104920000228306820F0807030607FF445AF00F0DE
:104930005FF80746316888013FF530AFB26AA86A70
:104940002A49EB6A0A40024342EA0312B262696BE7
:10495000286BAA6B491E4902401EC0F30800521E74
:1049600001F47E4112040843E96B02F4FE02104395
:10497000491E090601F0FE4108433063F06A400811
:104980004000F062716BA86C6FF3CF0141EAC00187
:104990007163F16A286C21F00C010143F162F16A44
:1049A000686C21F002010143F162F16A41F4803147
:1049B000F162F06A40F40030F062F16A41F4802163
:1049C000F162F06A40F00100F062316841F08071FC
:1049D000316000F00DF80546306881017FF5E5AEE5
:1049E0000020F2BD00440258004802580CFCFFFFB2
:1049F00001484068704700BF80000024704770473E
:104A000010B504001FD0617F19B90022227700F091
:104A10002EFE02216177207970B922681549516113
:104A20002068836823F018038360607968B922687E
:104A30004FF0FF3111610BE0E268A168204600F001
:104A40002DFE0028F1D0012010BD216820690861E9
:104A500021688A68606922F0600202438A602168E6
:104A60008A68A06922F08002024300208A60012146
:104A7000617710BDB71DC10438B5022304466377C2
:104A8000236800209D6845F001059D60236A012B85
:104A900010D012D3032B08D03CBF204600F044F8BE
:104AA0000BE051F82050401C1D6090422368F8D361
:104AB000186802E0204600F003F80121617732BD5A
:104AC000F0B500230CE06678257807685B1C360497
:104AD00046EA0566A578E47846EA052626433E6060
:104AE000B3EB920F01EB8304EDD312F0030218D065
:104AF000012A03D102682178117012E0022A06D13E
:104B000061782378026841EA0321118009E0032AD1
:104B100007D162780168237842EA03220A80A478E8
:104B20000C7000680068F0BDF0B5002308E001EBF0
:104B3000830631F823505B1C778847EA05472760D6
:104B4000B3EB520F0468F2D3D00744BF31F82310FF
:104B500021802068F0BD000038B500F038F85749D2
:104B60000020086000F033F8554A136843F400331E
:104B7000136000F02CF81067BFF34F8FD36EC3F3B0
:104B80004E34C3F3C90543F6E07000EA441040EA2E
:104B9000857008612846451E0028F4D12046441E31
:104BA0000028EED1BFF34F8F106840F480301060C2
:104BB00000F00DF800F00EFD00F00EF800F010FC13
:104BC00000F0A1FDFEF7F2F900F061FCFCE7BFF395
:104BD0004F8FBFF36F8F704718B5CBB0394C09A812
:104BE00021464C2200F08EFB01A8202100F03CFF62
:104BF0001CA804F14C01BC2200F084FB022000F050
:104C000037FF0020009030480168490849000160E2
:104C100002682E4802F001020092016841F440410E
:104C20000160026802F44042009200990268930415
:104C3000FCD501214FF48032099164210A920122AE
:104C40001492022315910C2100221293139309A8A8
:104C500016931793189319911A921B92FFF784FCDD
:104C60003F21032201910821029240220491402118
:104C70000592002306914FF480620891022103936C
:104C800001A80792FFF7B8FA022100221C911CA884
:104C90003992FEF78DFC4CB010BD10B504460C499E
:104CA0002068884208BFFEF7B1FB226809488242AB
:104CB00003D1BDE8104000F055BC10BD50EF00E03E
:104CC00014ED00E0BC8100082C040058184802587C
:104CD00000040040000800407047000038B50400A0
:104CE00001D1012032BD00F03DF818B900F036F8CE
:104CF00000F054F928E00168DFF87000CA6842F05B
:104D00000102CA608A680240062A18BFB2F5803FD5
:104D100003D00A6842F001020A6000207047006870
:104D200041F21113C16849084900C160026A1A4280
:104D300002BF016A40F24442114203D103685B089A
:104D40005B000360002070470220211D687020680E
:104D500000F0BFF801206870002032BD002120461D
:104D60002970704704F13C0568787047070001001E
:104D700010B50446206801698A0715D5C3689907EC
:104D800012D56FF00202012302612377806910F0CF
:104D9000030F204602D000F091FE03E000F08FFEEA
:104DA00000F094F800202077206801694A0715D5A3
:104DB000C368590712D56FF00402022302612377FA
:104DC000806910F4407F204602D000F077FE03E0B7
:104DD00000F075FE00F07AF8002020772068016965
:104DE0000A0715D5C368190712D56FF00802042306
:104DF00002612377C06910F0030F204602D000F053
:104E00005DFE03E000F05BFE00F060F8002020771C
:104E100020680169CA0615D5C368D90612D56FF096
:104E20001002082302612377C06910F4407F2046F6
:104E300002D000F043FE03E000F041FE00F046F82F
:104E40000020207720680169CA0708D5C368D90700
:104E500005D56FF0010202612046FFF71EFF2068B2
:104E600001690A0608D5C368190605D56FF08002E6
:104E70000261204600F024FE20680169CA0508D5B9
:104E8000C368190605D56FF480720261204600F0F0
:104E900018FE206801694A0608D5C368590605D579
:104EA0006FF040020261204600F00CFE20680169AC
:104EB0008A060AD5C368990607D56FF020020261F9
:104EC0002046BDE8104000F0FEBD10BD204600F0B9
:104ED000FBBDDFF8A8C0DFF8A83060452DE9F0433E
:104EE000D0F800E0DFF89C4018BFB0F1804FDFF849
:104EF0009850DFF89860DFF89870DFF89880DFF856
:104F0000989007D0484518BF404503D0984218BF35
:104F1000B8420ED160454A682EF0700E18BFB0F14D
:104F2000804F42EA0E0E0CD048451CBF40459842C7
:104F300007D0B84218BFB04203D0A84218BFA04261
:104F400004D1CB682EF4407243EA020E4A692EF077
:104F500080031A43604502608B68C3620A6818BF09
:104F6000B842826204D0B0421CBFA842A04201D124
:104F70000969016301224261BDE8F083000001403C
:104F8000000C004000480140004401400040014046
:104F90000004014000080040000400407047000089
:104FA0000901020002D4484881547047474A00F082
:104FB0000F00131803F8041C7047454B4FF6FF020F
:104FC0001968000200F4E0601140084341490843B9
:104FD0001860704738B53E4B1C68C4F30223C3F118
:104FE0000704052C28BF04241D1D072D34BF0023F2
:104FF000DB1E012505FA04F4641E2140994005FAE0
:1050000003F35B1E1A401143BDE83440C8E70100BA
:1050100008D4012200F01F0002FA00F02E4B4909CB
:1050200043F821007047401EB0F1807F10B501D3D6
:10503000012010BD294C0F2160604FF0FF30FFF7B9
:10504000AFFF00220721A2600020216010BDBFF346
:105050005F8F23480022016821F4803101600267DC
:1050600070471F4940F001000867086840F480302D
:105070000860BFF34F8FBFF36F8F704710B5437851
:10508000184A13600178D9B144685460C37A017B2F
:10509000447B1B0643EA0173817A43EAC143817B67
:1050A00043EA8443C47B43EA4143417A43EA0443ED
:1050B000047A007843EA012343EA4403034301E00E
:1050C00051600023936010BD00E400E018ED00E0A3
:1050D0000CED00E00000FA0500E100E010E000E067
:1050E00024ED00E098ED00E02DE9F8470026DFF818
:1050F000E0210F230446884637E0764DAC4214BFCA
:105100000A2509258D4045EA0E054CF82750DFF8A1
:10511000C8C1DCF80070C143D8F804500F40ED035B
:1051200048BF0743CCF80070DCF80470D8F804508E
:105130000F40AD0348BF0743CCF804704FF0B04CAC
:10514000DCF80070D8F804500F40ED0248BF074368
:10515000CCF80070DCF804700F40D8F80410890215
:1051600048BF0743CCF80470761CD8F8000030FA2A
:1051700006F100F09F800127B7403840F4D0D8F8FE
:105180000450B100022D18BF122D12D1F50804EB06
:10519000850C01F01C0503FA05F9DCF820E0D8F8CD
:1051A00010A02EEA090E0AFA05F545EA0E05CCF81C
:1051B0002050256898F804904FEA460C4FF0030EF3
:1051C0000EFA0CFE6FEA0E0E0EEA050509F0030951
:1051D00009FA0CF949EA05052560D8F80450012DB3
:1051E00018BF022D03D0112D18BF122D13D1A568A1
:1051F000D8F80C900EEA050509FA0CF949EA0505FC
:10520000A560656825EA0707D8F80450C5F30015BE
:10521000B5402F436760E7680EEA0705D8F80870C5
:1052200007FA0CF73D43E560D8F80450ED009BD534
:105230001768DFF8A8C001F00C0103FA01FE47F07F
:1052400002071760156805F002050095009FB70872
:105250005CF8275025EA0E0E214DAC4208BF002510
:1052600027D0204DAC4208BF012522D01E4DAC42B4
:1052700008BF02251DD01D4DAC4208BF032518D024
:105280001B4DAC4208BF042513D01A4DAC4208BFD9
:1052900005250ED0184DAC4208BF062509D0174D84
:1052A000AC4208BF072504D0154DAC427FF425AFB2
:1052B000082527E7BDE8F18702B909048161704735
:1052C00042690A408A4208BF0904816170470000B0
:1052D000F444025800240258800000580804005882
:1052E000000002580004025800080258000C02583E
:1052F000001002580014025800180258001C0258EE
:10530000002002584AB1000011F8013B521E00F87B
:10531000013B1CBF11F8013BF8E77047F0B5244C86
:10532000244A2078244B6FF0004150BB0820656868
:1053300003FB05250E46B5FBF6F601FB1655401E90
:105340006560F4D11D4D2E461020676803FB0727CA
:105350008C46B7FBFCFC01FB1C77676046F8047BBE
:105360008E4603FB0727B7FBFEFE01FB1E77676037
:10537000401E46F8047BE8D1E86FC5F8800001259F
:105380002570606803FB00220B46B2FBF3F301FBC0
:1053900013210A4A616092F8803003F01F0352F82B
:1053A0002300C2F8800042F8231020F04040F0BDF6
:1053B000280700245FF36E3C0D661900C41000241A
:1053C00003000020521E22BF13F8010B11F801CB7D
:1053D000B0EB0C00F6D0521C08BF1046704700001E
:1053E00038B586B00C2001F005FA604C206428B96D
:1053F000012202215E48FFF75FFFFEE700215D4DBD
:10540000016044F62062818081718160E1642165E0
:105410006165A165A164E165216657490B68A968CA
:1054200041F00401A960B3FBF2F0AA68401E534B9F
:1054300002F00402009200996060002042F20F72B4
:105440002061A060606120462360E260FFF746FCB7
:10545000002203211E20FFF7BDFD1E20FFF7D7FD10
:105460002046FFF748FC29680123454841F0020126
:1054700029602A6802F0020200920099019300213B
:105480000293049101A9FFF72FFE07B030BD10B5BC
:10549000364C216C886818B36164206472B6086861
:1054A00001F084FD606C01F081FD62B6206C8179B1
:1054B000012904D18188006800F03EFA05E0022944
:1054C00003D181880068FDF773FE216E606D491E6F
:1054D0002166216C401C6065A06D8A888218A265D7
:1054E00010BD2DE9F04206460F46914672B60C20DB
:1054F0001E4D01F07FF9040028D0384601F07AF9FA
:10550000206040B33A463146FFF7FCFEA7800020FA
:1055100084F806901B49A0602A6C0A601A4A0B683E
:105520001360986808600028F9D19C6062B6E86C46
:10553000EA6D296D401CE864286E7E182E65401CBB
:105540008242286638BFE865BDE8F082A86C401C3E
:10555000A86462B6F8E7A96C2046491CA96401F06A
:1055600025FDF6E701210648FFF7AABEB011002489
:1055700000100258E04402588C000024000800404B
:1055800000040258DC120024E012002470470000DE
:1055900038B504460D4D2878A8B10D4A4FF47A71FC
:1055A0001368B1FBF0F0B3FBF0F0FFF73CFD50B92E
:1055B000102C08D2002221464FF0FF30FFF70AFDE1
:1055C000AC60002032BD012032BD00BF800000244D
:1055D0008C00002438B50320FFF7EFFCFEF702FF34
:1055E000164B174A1C681749C4F30324155D05F0D0
:1055F0001F05E840086008681968134B01F00F01A7
:10560000525C02F01F02D04018600020FFF7C0FF7C
:1056100008B1012032BD00F01DF8002032BD0B485A
:105620000068000C70470A490A6822F4600202E030
:105630000A6822F0020210430860704718440258BA
:10564000F08300088C000024900000240010005C0F
:105650000404005881B00E48016841F00201016065
:10566000006800F002000090009901B0704781B01E
:1056700000680849884209D10748026842F40022BC
:105680000260006800F400200090009901B07047AB
:10569000F4440258004C0258E0440258F0B5044665
:1056A00000201F252B465D1E2BB105F01F0321FA9C
:1056B00003F6F707F6D5130007D0082A10D0102AF2
:1056C0000BD0182A0ED1072D0CD223685961996886
:1056D00021F018010A439A60F0BD082DF5D301E0CE
:1056E000102DF2D30120F0BDBFF34F8FDFF8382328
:1056F00002E01060203020390129FADABFF34F8F21
:10570000BFF36F8F70472DE9F841A1B00024FFF778
:105710009EFC0121DFF814238DF80010072301926D
:105720000321012200F095F88DF80F20DFF80053D7
:105730008DF80E40DFF8FC628DF801408DF80A40CC
:105740008DF80940ADF80C40FFF798FC0121DFF817
:10575000E8228DF800100D2301920122032100F0B0
:1057600078F8ADF80E408DF80D208DF801208DF8F9
:105770000A208DF809408DF80C40FFF77FFC0420CB
:10578000FFF76FFCAD4801212860A84829724FF44B
:10579000C061286160306961A7496E60E86001619D
:1057A0004161284601F004FC08B1FFF795FAA44FC7
:1057B00000233A46002128464FF4804801F0EBFCD4
:1057C000002307F5BF620121284601F0E4FC3421E3
:1057D00006F1080000F048F921204FF44031B06094
:1057E00006F14C00F16106F16C01B4614FF4005711
:1057F00002F0DCFB06F14C0002F0F1FB06F14C007C
:1058000002F050FC032804D007D3052803D005D3A9
:1058100003E0002701E0002700E0444608A92846ED
:1058200001F021FF0E9708A90D94284601F0E9FF29
:1058300004A9284602F052F8012004A98DF81100AD
:10584000284602F019F8284601F0C3FC22B0BDE852
:10585000F0818DF808308DF80B106846704710B550
:1058600086B0784CA06802220B2340F00100A060B3
:10587000A16801F0010105910598A16841F00201BC
:10588000A160A06800F0020005900599A06840F0B2
:105890000400A060A16801F0040105910598A168C9
:1058A00041F04001A160A06800F04000059005991A
:1058B000039265480192002202928622049369466F
:1058C0000092FFF711FC4FF40052694600925F48C6
:1058D000FFF70AFC3220694600905D48FFF704FCA0
:1058E00042F60400694600905A48FFF7FDFB00228B
:1058F00000213D20FFF76EFB3D20FFF788FB20686D
:1059000040F400402060216801F4004105910598B1
:10591000226842F480322260216801F480310591CE
:105920000598226842F400322260216801F40031B7
:105930000091009806B010BDF8B504460D463E4FE4
:10594000A5F10C064FF4C0513846FFF7CDFE04F127
:105950000805B6B2324629463846364CFFF7D2FC27
:10596000002004F13C01E763266460643048E6608F
:105970002161A9792170EA7962702B7AA3706E7A1D
:105980001B04E670AF7A43EA06632771ED7A43EAB7
:1059900002236571D0F800C0446047EA0527194327
:1059A0000CF5407CCCF80070CCF8041004F1080130
:1059B00001F065FC10B1A06C401CA064F1BD80B585
:1059C0001B4801F029FF002002BD0020704713464C
:1059D0000A460146164880B501F0EBFD06E0134685
:1059E0000A460146124880B501F010FE08B14FF09A
:1059F000FF3002BDFEF7FCBF38B504464FF44061EE
:105A00000F48154DFFF770FE2946204601F0BFFCF8
:105A100069682868022289B2FFF763FD2046BDE865
:105A2000324001F003BD000070EF00E000000430E0
:105A3000481100240000002400400430008002408F
:105A400000020430D84402580000025800040258F2
:105A50000008025800180258D012002470477047FE
:105A60007047704770477047002202F06BBB000020
:105A700038B5DFF84440A1684A0706D4A36803F0AC
:105A80000703834201D0012032BDA168C90840EA62
:105A9000C100A060FEF7ACFF05462068810408D471
:105AA000FEF7A6FF401B40F2E9329042F5D30320F7
:105AB00032BD002032BD00000448025870477047D4
:105AC00070477047704770477047000000F5E070FE
:105AD0000268914203D343681A44914202D380681A
