:020000040800F2
:10000000801E02245D6A00085D6800085F680008C1
:100010006168000863680008656800080000000067
:1000200000000000000000000000000067680008F9
:1000300069680008000000006B6800086D6800082F
:10004000796A00087D6A0008816A0008856A0008EC
:10005000896A00088D6A0008916A0008956A00089C
:10006000996A00089D6A0008A16A00087168000882
:1000700077680008A56A0008A96A0008AD6A000848
:10008000B16A0008B56A0008B96A0008BD6A0008CC
:10009000C16A0008C56A0008C96A0008CD6A00087C
:1000A000D16A0008D56A0008D96A0008DD6A00082C
:1000B000B5680008BB680008C1680008E16A00086C
:1000C000E56A0008E96A0008ED6A0008F16A0008BC
:1000D000F56A0008F96A00087D680008FD6A0008F2
:1000E000016B0008056B000800000000096B0008A8
:1000F0000D6B0008116B0008156B0008196B0008E8
:100100001D6B0008216B0008C7680008256B0008FC
:10011000296B00082D6B0008316B0008356B000857
:10012000396B00083D6B0008416B0008456B000807
:10013000496B0008AF6800084D6B0008516B000860
:1001400000000000000000000000000000000000AF
:10015000556B0008596B00085D6B0008616B000867
:10016000656B0008696B00086D6B0008716B000817
:10017000756B0008796B00087D6B000800000000BB
:10018000816B0008856B0008896B00088D6B000887
:10019000916B0008956B0008996B00089D6B000837
:1001A000A16B0008A56B0008A96B0008AD6B0008E7
:1001B000B16B0008B56B0008B96B0008BD6B000897
:1001C000C16B0008C56B0008C96B0008CD6B000847
:1001D000D16B0008D56B0008D96B0008DD6B0008F7
:1001E000E16B0008E56B0008E96B0008ED6B0008A7
:1001F000F16B0008F56B0008F96B0008FD6B000857
:10020000016C0008056C0008096C00080D6C000802
:10021000116C0008156C0008196C00081D6C0008B2
:10022000216C0008256C0008296C00080000000003
:100230002D6C0008316C000800000000356C0008CF
:10024000396C00083D6C0008416C0008456C0008E2
:10025000496C00084D6C0008516C0008556C000892
:10026000596C00085D6C0008616C0008656C000842
:10027000696C00086D6C0008716C000800000000DB
:10028000756C000800000000796C00080000000098
:10029000000000007D6C000800F5E07002689142EB
:1002A00003D343681A44914202D380680028F5D1F1
:1002B0007047DFF86C17086890B94FF480504860B9
:1002C0004FF480324FF0FF30C86008610420DFF83F
:1002D00054378A604861C3F8BC01DFF84C070860F6
:1002E0000120704701F1080313F0070F0EBF002330
:1002F000C3F1080303F007031944D21A8161C260F5
:1003000042F001034B60091D4FF0280C41F802C078
:10031000DFF80C271369C36170472DE9FC4B0746D2
:1003200001F1080010F0070F0FBF8946C0F1080067
:1003300000F0070001EB000902F1080111F0070FBE
:1003400006D002F10800C0F1080000F007000244E6
:100350001546A5EB090009EB0306A0EB030B43F0E0
:100360000303C9F80430AE4228BF01F005FA28792A
:10037000C10758BF01F000FABBF1100F38BF01F000
:10038000FBF9B869854208D1F9688B44C7F80CB00D
:10039000BE614BF00100706051E1786985420AD17D
:1003A000B9688B44C7F808B07E614BF001007060FB
:1003B00046F80BB043E1686800F00301012940F002
:1003C000AC80C008C0000190C0081F2839D8AC68B4
:1003D000D5F80C800090454508BF01F0CDF9A54245
:1003E00008BF01F0C9F968680099C008C000B0EB07
:1003F000C10F18BF01F0C0F9009907F1280000EB08
:10040000C100844206D039698C42C0F08180E26824
:10041000AA427DD1A04506D10098396801238340C6
:100420009943396076E0804506D0396988456FD3B5
:10043000D8F80800A8426BD1C4F80C80C8F808406E
:1004400068E0EC68D5F81880AC420CD0A86839692F
:10045000884223D3C268AA4204BFA168A9421DD121
:10046000C460A0601CE005F114010C6834B905F10A
:1004700010010C68A4B101E011460C6804F11402EB
:100480001068002802BF04F1100210680028F3D1A0
:100490003869814202D300220A6001E001F06CF960
:1004A000B8F1000F36D0E96907F5987000EB8100CC
:1004B0000268954208D10460A4B9E869796801220C
:1004C00082409143796025E03869804508D3D8F8A7
:1004D0001010A94214BFC8F81440C8F8104001E039
:1004E00001F04AF9B4B139698C4211D3C4F81880CB
:1004F000286928B1884226BF2061846101F03CF957
:10050000686938B13969884202D36061846101E069
:1005100001F032F901996D188B4469684908490066
:1005200069604BF0010070604FEADB0446F80BB0E5
:100530001F2C23D807F1280000EBC4084546BBF167
:10054000100F38BF01F018F9386820FA04F1CA0713
:1005500005D4012101FA04F404433C6007E0D8F813
:100560000800396988422CBF054601F005F9C8F832
:100570000860EE60B560C6F80C8060E05FEA1B20A2
:1005800008BF002123D0B0F5803F28BF1F211ED215
:10059000A0F58072120C02F008029040A0F5805184
:1005A000090C01F004018840A0F580431B0CC2F146
:1005B0000E0203F00203521AD21A984002EBD03214
:1005C000D01D2BFA00F101F0010101EB4201F161B4
:1005D000002307F59872736102EB810033617A683A
:1005E00022FA01F3DC0707D4012303FA01F11143D6
:1005F00079600660B0611DE002681F291DBF4908CF
:10060000C1F119010BFA01F1594600E002465068A8
:10061000C008C000584516D002F11003C80F03EB04
:100620008003490018680028F0D13869834204D358
:100630001E60B261F660B66001E001F09DF809F15C
:100640000800BDE8F68B396990688A4228BF884265
:10065000F3D3C6609660B060F2600020B061EEE750
:100660002DE9FE4F04468B46A5692E4690469946D5
:100670003146FFF711FE0268416802EB010AAAF158
:10068000270111F007000EBF0021C1F1080101F0A0
:1006900007010AEB0100A0F12F0706F110018F42BC
:1006A00038BF374607F11802002101920091A8F1E6
:1006B000280259462046FFF715FE07F1080010F002
:1006C000070F18BF01F058F81B20786007F10801E8
:1006D00004F5E07090E80C5081E80C50C0F800B0D0
:1006E000C0F80480C0F80C9081600722019800993E
:1006F00000E0001D491C00F1080353454260F8D397
:100700000129D8BF01F038F8B74200F09580BF1B2F
:10071000301D321DC15949084900D15147F001002F
:1007200070604FEAD70BF751BBF11F0F21D804EBD4
:10073000CB0000F12805A846102F38BF01F01CF8A7
:10074000206820FA0BF1CA0705D4012101FA0BF148
:100750000843206006E0A868216988422CBF8046D3
:1007600001F00AF8AE60C8F80C60C6F80880F560C1
:100770006FE0380A08BF002123D0B0F5803F28BFC2
:100780001F211ED2A0F58072120C02F008029040C8
:10079000A0F58051090C01F004018840A0F58043C8
:1007A0001B0CC2F10E0203F00203521AD21A984037
:1007B00002EBD032D01D27FA00F101F0010101EB6C
:1007C000420104EB8102002302F59870F16173612C
:1007D0003361626822FA01F3DB0707D4012303FACD
:1007E00001F1114361600660B0611DE002681F29DC
:1007F0001DBF4908C1F1190107FA01F1394600E0AE
:1008000002465068C008C000B84216D002F110037A
:10081000C80F03EB8003490018680028F0D1206955
:10082000834204D31E60B261F660B56011E003B08C
:10083000BDE8F04F00F0A0BF0BE0216990688A424C
:1008400028BF8842F3D3C6609560B060F260002094
:10085000B06103B0BDE8F08F2DE9F041704F05465F
:100860003868884608B9FFF724FDB96801EB08002D
:100870002F30491E20EA010188457DD205F5D87642
:10088000B06828B1326889188A4275D2884273D319
:1008900000F092FF01001CBF0C6811F1010F6BD03A
:1008A0003068201805F5D87230605368984238BF18
:1008B00018467060A86960BB286908B1814200D2FF
:1008C0002961316174610020F0614FF0FF303A68B6
:1008D0006A62286205F128020020D260926002F16B
:1008E000080757611761801C10322028F5D34D4846
:1008F000854208BFA4F1280228D055F8040CC0088E
:1009000005EBC002A2F108000A19121A283A0146A2
:100910001CE005F5E070024600E092687AB31368C7
:1009200057681F44B942F8D1137B1F0727D4AB691E
:100930001768BB4223D3D2F804C06744BB421ED21F
:10094000A444C2F804C0E868A96922182846FFF741
:10095000C9FC1FE08068C0B103689342FAD1027BF2
:10096000130712D4026801604368E41844604346E8
:100970002846BDE8F041D0E40020BDE8F0812A69B6
:10098000914238BF29610A19E5E70023224628462B
:10099000FFF766FEE8688045EED2A0EB0800A96983
:1009A000E86001EB0802AA6140F00100506048F0E5
:1009B0000300486001F10800BDE8F08130B4184B35
:1009C0001A6882B94FF480525A604FF480344FF065
:1009D000FF32DA601A610422124D9C605A61C5F838
:1009E000BC21114A1A6011F1400F17D28269AAB1D5
:1009F000C368283199420BD200F5E0710C68A2421D
:100A000003D34D682C44A24202D389680029F5D152
:100A1000C16999423CBF4FF0FF32C26100F0A8BEED
:100A2000642A0024782500246859883C2DE9F84F71
:100A300000258946090AC9F1000B08BF002323D00D
:100A4000B1F5803F28BF1F231ED2A1F58072120C82
:100A500002F008029140A1F580531B0C03F004033F
:100A60009940A1F58044240CC2F10E0204F0020466
:100A7000D21A121BA14002EBD132D11D29FA01F387
:100A800003F0010303EB4203074607F5987858F893
:100A9000230030B31F2B0FBF4C465C08C4F1190470
:100AA00009FA04F4AC46594600E064004268D208F2
:100AB000D200A2EB09028A4203D21100054600F0DF
:100AC0006981426910304FEAD47B50F82B00002A2C
:100AD0001CBF824294460028E7D18B466046B0BBDB
:100AE000BDBB012202FA03F35B005842796803435D
:100AF0000B4000F04E81584203405B1E180B00F083
:100B00001000C340590901F00801CB409A0802F0D7
:100B10000402D3405C0804F002040818E3401018F3
:100B2000C3F3400620183044F3401B1858F8230044
:100B30000DE008464168C908C900A1EB0901594503
:100B40003CBF8B46054601690029F2D14069002867
:100B5000F0D1002D00F01D81B868A0EB090083459D
:100B600080F0178139698D42C0F011816868C00832
:100B7000C00009EB0B01884218BF00F0FDFD05EB3A
:100B80000906B54280F00381EC68D5F818A0AC42A4
:100B90000CD0A8683969884223D3C268AA4204BF2E
:100BA000A168A9421DD1C460A0601CE005F1140138
:100BB0000C6834B905F110010C68A4B101E01146CC
:100BC0000C6804F114021068002802BF04F110023E
:100BD00010680028F3D13869814202D300220A60EC
:100BE00001E000F0C9FDBAF1000F36D0E86908EB6A
:100BF000800001688D4209D10460200014D1E869A9
:100C00007968012282409143796026E03869824503
:100C100008D3DAF81010A94214BFCAF81440CAF871
:100C2000104001E000F0A8FDBCB13869844212D345
:100C3000C4F818A0286930B13969884226BF2061FC
:100C4000846100F099FD686938B13969884202D33E
:100C50006061846101E000F08FFDBBF1100F0CD2E8
:100C6000D94449F00300291D6860281D51F8092066
:100C700042F0010240F8092088E049F00300686072
:100C80004BF0010070604FEADB0046F80BB01F2804
:100C90001DD807EBC00101F12804396821FA00F2E0
:100CA000D307A34605D4012202FA00F008433860B6
:100CB00006E0A068396988422CBF834600F05CFDDD
:100CC000A660CBF80C60C6F808B0F4605EE05FEA9E
:100CD0001B2008BF002123D0B0F5803F28BF1F2173
:100CE0001ED2A0F58072120C02F008029040A0F50E
:100CF0008051090C01F004018840A0F580431B0CD1
:100D0000C2F10E0203F00203521AD21A984002EB0B
:100D1000D032D01D2BFA00F101F0010101EB4201AC
:100D2000F16100227261326108EB81007A6822FA77
:100D300001F4E30707D4012404FA01F111437960B7
:100D40000660B0611DE002681F291DBF4908C1F19E
:100D500019010BFA01F1594600E002465068C0083B
:100D6000C000584518D002F11003C80F03EB8003F0
:100D7000490018680028F0D13869834204D31E6006
:100D8000B261F660B66001E000F0F6FC14E100F03C
:100D9000F3FC0EE18B46A2E6396990688A4228BFCF
:100DA0008842F1D3C6609660B060F2600020B06106
:100DB000ECE72DE9F84F0646884671684842014045
:100DC000491E080B00F01000C1404A0902F0080259
:100DD000D1408B0803F00403D9404D0805F002050B
:100DE0001018E9401818C1F34004281806F5987A3D
:100DF0002044E14009185AF821104868C008C00092
:100E00000D46A0EB080909E001464868C008C0008B
:100E1000A0EB080048453CBF81460D460869002804
:100E2000F2D149690029F0D130698542C0F0BF8014
:100E30006968C90808EB090BC900594518BF00F0DB
:100E40009BFC05EB08008542009080F0B080EF68C5
:100E5000AC69AF420CD0A8683169884223D3C2681C
:100E6000AA4204BFB968A9421DD1C760B8601CE09E
:100E700005F114010F6837B905F110010F68A7B12A
:100E800001E011460F6807F114021068002802BF44
:100E900007F1100210680028F3D13069814202D3B3
:100EA00000220A6001E000F067FC002C31D0E86904
:100EB0000AEB800001688D4208D107608FB9E869AC
:100EC0007168012282409143716022E0306984425E
:100ED00005D32169A94214BF6761276101E000F0D1
:100EE0004BFCB7B13069874211D3BC61286930B17E
:100EF0003169884226BF3861876100F03DFC68692E
:100F000038B13169884202D37861876101E000F02D
:100F100033FCB9F1100F0BD24BF00300291D6860B0
:100F2000281D51F80B2042F0010240F80B203DE053
:100F300048F003012A1D696049F0010042F80800E9
:100F4000009941F80990D6F808804FEAD80BBBF118
:100F5000200F28BF00F010FCB8F1000F22D006EBE4
:100F6000CB00776900F12804A246B8F1100F38BF12
:100F700000F002FC306820FA0BF1CA0705D4012109
:100F800001FA0BF10843306006E0A068316988423D
:100F90002CBF824600F0F0FBA760CAF80C70C7F8BF
:100FA00008A0FC60C6F808900098706104E000F0AA
:100FB000E3FB0020BDE8F28F05F10800BDE8F28FE9
:100FC0002DE9FE4F0546AFF30080F52DDFF89C6755
:100FD00080F004810B2D31BF10250B35ED08ED009D
:100FE0003068EC08E04010F0030F46D0C04300F03A
:100FF0000100041906F1280000EBC408E700D8F846
:1010000008506868C008C000B84218BF00F0B4FBC0
:10101000D5F80890454508BF00F0AEFB4D4508BF28
:1010200000F0AAFB6868C008C000B84218BF00F012
:10103000A3FBC84507D13068012101FA04F420EA76
:10104000040434600DE03069814508D3D9F80C10F0
:10105000A94204D1C8F80890C9F80C8001E000F05A
:101060008BFB47F00300291D6860281DCA5942F018
:101070000102C25105F10804F8E0B168A94280F00C
:10108000BE80002800F0A1804FF0010808FA04F1AA
:10109000490000FA04F4484201430C406042044015
:1010A000641E200B00F01000C440610901F008012B
:1010B000CC40A20802F00402D440630803F002030B
:1010C0000818DC401018C4F3400718183818FC4002
:1010D000241806F1280000EBC40AE700DAF80890AB
:1010E000D9F80400C008C000B84218BF00F044FBA3
:1010F000D9F808B0D14508BF00F03EFBD94508BF7C
:1011000000F03AFBD9F80400C008C000B84218BF8C
:1011100000F032FBDA4506D1306808FA04F420EA20
:10112000040434600DE031698B4508D3DBF80C0012
:10113000484504D1CAF808B0CBF80CA001E000F093
:101140001BFB7F1B45F0030009F10402C9F80400F2
:1011500047F00101515109EB05020192D751B468E2
:101160004FEAD40ABAF1200F28BF00F005FB34B3D0
:10117000CDF800A006F12800756900EBCA0AD34635
:10118000102C38BF00F0F8FA3168009821FA00F20C
:10119000D30704D408FA00F00843306007E0DAF817
:1011A0000800316988422CBF834600F0E5FACAF88E
:1011B0000850CBF80C50C5F808B0C5F80CA0B760C3
:1011C00009F108040198706150E07068C0B32946C5
:1011D0003046FFF7EEFD040011D047E015F1400F57
:1011E00028BF4FF0FF350AD20B35ED087068ED00CF
:1011F00028B129463046FFF719FC040036D1B06803
:10120000A8421DD3411B726910290AD3501970617D
:10121000B16041F001034360415045F00305556062
:101220000BE00021B1607161131D40F003015160BA
:10123000111D1C5844F001040C5002F1080415E083
:10124000F06885420DD2401BB169F0604A19B26165
:1012500040F00100506045F003054D6001F10804C5
:1012600004E029463046FFF7F7FA0446AFF3008062
:101270002046FFF7EEBA002800D170472DE9F0476D
:10128000A0F10805AFF30080DFF8E06431698D421A
:10129000C0F05982686800F00302012A00F053820E
:1012A000C2084FEAC209C20705EB090839D42C6805
:1012B00010F0030F00F04982604205448D42A144C2
:1012C000C0F041827069854200F0C680E408202C9D
:1012D0005ED2D5F80CA0AF68554508BF00F04CFAB7
:1012E000BD4208BF00F048FA6868C008C000B0EB13
:1012F000C40F18BF00F040FA06F1280000EBC4004C
:10130000874205D031698F423FD3FA68AA423CD167
:10131000BA452CD13068012101FA04F420EA040412
:101320003460454580F00F82D8F80440E00740F172
:101330000A82A10700F16881B069804540F09F8072
:10134000F168B5618944C6F80C9049F00100686005
:1013500071698D4202D100207061B060F06948452A
:1013600080F0F38100213046FFF728FBEDE1824554
:1013700006D03069824508D3DAF80810A94204D1B2
:10138000C7F80CA0CAF80870CBE700F0F5F9C8E779
:10139000EC68AF69AC420BD0A868884222D3C16820
:1013A000A94204BFA268AA421CD1C460A0601BE08D
:1013B00005F11402146834B905F1100214689CB1E7
:1013C00001E01A46146804F114031868002802BFEB
:1013D00004F1100318680028F3D18A4202D30021D7
:1013E000116001E000F0C8F9002F9AD0E96906F514
:1013F000987000EB81000268954209D104602000DA
:1014000011D1E8697168012282409143716088E7D7
:101410003069874205D33969A94214BF7C613C61B8
:1014200001E000F0A9F9002C3FF47BAF31698C4258
:10143000ABD3A761286928B1884226BF20618461A7
:1014400000F09AF9686900283FF46BAF316988426F
:101450009BD36061846164E798F8040000F00300A6
:1014600003287FF45EAFC6F8089049F00101D8F870
:10147000040040084000C8F8040069600AE0706990
:1014800080450AD1B16875618944C6F8089049F071
:101490000100686045F8099057E1E408E400A144C0
:1014A000E408202C3AD2D8F80CA0D8F80870D0451F
:1014B00008BF00F061F9B84508BF00F05DF9D8F841
:1014C0000400C008C000B0EBC40F18BF00F054F90E
:1014D00006F1280000EBC400874207D031698F4233
:1014E000C0F08580FA68424540F08180BA4507D156
:1014F0003068012101FA04F420EA0404346078E041
:10150000824506D03069824571D3DAF8081041452A
:101510006DD1C7F80CA0CAF808706AE0D8F80C4082
:10152000D8F8187044450DD0D8F8080031698842C1
:1015300023D3C268424504BFA16841451DD1C460A0
:10154000A0601CE008F114010C6834B908F1100126
:101550000C68A4B101E011460C6804F11402106893
:10156000002802BF04F1100210680028F3D130698E
:10157000814202D300220A6001E000F0FDF8002F52
:1015800037D0D8F81C1006F5987000EB810002687F
:1015900090450AD10460200012D1D8F81C0071686F
:1015A000012282409143716023E03069874205D374
:1015B0003969414514BF7C613C6101E000F0DCF811
:1015C000BCB131698C4212D3A761D8F8100028B1A0
:1015D000884226BF2061846100F0CEF8D8F814005C
:1015E00038B13169884202D36061846101E000F062
:1015F000C3F849F00100686045F8099071698D42AF
:101600000BD1C6F80890A0E064086400C8F8044054
:1016100049F00100686045F809904FEAD907202F8A
:1016200022D206F1280000EBC704A046B9F1100F42
:1016300038BF00F0A1F8306820FA07F1CA0705D4D6
:10164000012101FA07F70743376006E0A068316916
:1016500088422CBF804600F08FF8A560C8F80C5077
:10166000C5F80880EC6070E05FEA192008BF00212F
:1016700023D0B0F5803F28BF1F211ED2A0F5807275
:10168000120C02F008029040A0F58051090C01F004
:1016900004018840A0F580431B0CC2F10E0203F048
:1016A0000203521AD21A984002EBD032D01D29FA06
:1016B00000F101F0010101EB420106F598720023EF
:1016C00002EB8100E9616B612B61726822FA01F320
:1016D000DC0707D4012303FA01F1114371600560AF
:1016E000A8611DE002681F291DBF4908C1F1190149
:1016F00009FA01F1494600E002465068C008C000FE
:10170000484526D002F11003C80F03EB80034900BF
:1017100018680028F0D13069834204D31D60AA61A3
:10172000ED60AD6001E000F027F8306A401E3062E5
:101730000BD1D6F8C80100E080680028FCD14FF03A
:10174000FF30306201E000F017F8AFF30080BDE831
:10175000F087316990688A4228BF8842E3D3C56028
:101760009560A860EA600020A861DEE77825002483
:1017700030BC002070470000012000F033B830B4C6
:10178000002513E050F8042BD30744BFA9F101034F
:101790009A18091F042942F8045BFAD213468C07F1
:1017A00044BF15809B1CC90748BF1D7050F8041B1F
:1017B0000029E7D130BC70470749086808B100200C
:1017C00070470648C008C00008600549C908C9003C
:1017D000091A0160704700BF7C2A0024871E02247A
:1017E00080FA072480B5AFF30080024A1100182068
:1017F000ABBEFBE726000200F8B5040033D004F1CD
:101800005105287810B9204601F08DF82321DFF822
:1018100018092970026842F002020260006800F0B4
:10182000020000900099207A08B14FF4000001F006
:1018300093F920684FF48056815941F0010181519C
:1018400001F098F9074620688259D10740F1948049
:1018500001F090F9C01B40F2F5129042F3D304203E
:10186000E021606529700120F2BDDFF83029DFF842
:10187000303912189A4238BF46F4407621BFDFF85B
:1018800024793F18DFF8202997420AD3DFF81C1982
:10189000DFF81C390818984234BF46F4807646F4C5
:1018A00080662068C0F8006201F0A5FADFF804192C
:1018B000B0FBF1F12068491EC0F8DC10204600F0B2
:1018C0006DFD20684FF48851425822F4E01242F432
:1018D00000224250606910F0030F04D00120E02183
:1018E00060652970F2BD216841F208128B586FF3D0
:1018F0004E0343EA400300208B5000211823E26886
:1019000043431A4404EB8003401C042811605160D7
:101910009160D1609A61F1D3A1622268032141F202
:101920002C13D1502668E06841F2141170502368DE
:10193000E26803F589500260204600F09BFD606874
:1019400022684179007940EA0120C2F8000360680A
:1019500023688278C178120442EA016241780078F3
:1019600042EA0122102102430020C3F8042300228E
:10197000626529706970F2BDD0F8006201F03BFA2F
:1019800000F09CFB914226F47066BFF46EAF46F403
:10199000007686E710B500EB8104E46A0AB10429F9
:1019A00003D301214165012010BD2260E06822615E
:1019B00040F08070E0602BB1E068A360636140F0AC
:1019C0000070E060E06840F00040E060002010BD82
:1019D00030B5014601F15102CC6A1078002310287D
:1019E00047D1232504201570E5685B1C042B45F0C6
:1019F0008045E56001F12C0428BF1B1F401E54F8F0
:101A00002340F1D10120C8640868036843F0020351
:101A100003600868046844F0010404600868D0F8B2
:101A2000003D43F00103C0F8003D086841F2041393
:101A3000C45844F00104C450086841F20813C55862
:101A400045F00105C55008684FF48B53C45844F461
:101A50008174C4501020107022235370086841F222
:101A60003411425842F4504242F0410242500020A8
:101A700030BD012030BD10B5044649B194F8513055
:101A8000102B05D1012200F01EFD18B10223636561
:101A9000012010BDA06A401C0428A06224BF001FC2
:101AA000A062A06A236804EB800100208A6903F524
:101AB0008954226010BDF0B5024602F12C00D46BAF
:101AC000516C0025002350F82460002069B1F0BD5E
:101AD000F768BE0044BF234601200C46042C02F1E7
:101AE0002C0128BF241F51F82460F168002921D45B
:101AF000042D1FD20F466D1C401C611CFF00E7D552
:101B0000012808BF2346042902F12C0428BF091F1D
:101B100054F82140E568002D07D46C0005D5491C18
:101B200001250429956428BF091F50640120D16351
:101B30001364F0BD20B302F12C0151F82340216958
:101B400021604FF08071E160616929B16169A16034
:101B5000E16841F00071E160E16841F00041E1605D
:101B6000D16C19B1E16841F08041E1605B1C042B4C
:101B700002F12C0128BF1B1F401E51F82340DED16B
:101B800000205064F0BDF8B5064606F12C02376C13
:101B9000706C0C4652F8275020B93046FFF78BFF87
:101BA000002841D04FF0000E3B4600212A46204637
:101BB000746C641EA6452AD2516909B9116907E0FF
:101BC00090B31169016071694160806860B35169C7
:101BD000016071695B1C4160042BD16806F12C0225
:101BE00080680EF1010E28BF1B1FC1F30E0152F8D1
:101BF0002320DDE75369BBB1136903607369436058
:101C0000806888B1536903607269891A09E058B124
:101C1000D368C3F30E03591A73698B42EAD313696D
:101C2000036041600020F2BD0120F2BD70B50446A2
:101C30000D46606C266C28B92046FFF73CFF08B9BA
:101C4000012070BD606C401E8619042E28BF361F0F
:101C500004EB8600C16AC868C0F30E00FFE7286085
:101C6000002070BD30B5014601F12C000B6C4A6CB0
:101C700050F823400AB9012030BD886C00B1521CD5
:101C8000002523E0206920604FF08070E0606069EB
:101C900028B16069A060E06840F00070E060E06832
:101CA00040F00040E060C86C18B1E06840F080404F
:101CB000E060486C401E854207D25B1C042B01F19A
:101CC0002C0028BF1B1F50F823406D1C9542D9D310
:101CD000086841F228120023845000204B6430BD74
:101CE00070B5044641F2341520684FF48B562844F1
:101CF000C16A4A060ED5006841060BD52046FFF79B
:101D0000DAFE012804BF204600F0DEFE216848F21A
:101D10004000885122685019C36AD90709D5006864
:101D2000C20706D5204600F003FF216848F20100F3
:101D300088512268501904F15405C36A590429D501
:101D40000268530426D5296841F008012960C26A57
:101D5000D30410D5C26A41F202110A408A420CBF74
:101D6000012100216960016821F440410160E02007
:101D700084F851000BE0C16A01F4CD41B1F5CD4FBB
:101D80000CBF0121002169604FF4CD41C1622046A2
:101D900000F0CFFE206850F8B01F01F4C041B1F54B
:101DA000C04F09D18068E021A860204684F8511016
:101DB00000F0C0FE0020A860216801F1B0000268B8
:101DC000D30608D5006900F06000E860204600F006
:101DD000B2FE0021E960206850F8B02F910608D5C6
:101DE000006900F00F002861204600F0A5FE0021E8
:101DF0002961DFF870090268510207D54FF48003AA
:101E000003602046BDE8704000F097BE70BD70B51D
:101E100004461D462068D0F80032DE071DD4D0F8F5
:101E2000003223F0787343EA415323F4F81343EA72
:101E3000024343F00D03C0F8003200F09BFE06465B
:101E4000206800F500700168CA0708D500F092FE0E
:101E5000801B40F2E9318842F2D3012070BD406816
:101E600080B2FCE670B504462068D0F80052EE0758
:101E700021D4D0F80002DFF8F0589BB26B6020F05C
:101E8000787040EA415020F4F81040EA024020F017
:101E90000C0040F00500286000F06CFE054620684C
:101EA000D0F80012CA0708D500F064FE401B40F2CB
:101EB000E9318842F3D3012070BD002070BD30B5F8
:101EC00009B9012030BD006801F12802036803F060
:101ED0000C0353600468C4F300131370036803F029
:101EE00060034B6205682D0A05F0010585F00105C8
:101EF00081F8205003685B0A03F00103CB77046884
:101F0000A40A00F0A0F88C770368DB0A03F0010351
:101F10004B770468240B04F001040C77036803F486
:101F200000538B61046804F480444C6103681B0C0B
:101F300003F001038B740468640C00F084F84C74A3
:101F40000368DB0C03F0010383F001030B740468E6
:101F5000240D04F00104CC7303685B0D03F001034E
:101F60008B730468A40D04F001044C730368DB0D4B
:101F700003F001030B73046804F0E0648C600368F1
:101F8000DB0E03F001030B71046804F0E04441F838
:101F90004C4B4368C3F30D03D3604468240C00F03A
:101FA00052F8947243685B0C03F001035372446867
:101FB000A40C04F00104147243681B0E03F0010327
:101FC00013744368C3F344635361C468240A04F080
:101FD00001041476C36803F00F03D361036FC3F3E6
:101FE00040030B72046FE40900F02DF80C70036FCE
:101FF00003F070034B60046F240C1462D0F890203F
:1020000002F001028A72D0F8902000F55060C2F30D
:1020100040024A72036803F07203CB60026B02F065
:1020200023020A61026BC2F3C0028A75026BC2F31B
:1020300000124A75006B800900F0010080F0010079
:102040000875002030BD04F0010484F001047047DD
:1020500080B539B190F85220102A03D100F0ACF8C5
:10206000002002BD012002BD70B504462068D0F8F2
:10207000005200F0C0FE00F021F825F47065914296
:1020800038BF45F4007515D3444B45491B188B42A6
:1020900038BF45F4407521BF424A1218424B9A425C
:1020A00008D34249424E0818B04234BF45F4807507
:1020B00045F480652068C0F8005270BDDFF8AC16AA
:1020C000DFF8AC260918704770B509B9012070BD5A
:1020D00003684A7A9C680878CE78551EAD41DFF8CF
:1020E0009426ED0F1440044344EA46040A79087A22
:1020F00044EA82044A7944EAC004C87944EA0214F2
:102100008A7944EA451444EA0024887844EA42245F
:102110004A7844EA8024C86844EAC2740443002030
:102120009C6070BD00000000F444025809B9012011
:1021300070470068826802F001020A708368C3F386
:102140004002CA708268C2F380020A718268C2F3D8
:10215000C0020A728268C2F300124A7183685B0986
:1021600003F0010383F001034B72826802F0C002A6
:10217000CA6083681B0A03F00103CB718268520AAC
:1021800002F001028A7183689B0A03F001038B70DD
:102190008068C00F487000207047000040F1E9FDE2
:1021A00040787D0100796CFC005A6202001F0AFA37
:1021B00080F0FA0240420F002DE9F04105680A7CE8
:1021C0004B7C01F12804571EBF41FF0F8A7FB3F1FA
:1021D000010E6EEB0E0E4FEADE7E91F820302E6877
:1021E0000868B2F1010C6CEB0C0C8A684FEADC7CDD
:1021F000B3F1010868EB0808DFF87C354FEAD878BE
:102200001E4016430643087946EAC0660A7B487BAF
:102210008B7C46EAC2568A7B46EA8056C87B46EAF1
:1022200042564A6946EA0056886946EAC74646EA7F
:102230004E4646EA03460B7F1643064346EA0336FC
:102240004A7FC87F237846EAC2264A6A46EA8C2635
:1022500046EA4026606846EA0826164346EA031620
:102260000643DFF818052E60A27A6B686669277C42
:10227000521E92410340207A43EA4663667AD20FA7
:1022800043EA076343EA8043E06843EA464343EA9C
:102290000243DFF8EC2403436B60EB68267EE069C1
:1022A000134001F14C0243EA06230343EB6011782B
:1022B0002E6F177A50684B1E9B414FF60D710E40E2
:1022C00046EA4706DB0F216A064346EAC31646EA9A
:1022D00001462E67D5F89000937A517A43EA41037C
:1022E00005F55061800843EA8000C5F890000C684D
:1022F000D06824F0720404430C60137D0C6B1069E9
:102300005B1E9B41DB0F24F07B04044344EA8314EF
:10231000537D907D44EA031444EAC0040C63BDE895
:10232000F081F0B50468DFF85C34DFF85C2404F574
:10233000805504F588542E6808681E4006432E60B8
:102340006F680B79886817400A7B47EA03370743B1
:10235000DFF8380447EAC2376F6025684A7B0B6AAA
:10236000054045EA0245DFF828241D4325606568DD
:1023700008690B7D15404A7F0543DFF8180445EADC
:10238000031545EA02356560A3680A7F8969034041
:1023900043EAC2730B43A360F0BD000070B5A2B066
:1023A0000022012112928DF8331000258DF8412072
:1023B00001238DF8432001228DF8281013A98A7279
:1023C0001CAA8DF84C5004460D744FF4C3604D6147
:1023D0004FF48046557595758DF830500B958DF8F6
:1023E00036508DF8405055604D600D7620258DF8A3
:1023F000323013754FF4005315614FF040550F9371
:102400000123C8600020099502258DF83530086247
:1024100090728DF842308DF844300023108108729C
:102420000120D56001254B728DF834002046CB6128
:1024300009A90E968DF831308DF87050FFF7BCFE6B
:102440004FF4067100234FF4001208918DF80450E8
:1024500069460295204600938DF81C30ADF80C308B
:1024600006928DF8143004928DF81D30FFF759FF55
:1024700022B070BD30B500210022182403694C43FE
:10248000234400EB8104491C03291A605A609A60B6
:10249000DA601A615A61E362EFD9C263032302640E
:1024A00041F230114264C26482640468635005687A
:1024B000026941F21C13EA500169006841F22812D6
:1024C0004831815030BD2DE9F04790460C46836A73
:1024D00000F118014FF0010951F82350A1689A4604
:1024E000EA68002A59D42678760729D5160C626A3C
:1024F00042EA0642EA60EA6842F48032EA60026830
:10250000166E46F4801616662278120718D5AA6849
:10251000E66AC2EA0642AA60EA6842F40032EA6069
:10252000EA6822F44026226B3243EA600268566E63
:1025300046F4801656660268166D46F0806616658B
:102540002278D20609D5AA68960BA26942EA863299
:10255000AA60EA6842F08062EA60227812F0140F02
:102560001CD0EA685B1C042B4FF0020942F0804249
:10257000EA60EA6828BF1B1F42F00042EA6000F1EF
:10258000180252F82350EA68002A07D5183050F88C
:102590002A00C16821F00041C160C9E00A68DFF883
:1025A000F8C12A60AA684FF0000E960B4A6842EA0A
:1025B0008632AA608A684AB111460A686A60AA68C7
:1025C0004E680CEA020242EA064204E0C5F804E062
:1025D000AA680CEA0202AA602278D60611D5EA6837
:1025E000266A22F4F00242EAC642EA60EE68E26934
:1025F000B60C42EA8646EE60EA6842F48022EA605F
:1026000017E0EE686268F60B42EAC636EE6026789E
:10261000F70705D5EE68626926F440361643EE608A
:102620002678B70605D5EE68226926F0406616437F
:10263000EE602678770705D5AE68A26A26F4404694
:102640001643AE60EA6842F00052EA60EA6822F09F
:102650008042EA6042F00042EA602278960705D59F
:10266000EE68E26826F060761643EE6002460846A1
:1026700039E06668C90B46EAC131E9602178CF07C5
:1026800029D5E968666921F44031314322E00168C7
:1026900009F101092960A9684668890B46EA813178
:1026A000A9608168002945D0084601686960A96869
:1026B00046680CEA010141EA0641A9602178CF068B
:1026C000E968D6D5E669890C46EA8141E960E9689E
:1026D00041F48021E960E96841F00041E960E9687E
:1026E00021F08041E960806898B35B1C042B02F103
:1026F000180128BF1B1F51F82350E9680029C6D5CF
:1027000002F11800002150F82A000FE0C3680AF116
:10271000010ABAF1040F23F00043C36002F118006C
:1027200028BFAAF1040A50F82A00491C4945EDD3F4
:1027300002200CE0C5F804E0A9680CEA0101BCE73E
:10274000A860E86840F08050E86000209362BDE82F
:10275000F0875FEA0800A86814BF40F0004020F04E
:102760000040EDE7A80000580082024000D3CEFEF2
:10277000C0E1E40000F8FF7F838004000080F8C01F
:10278000F0FEFFFFFD87FFFFFE2FFFFF00C0FEFFF3
:10279000EFEFC0FFFFFFC07FFFFF00C0BFF34F8F11
:1027A000DFF85C2302E01060203020390129FADADA
:1027B000BFF34F8FBFF36F8F70472DE9F841A1B082
:1027C000002400F0CCFD0121DFF838238DF8001043
:1027D00007230192032101228DF808308DF80B1098
:1027E00068468DF80F20DFF820538DF80E40DFF893
:1027F0001C638DF801408DF80A408DF80940ADF852
:102800000C4000F0C3FD0121DFF804238DF8001017
:1028100003218DF80B100D23012101928DF8083052
:1028200068468DF80F408DF80E108DF80D408DF82C
:1028300001108DF80A408DF809408DF80C4000F029
:10284000A5FD042000F095FDB24801212860AD48A7
:102850002861603029724FF4C061E86002466E6002
:1028600006F13C0069611061E96828464C61FEF799
:10287000C3FF08B100F086FE0027DFF89C824FF40A
:10288000BF6000237843394608EB00022846FFF773
:1028900081F87F1C042FF2D3342106F1080000F0E8
:1028A00073FE21204FF44031B06041F61C00F1610D
:1028B000371841F63C03B461F118384600F067FE62
:1028C000384600F07DFE384600F0DDFE012827DDA9
:1028D00003284FF480414FF4005604D007D3052855
:1028E00003D005D303E0002601E0002600E00C46FB
:1028F00008A92846FFF7E3FA0E9608A90D94284682
:10290000FFF7A6FB04A92846FFF710FC012004A945
:102910008DF811002846FFF7D7FB2846FFF758F837
:1029200022B0BDE8F08110B586B07C4CA0680222D0
:102930000B2340F00100A060A16801F001010591A6
:102940000598A16841F00201A160A06800F00200B2
:1029500005900599A06840F00400A060A16801F00E
:10296000040105910598A16841F04001A160A068AB
:1029700000F04000059005990392694801920022F9
:102980000292862204936946009200F0CBFE4FF437
:10299000005269460092634800F0C4FE3220694646
:1029A0000090614800F0BEFE42F6040069460090C7
:1029B0005E4800F0B7FE002201213D2000F092FCAD
:1029C0003D2000F0ACFC206840F40040206021680D
:1029D00001F4004105910598226842F4803222609A
:1029E000216801F4803105910598226842F4003293
:1029F0002260216801F400310091009806B010BDFA
:102A0000FEB5414C94F85130102BFBD1A1F10C07CD
:102A100000F10806BFB23D4D3A46314605F13C0093
:102A200000F084FF05F13C03002000930197029021
:102A3000EF60C5F810D0B0792870F1796970327AFA
:102A4000AA70707AE870B07A2871F17A40EA0120B1
:102A5000697121686560C1F8000360682368817846
:102A6000C278090441EA02614278007841EA022111
:102A7000014305F13C00C3F804134FF4C051FFF7C4
:102A80008DFE05F108012046FEF7F5FFF7BD80B584
:102A90001D48FFF7E9FA002002BD002070471346E9
:102AA0000A460146184880B5FFF7B1F906E013461B
:102AB0000A460146144880B5FFF7D4F908B14FF033
:102AC000FF3002BD00F056B81FB504460022009248
:102AD0004FF4C0511048FFF761FE69462046FFF7EA
:102AE000A5F801A92046FFF74EF8009901980222A7
:102AF00089B200F09BFF2046FFF7B4F81FBD00002D
:102B000070EF00E00000043044290024000000249D
:102B1000004004300080024000020430D8440258D3
:102B20000000025800040258000802580018025819
:102B300070477047704770477047704780B50320F3
:102B400000F0C3FB002000F0B3FF08B1012002BD7C
:102B500000F0CEFF002002BD05490A6822F46002A1
:102B600002E00A6822F00202104308607047000089
:102B70000404005801484068704700BF5018002402
:102B80002DE9F8430546DFF8BC723868894600F045
:102B90000700484502D200F0A7F824D12878DFF8D2
:102BA000A042810705D5A269E868120940EA02122D
:102BB000A2612978CA0740F18380A369A86823F439
:102BC00070630343A3616868022802D121688A0305
:102BD00008E0032802D121688A0103E0012803D11B
:102BE0002168CA0503D473E02368590770D52269A8
:102BF00041F28938D20840EAC2002061FFF7BAFFEB
:102C00000646686802280BD1206900F038001028B9
:102C100056D0FFF7AFFF801B4045F5D303204DE0B2
:102C200003280AD1206900F03800182848D0FFF79F
:102C3000A1FF801B4045F5D3F0E701284AD1206968
:102C400000F0380008283BD0FFF794FF801B404578
:102C5000F5D3E3E72878410705D5A269286922F072
:102C600070020243A26129780A0705D5E369686901
:102C700023F070030343E3612978CA0605D5E369AD
:102C8000A86923F4E0630343E36129788A0605D544
:102C9000236AE86923F070030343236200F02EF8EF
:102CA000A169DFF8A421DFF8A431C1F30321515C4D
:102CB000C8401860002000F0FBFE0020BDE8F28351
:102CC000386800F007008145C4D200F00DF8C1D08B
:102CD0000120F3E7206910F0380FF1D0FFF74AFF29
:102CE000801B4045F6D399E73968C90849EAC10114
:102CF00039603A6802F007024A45704730B5504AD9
:102D00005348116911F0380104D010290AD018294C
:102D10000AD06EE013689C066CD51168C1F3C1013E
:102D2000C84030BD4B4830BD946A916AD56AC1F342
:102D30000513516B05F00105C1F3CC014D4314F0AF
:102D4000030400EE105AB8EE400A02D0022C27D03D
:102D500028E01468DFED390A20EE200AA10608D524
:102D60001168C1F3C101C840B0FBF3F000EE900A56
:102D700004E00146B1FBF3F100EE901A106BF7EEA0
:102D8000001AF8EE600AC0F3080001EE100AB8EE6F
:102D9000411A31EE000A70EE211A20EEA10A19E064
:102DA0002C4900E02C49106BDFED241AB1FBF3F144
:102DB00000EE901AC0F30800F8EE600A01EE100A67
:102DC000B8EE411A00EE211AB7EE000A31EE000A01
:102DD00020EE800A106BC0F34620401C00EE900AE3
:102DE000F8EE600A80EE200ABCEEC00A10EE100A6F
:102DF00030BD194830BD10B501F020FB1749124A0B
:102E00000968174C01F00F01535CD840206010BDD9
:102E100080B5FFF7F0FF00F00DF8C1F3021106E0F6
:102E200080B5FFF7E8FF00F005F8C1F30221515C1F
:102E3000C84002BD0B49044A0968704700000039C8
:102E40000044025800200052646900085C18002405
:102E50000090D00340787D0100093D0018440258DD
:102E6000601800241C440258F8B50546DFF83444C5
:102E70002878C1074DD5226902F03802102A09D0FE
:102E8000206900F03800182802BFA16A01F0030190
:102E9000022908D1226891033BD56868002840F0D8
:102EA0000D810120F2BD6868B0F5803F0FD038B9C0
:102EB000216821F480312160206820F4802009E01D
:102EC000B0F5A02F08D1216841F48021216020684D
:102ED00040F48030206007E0226822F480322260D3
:102EE000216821F480212160686868B1FFF742FE03
:102EF00006462168880300F1E180FFF73BFE801B56
:102F00006528F6D30320F2BDFFF734FE064620689D
:102F1000810340F1D380FFF72DFE801B6528F6D397
:102F2000F0E7FFF727FE801B0328C0F0E680E9E703
:102F3000FFF720FE801B0328C0F01981E2E7E86854
:102F400088B1216821F0190108432060FFF712FEC3
:102F500006462068410700F1D480FFF70BFE801B76
:102F60000328F6D3CEE72068400840002060FFF732
:102F700001FE06462168480740F1CA80FFF7FAFDC6
:102F8000801B0328F6D3BDE7E86980B1216841F0D2
:102F900080012160FFF7EEFD06462068C10500F1C3
:102FA000D180FFF7E7FD801B0328F6D3AAE720684E
:102FB00020F080002060FFF7DDFD06462168C8058F
:102FC00040F1C780FFF7D6FD801B0328F6D399E7B1
:102FD000606F400840006067FFF7CCFD0646606FF9
:102FE000810740F1C880FFF7C5FD801B0328F6D399
:102FF00088E7206820F480502060FFF7BBFD06467C
:103000002168880440F1CE80FFF7B4FD801B0328BF
:10301000F6D377E7FFF7AEFD801B6528C0F0CD80C3
:1030200070E708B9206F09E00528206F06D140F04D
:1030300004002067216F41F0010105E040084000D5
:103040002067216F21F004012167A86841F28936C9
:1030500060B1FFF78FFD0746206F810700F1BA804E
:10306000FFF788FDC01BB042F6D34BE7FFF782FDA8
:103070000746206F810740F1AD80FFF77BFDC01B45
:10308000B042F6D33EE7FFF775FD801B0328C0F082
:10309000B48037E7FFF76EFD401B0328C0F0FB80CC
:1030A00030E7FFF767FD05462168880140F1F780AA
:1030B000FFF760FD401B0328F6D323E7287881073C
:1030C00026D5226912F0380F09D0206900F03800A7
:1030D000182804BFA16A11F0030F7FF430AFE8682D
:1030E00021684A0701D500287BD0216821F0190109
:1030F00008432060FFF73EFD0646206841077FF544
:1031000010AF6068296920F47C3040EA01306060CB
:103110002878C1061DD5226902F03802082A0AD093
:10312000206900F03800182802BFA16A01F00301ED
:1031300001297FF429AF2068C10503D5EA69802AF7
:103140007FF4AFAE6068296A20F0F84040EA816001
:1031500060602A7811070ED5686900283FF438AFFF
:10316000616F41F001016167FFF704FD0646606F82
:1031700081077FF5DDAE2A78930613D5A86900286C
:103180003FF437AF216841F480512160FFF7F2FC32
:1031900006462068810405D4FFF7ECFC801B032859
:1031A000F7D3AFE62878410714D53F4F3A6842F489
:1031B00080723A60FFF7DEFC06463868C1057FF58D
:1031C00029AFA86801287FF42CAF206F40F00100E0
:1031D00020673AE7686A002861D0216901F0380168
:1031E00018293FF45EAE0228206820F0807020602D
:1031F0007FF457AFFFF7BEFC0646216888013FF514
:1032000042AFA26AA86A2949EB6A0A40024342EA2D
:103210000312A262696B286BAA6B491E4902401E09
:10322000C0F30800521E01F47E4112040843E96B0A
:1032300002F4FE021043491E090601F0FE41084354
:103240002063606BA96C6FF3CF0040EAC10060633C
:10325000E26A286C22F00C020243E262E16A686CC6
:1032600021F002010143E162E16A41F48031E1624F
:10327000E06A40F40030E062E16A41F48021E162FA
:10328000E06A40F00100E062216841F08071216055
:10329000FFF770FC0546206881017FF5FBAE00203A
:1032A000F2BD00BF00440258004802580CFCFFFF6A
:1032B0000901020002D4484881547047474A00F08F
:1032C0000F00131803F8041C7047454B4FF6FF021C
:1032D0001968000200F4E0601140084341490843C6
:1032E0001860704738B53E4B1C68C4F30223C3F125
:1032F0000704052C28BF04241D1D072D34BF0023FF
:10330000DB1E012505FA04F4641E2140994005FAEC
:1033100003F35B1E1A401143BDE83440C8E70100C7
:1033200008D4012200F01F0002FA00F02E4B4909D8
:1033300043F821007047401EB0F1807F10B501D3E3
:10334000012010BD294C0F2160604FF0FF30FFF7C6
:10335000AFFF00220721A2600020216010BDBFF353
:103360005F8F23480022016821F4803101600267E9
:1033700070471F4940F001000867086840F480303A
:103380000860BFF34F8FBFF36F8F704710B543785E
:10339000184A13600178D9B144685460C37A017B3C
:1033A000447B1B0643EA0173817A43EAC143817B74
:1033B00043EA8443C47B43EA4143417A43EA0443FA
:1033C000047A007843EA012343EA4403034301E01B
:1033D00051600023936010BD00E400E018ED00E0B0
:1033E0000CED00E00000FA0500E100E010E000E074
:1033F00024ED00E098ED00E038B500F038F85A49C7
:103400000020086000F033F8584A136843F4003392
:10341000136000F02CF81067BFF34F8FD36EC3F327
:103420004E34C3F3C90543F6E07000EA441040EAA5
:10343000857008612846451E0028F4D12046441EA8
:103440000028EED1BFF34F8F106840F48030106039
:1034500000F00DF8FFF772FB00F00EF800F072FAC2
:10346000FFF7ABF901F0E0F800F0BEFAFCE7BFF3BC
:103470004F8FBFF36F8F704718B5CBB03C4C09A886
:1034800021464C2200F052FA01A8202100F07CF8DD
:103490001CA804F14C01BC2200F048FA022001F003
:1034A00087FB002000903348016841F440410160EF
:1034B000026802F440420092009902689304FCD52D
:1034C00002210122099120230C9200221291042151
:1034D000139232221491022115920C22169109A8FE
:1034E0001791189100210D9319921A911B91FFF7D2
:1034F000BBFC3F210322019108210292402204914A
:1035000040210592002306914FF480620891022128
:10351000039301A80792FFF733FB022100221C91BD
:103520001CA8399200F008FB4CB010BD10B5044641
:103530002068B0F1804F08BF01F0E0FA21680E4822
:10354000814208BF01F0D5FA22680C498A4208BFBF
:1035500000F09CFA20680A4A904203D1BDE810406E
:1035600001F0D8BA10BD000050EF00E014ED00E00B
:103570005467000818480258000400400008004042
:10358000000C004070470000002201F033BB00280F
:1035900030B51CBFCC68002C05D08B68002B1CBF3D
:1035A0000A69002A02D14FF0FF3030BD0D688560F6
:1035B0004A68C2604461036109698161002030BDCD
:1035C000F8B500210546009168680026002400280F
:1035D00046D1A86800B1804720206FF0040728601A
:1035E0006B696A46122130469847002848BF3C461E
:1035F00004D4009800F01F00B04208D0761C1F2EA3
:10360000EED928681F2805D96FF0020434E02E6037
:103610000024F6E784BB2B694FF400420021984751
:10362000002819D400F02AF8002813D4A86980478C
:10363000064601E06FF00104009908040FD5AA695D
:103640009047801B40F2F5118842F3D200F016F843
:103650000028F1D53C460FE06FF003040CE05CB9A4
:10366000A86980470646A9698847801B40F2D17245
:103670009042F8D3012068602046F2BD28686B694B
:103680006A46002118471CB500230446009300F049
:1036900044F8002823D400F040F800281FD40098F4
:1036A000410701D4012016BD206863696A460021E4
:1036B0009847002813D40098C10409D400F4045298
:1036C000B2F5045F17D081041CD4C00523D520E0D7
:1036D000206863696A461F219847002802D56FF069
:1036E000040016BD0098C10401D4062016BD00F0E8
:1036F0001C00182801D1022016BD009800F01C0003
:10370000082801D1032016BD009800F01C001428E1
:1037100001D1042016BD052016BD206863696A46E4
:10372000012118472DE9F84702460B46002472484C
:103730000F211D680127A7403D40BD4240F0C580D4
:103740005E684FEA8408022E18BF122E12D1E608D6
:1037500002EB860C08F01C0601FA06F9DCF820E002
:10376000D3F810A02EEA090E0AFA06F646EA0E066B
:10377000CCF82060166893F804904FEA440C4FF0A0
:10378000030E0EFA0CFE6FEA0E0E0EEA060609F0A4
:10379000030909FA0CF949EA060616605E68012E6B
:1037A00018BF022E03D0112E18BF122E12D1966808
:1037B000D3F80C900EEA060609FA0CF949EA060657
:1037C0009660566826EA07075E68C6F30016A640AC
:1037D00037435760D7680EEA07069F6807FA0CF769
:1037E0003E43D6605E68F6006FD50768DFF80CC10F
:1037F00008F00C0801FA08FE47F0020707600668A7
:1038000006F002060096009FA7085CF8276026EAEB
:103810000E0E3B4EB24208BF00262CD0394EB242AB
:1038200008BF012627D0384EB24208BF022622D058
:10383000364EB24208BF03261DD0354EB24208BFF5
:10384000042618D0334EB24208BF052613D0324E9C
:10385000B24208BF06260ED0304EB24208BF07263D
:1038600009D02F4EB24208BF082604D02D4EB242D6
:103870000CBF09260A2606FA08F646EA0E064CF898
:103880002760DFF8A4C0DCF800706FEA05085E6806
:1038900008EA0707F60348BF2F4300F01CF8B603F9
:1038A00048BF2F43CCF804704FF0B04CDCF80070E8
:1038B0005E6808EA0707F60248BF2F4300F00BF8DE
:1038C000B60248BF2F43CCF80470641C0F2C7FF65F
:1038D00030AFBDE8F187CCF80070DCF804705E68AA
:1038E00008EA070770470AB10183704741837047B0
:1038F0004269514041617047F4440258080400583D
:10390000000002580004025800080258000C025837
:10391000001002580014025800180258001C0258E7
:103920000020025800240258800000584AB10000CC
:1039300011F8013B521E00F8013B1CBF11F8013B7E
:10394000F8E7704738B586B00C20FDF739FB524CCC
:10395000606428B9012202215048FFF7C4FFFEE746
:1039600000214F4A016044F62065818081718160A9
:10397000E16421701368B3FBF5F04A4D401EA9685D
:10398000494B41F00401A960AA6802F004020092C8
:103990000099A060002042F20F726061E060A061B7
:1039A000201D6360226101F03FF9002203211E20E7
:1039B000FFF798FC1E20FFF7B2FC201D01F041F933
:1039C00029680123394841F0020129602A6802F080
:1039D000020200920099019300210293049101A92F
:1039E000FFF7A0FE07B030BD10B52B4C616C8868A6
:1039F000D8B1A164606472B6086801F06AFAA06C7C
:103A000001F067FA62B6606C8179012904D181887E
:103A10000068FEF7F5FF05E0022903D18188006800
:103A200000F057FFE06C401EE06410BD2DE9F0414E
:103A300080460F46164672B60C20174DFDF7C0FAA9
:103A4000040018D03846FDF7BBFA2060B8B13A46FA
:103A50004146FFF76BFFA7800020A671A060686C4D
:103A6000014680680028FBD18C60E86C401CE8644B
:103A700062B6BDE8F081296D491C2965F8E7286D1B
:103A8000401C2865204601F024FAF1E7012107488F
:103A9000FFF72EBF00000000102A0024001002587B
:103AA0005C180024E044025800080040000402585A
:103AB00038B50D4D04462A780C4B18684FF47A71CE
:103AC000B1FBF2F2B0FBF2F0FFF735FC50B9102C6D
:103AD00008D2002221464FF0FF30FFF703FCAC6014
:103AE000002032BD012032BD501800245C18002493
:103AF00081B00E48016841F002010160006800F0E9
:103B000002000090009901B0704781B00068084938
:103B1000884209D10748026842F400220260006826
:103B200000F400200090009901B07047F44402585E
:103B3000004C0258E04402582DE9F04704460026A4
:103B40002068B046DFF8F058010122D5626E4AB114
:103B5000B2F5801F0BD0B2F5001F15D0B2F5401F93
:103B600009D014E0EB6943F40033EB6105E0022176
:103B700000F08BFB064630000AD1296C606E21F400
:103B800040110143296404E000F081FBF2E70126C3
:103B9000B0462068C1051DD5626D042A17D8DFE83C
:103BA00002F0030E1205050000F065FB30000FD196
:103BB000296C606DC90840EAC10129640AE000F07F
:103BC00063FB0646F2E7002100F05BFBF9E7012604
:103BD00046EA08082068810521D5A26D4AB1402A2D
:103BE00012D0802A14D0C02A18BFB2F5807F02D02C
:103BF00012E000F040FB30000FD1296CA06D21F4E1
:103C0000E071014329640AE000F03EFB0646F2E75A
:103C1000002100F036FBF9E7012646EA0808206893
:103C200004F18407410524D53A6A62B1B2F5001F58
:103C300014D0B2F5800F15D0B2F5C00F18BFB2F591
:103C4000000F02D012E000F016FB30000FD1A96C7B
:103C5000386A21F460010143A9640AE000F014FB12
:103C60000646F2E7002100F00CFBF9E7012646EAE0
:103C700008082068010524D57A6A62B1B2F1807F14
:103C800014D0B2F1007F15D0B2F1407F18BFB2F16D
:103C9000806F02D012E000F0EEFA30000FD1A96C74
:103CA000786A21F0E0610143A9640AE000F0ECFACF
:103CB0000646F2E7002100F0E4FAF9E7012646EAB9
:103CC0000808206881011BD5A26C42B1102A04D0DB
:103CD000202A0DD0302A02D00FE000F0CCFA3000BC
:103CE0000CD1E96BA06C21F030010143E96307E0DE
:103CF000022100F0CAFA0646F1E7012646EA080862
:103D00002068C10424D5E26D62B1B2F5805F14D0A1
:103D1000B2F5005F15D0B2F5405F18BFB2F5804F25
:103D200002D012E000F0A7FA30000FD1296CE06D4C
:103D300021F4E041014329640AE000F0A5FA0646B7
:103D4000F2E7002100F09DFAF9E7012646EA0808AB
:103D50002068810423D5226E92B1B2F5803F0BD04A
:103D6000B2F5003F15D0B2F5403F1CBFB2F5802F31
:103D7000B2F5A02F04D00FE0012100F086FA06462C
:103D800030000AD1296C206E21F4E021014329641E
:103D900005E000F075FAF2E7012646EA0808206817
:103DA000410423D5BA6A92B1B2F1805F0BD0B2F16F
:103DB000005F15D0B2F1405F1CBFB2F1804FB2F18D
:103DC000A04F04D00FE0012100F05FFA064630005A
:103DD0000AD1A96CB86A21F0E0410143A96405E069
:103DE00000F04EFAF2E7012646EA080820680104CE
:103DF0001BD5E26E42B1B2F1805F03D0B2F1005F39
:103E00000BD00FE000F037FA30000CD1296CE06ED7
:103E100021F040510143296407E0012100F035FA07
:103E20000646F1E7012646EA08082068C10119D5CF
:103E3000626C032A13D8DFE802F004020D0400F0DC
:103E40001AFA30000CD1E96B606C890840EA8101F4
:103E5000E96307E0022100F018FA0646F1E70126BF
:103E600046EA08082068410222D5DFF8F895D9F81B
:103E7000002042F48072C9F80020FEF77BFE8246E3
:103E8000D9F80000C10500F1C581FEF773FEA0EB73
:103E90000A006528F4D308E0FEF76CFEA0EB0900E9
:103EA00041F289318842C0F0D381032646EA0808EE
:103EB0002278D10726D5A06F68B1082807D010282E
:103EC0001AD018281CBF2028282804D017E0012168
:103ED00000F0DBF90646300012D1696CA06F21F0CA
:103EE0003801014369640DE02960286EF96AC1F365
:103EF0000B0108432866DBE700F0C2F9EAE7012678
:103F000046EA080821788A071AD5606F052814D870
:103F1000DFE800F0070310070707012100F0B5F9FB
:103F2000064630000AD1696C606FC90840EAC101D9
:103F3000696405E000F0A4F9F2E7012646EA080802
:103F400021784A071AD5F868052814D8DFE800F068
:103F5000070310070707012100F097F90646300014
:103F60000AD1A96CF868C90840EAC101A96405E052
:103F700000F086F9F2E7012646EA080821788A0669
:103F800022D5B86888B1B0F1805F0BD0B0F1005F86
:103F900014D0B0F1405F1CBFB0F1804FB0F1A04F22
:103FA00003D00EE000F070F9064630000AD1696CCB
:103FB000B86821F0E0410143696405E000F067F969
:103FC000F2E7012646EA080821784A0622D57869F0
:103FD00088B1B0F5806F0BD0B0F5006F14D0B0F59C
:103FE000406F1CBFB0F5805FB0F5A05F03D00EE05E
:103FF00000F04AF9064630000AD1A96C786921F42C
:10400000E0510143A96405E000F041F9F2E701261F
:1040100046EA080821780A0622D5B86988B1B0F5C1
:10402000005F0BD0B0F5804F14D0B0F5C04F1CBF6F
:10403000B0F5004FB0F5204F03D00EE000F024F9AA
:10404000064630000AD1A96CB86921F460410143E9
:10405000A96405E000F01BF9F2E7012646EA08082A
:1040600021780A070ED5D4F88000B0F5805F04D11E
:1040700000F00DF940EA080804E0696C21F44051B1
:10408000084368642078C1060DD53869B0F5807F93
:1040900004D100F0FCF840EA080804E0A96C21F41F
:1040A00040710843A864206801031AD5FA6932B147
:1040B000B2F5803F0FD0B2F5003F03D00EE000F024
:1040C000E3F8064630000AD1A96CF86921F44031C2
:1040D0000143A96405E000F0DAF8F2E7012646EAB8
:1040E000080821684A031ED53868B0F5801F06D03D
:1040F000B0F5001F10D0B0F5401F04D010E0E96902
:1041000041F40031E96130000BD1696C386821F469
:1041100040110143696406E000F0B2F80646F2E798
:10412000012646EA08082168CA031AD5E06C18B1CE
:10413000B0F5803F0DD011E0E96941F40031E9614B
:1041400030000CD1E96BE06C21F480310143E9636C
:1041500007E0022100F099F80646F1E7012646EA59
:10416000080821688A0003D500F091F840EA0808A1
:104170002068810319D5E26F5AB1B2F5807F06D06D
:10418000B2F5007F18BFB2F5407F02D00AE000F020
:1041900072F8300007D1696CE06F21F4407101437F
:1041A000696402E0012646EA08082268D00205D5C3
:1041B000296C206F21F00041014329642168CA0065
:1041C00005D52B68386B23F4804303432B602168AB
:1041D0008A0205D52B6CA06E23F0807303432B64F9
:1041E00021684A0007D52B6823F400432B60296817
:1041F000786B014329602268002A05D5EB6B206D9E
:1042000023F040530343EB635FEA080018BF01202B
:10421000BDE8F08730007FF449AE286EF96A00F4FB
:10422000407001F4407188420BD0286E296E41F431
:10423000803129662A6E20F4407022F480322A668A
:104240002866F86AB0F5807F06D1FEF793FC8146B8
:10425000286E81077FF520AEF86A296800F4407265
:10426000B2F5407F21F47C5104D1DFF8782302EAD3
:104270001012114338E6E86940F40030E8617047F5
:10428000012104F124003CE10021201DECE0022189
:1042900004F1240035E180B5FEF7ADFDDFF85813D9
:1042A000DFF858230968C1F30211515CC84002BD10
:1042B00030B500F07AF8C1F30533D16B05F0100585
:1042C00000F079F802D0022C06D008E000F09AF84D
:1042D000916B00F042F807E0DFF80C4301E0DFF8F3
:1042E0001043916B00F04AF8916B00F07CF8916BF1
:1042F00000F06BF8916B22E030B500F056F8C1F396
:104300000553516C05F4807500F055F802D0022C6D
:1043100006D008E000F076F8116C00F01EF807E017
:10432000DFF8C44201E0DFF8C842116C00F026F863
:10433000116C00F058F8116C00F047F8116CC1F3E3
:104340000661491C00EE901AF8EE600A80EE200A21
:10435000BCEEC00A80ED020A30BDF7EE001AF8EE9E
:10436000600AC1F3080101EE101AB8EE411A31EEED
:10437000000A70EE211A20EEA10A7047DFED381A0C
:10438000B4FBF3F300EE903AC1F30801F8EE600AD3
:1043900001EE101AB8EE411A00EE211AB7EE000A2B
:1043A00031EE000A20EE800A7047DFF85422946A4A
:1043B000916AD56A7047C1F3CC014D4314F00304F0
:1043C00000EE105AB8EE400A7047C1F30641491C8E
:1043D00000EE901AF8EE600AC0EE200AFCEEE00A49
:1043E000C0ED010A7047C1F34621491C00EE901A46
:1043F000F8EE600AC0EE200AFCEEE00AC0ED000A0A
:10440000704700001468DFED160A20EE200AA106AE
:104410000AD51168DFF8D451C1F3C101CD40B5FB15
:10442000F3F100EE901A7047DFF8C041B4FBF3F3EC
:1044300000EE903A704700001044025880B5FEF735
:104440005DFCDFF8B011DFF8B4310968DFF8B421A2
:10445000C1F30321595CC8401060106802BD000020
:104460000000003900480258F8B500F0B2F801D158
:104470000120F2BD286820F0806000F08FF8074628
:104480002968080120D5FEF775FBC01B0328F7D368
:104490000320F2BD012C04D1E86A40F48010E862E8
:1044A00003E0E96A41F40011E962286840F08060A5
:1044B00000F074F804462968080120D4FEF75AFB7E
:1044C000001B0328F7D3E3E7A86A316820F47C30A7
:1044D00040EA013000F065F8A863E96A706921F0EC
:1044E000C0010143E962E96AB06921F0200101439A
:1044F000002CE962CED1E96A41F40021D4E7002022
:10450000F2BDF8B500F065F801D10120F2BD2868D0
:1045100020F0805000F042F807462968880020D536
:10452000FEF728FBC01B0328F7D30320F2BD012CA4
:1045300004D1E86A40F40000E86203E0E96A41F06F
:104540008071E962286840F0805000F027F8044646
:104550002968880020D4FEF70DFB001B0328F7D341
:10456000E3E7A86A316820F07C7040EA015000F06F
:1045700018F82864E96A706921F440610143E9622E
:10458000E96AB06921F400710143002CE962CED1DF
:10459000E96A41F48001D4E70020F2BD2860FEF70B
:1045A000E9BAA862B1687068F268491E4902401E03
:1045B000C0F30800521E01F47E4112040843316921
:1045C00002F4FE021043491E090601F0FE410843B1
:1045D000704706460A4DA86A0C4600F003000328FF
:1045E00070470000CFFFFF0040787D010090D003AE
:1045F00000093D001844025820440258646900082C
:10460000004402585C180024BFF34F8FDFF83C25AC
:1046100002E01060203020390129FADABFF34F8F11
:10462000BFF36F8F704700002DE9F8418BB0DFF8C2
:10463000204520680022DFF81C55002640F00100CC
:104640002060216801F0010100910098216941F486
:1046500000312161206900F4003000900099A068C9
:1046600040F00800A060A16801F0080100910098E6
:10467000AA80DFF8E414AA610122296028466E614D
:104680002A6200F029FC08B1FEF77CFFA0684FF415
:104690008043DFF8C87440F00200A060A168DFF832
:1046A000C00401F002010091009A012106930791D4
:1046B00006A90996DFF8AC64FFF734F83868226978
:1046C0004FF4FA61632342F0010200F0FCF801F0BC
:1046D00001010091009A306100204FF08041F061AB
:1046E0007061306206F10C00F160B36100F09CFA79
:1046F000002203211C20FEF7F5FD1C20FEF70FFE13
:1047000038682269DFF86014DFF8603442F0020292
:1047100000F0D9F801F002010091009A0021A8628E
:104720006B6205F1240029636963E962A96300F003
:104730007BFA002203211D20FEF7D4FD1D20FEF789
:10474000EEFD38682269DFF82014DFF8243442F0E7
:10475000080200F0B8F8DFF81C4401F008010091ED
:10476000009A306500200A21F0657065306606F118
:104770004C00F364B16500F057FA002203213220A7
:10478000FEF7B0FD3220FEF7CAFD1821012201918B
:104790000023029201A9039320460493FEF7C2FF6F
:1047A0006021022201910321029201230491072238
:1047B000039301A905922046FEF7B4FFDFF8B81372
:1047C000DFF8B843DFF8B8036160206000220C21F5
:1047D000A260E260204622616161A261E261226220
:1047E0006262A262E2622263626300F02BFC08B1A3
:1047F000FEF7C8FE2B20DFF88C53DFF88C73002106
:1048000068604FF480682F602846A960E960C5F8A9
:1048100010806961A961E9612962696201F06CFA3D
:1048200008B1FEF7AFFE07F1180005F184076567D0
:104830002C21A867002040223860B860F8603861F9
:104840007861B86105F17800AC63E967C5F880204C
:10485000C7F8048001F050FA08B1FEF793FE05F1A5
:104860007800102120672620FC6222681162002255
:104870000021FEF737FD2620FEF751FD0022002122
:104880000B20FEF72FFD0B20FEF749FD0022002133
:104890000C20FEF727FD0C20FEF741FDC2A0BB490E
:1048A000D0E90023C1E900230122002332704FF434
:1048B000C862737006F18C01B370204600F071F885
:1048C0000CB0BDE8F0812261B0FBF1F02169401E1F
:1048D00070472DE9F04103460D46A24CA078002810
:1048E000FCD1AA4E2A46194606F10800FFF71EF829
:1048F000DFF860822A4606F10801404600F028FBF6
:104900006060002003217219C3B21A44231DCFB284
:10491000401CDB5D491E1372C2B2042AF3DB002186
:104920000C35E1709A4F60780028FCD1002222708B
:1049300001F0FAFD6423642190FBF3F301FB130003
:10494000401CB8600020386008F1240000F079F9BC
:1049500021780129FCD108F1240000F07DF960786C
:1049600018B1E1780129DED101E00120E0701821C1
:10497000884A11800123A3704FF4C8613046FFF7C5
:1049800043FE7E4801680A6822F010020A600B6844
:10499000AAB223F020030B603146BDE8F04100F0DD
:1049A00091BBF8B504460D46164694F879002028C8
:1049B000FBD11821784A118020684FF4C861036840
:1049C00043F0100303602068076847F02007076082
:1049D0002846FFF719FE324629462046BDE8F84032
:1049E00000F0ACBB5F4900238B704FF4C8628C3180
:1049F000D7E710B5044600F0E4FB204600F018FCB1
:104A000000F02FF8654922F02002026023E010B583
:104A1000044600F026F822F020020260C36919075C
:104A200044BF08220262C1694A0744BF04230362EB
:104A3000C1698A0744BF02230362204600F0C1FB1C
:104A4000204600F0F5FB47488178012900F18C01F0
:104A500004BF0022827020464FF4C862BDE81040B7
:104A60009FE72068016821F010010160026870472B
:104A70002DE9F84305463B4C686F04F18C0800684B
:104A800040682081284600F09CFB284600F0D0FBBF
:104A90002868016821F010010160026822F02002FC
:104AA00002602689C6F5C866B0B288B10C3840F2FB
:104AB000EF5188420CD2474604240FF2EC093878B3
:104AC000AA280CD108224946384601F07FFD40B1A2
:104AD000414628464FF4C862BDE8F84361E77F1CB1
:104AE000761E641EEBD10122B1B23846FEF79EFF5E
:104AF000EEE70120FFE71B490870704780B50022F0
:104B00004FF480411648FEF7EEFE2548BDE802400E
:104B100000F0A2B81348002141704C3000F09CB85E
:104B200010480121417000221E4B4C301A6000F0E9
:104B300088B80C494878002808BFFFF7F1BF012268
:104B400000204A70174908607047000070EF00E0CD
:104B5000D8440258AC290024004C02585C180024A8
:104B6000000402586C18002480841E0000040040D9
:104B7000000C0040000C0258404B4C00C42800249C
:104B8000004400405027002410000240381F002439
:104B900024040040180C02581A0C0258F81800247B
:104BA00078180024240C0040AAAAAAAAAAAAAAAB90
:104BB00038B5DFF83C40A168C90840EAC100A060F0
:104BC000FDF7D8FF05462068810409D4A268500784
:104BD00006D5FDF7CFFF00F005F8F4D3032032BD72
:104BE000002032BD401B40F2E9318842704700008E
:104BF0000448025800B500BF130096469446103989
:104C000028BFA0E80C50FAD85FEA417C28BF0CC04E
:104C100048BF40F8042BC90728BF20F8022B48BF23
:104C200000F8012B00BD000038B5040001D10120BF
:104C300032BD00F036F818B900F02FF800F048F94E
:104C400021E00068C16841F00101C160028842F0C2
:104C5000010202800020704710B5016841F2111373
:104C6000C86840084000C8600A6A1A4202BF0C6A5D
:104C700040F24442144204D10B884FF6FE700340C8
:104C80000B80002010BD0220211D6870206800F0FC
:104C9000BBF801206870002032BD00212046297039
:104CA000704704F13C056878704738B504462068C1
:104CB00001698A0715D5C368990712D56FF00202FA
:104CC000012302612377806910F0030F204602D090
:104CD00001F08BFC03E001F089FC00F092F8002069
:104CE0002077206801694A0715D5C368590712D58E
:104CF0006FF00402022302612377806910F4407F81
:104D0000204602D001F071FC03E001F06FFC00F0DE
:104D100078F800202077206801690A0715D5C36854
:104D2000190712D56FF00802042302612377C069C6
:104D300010F0030F204602D001F057FC03E001F011
:104D400055FC00F05EF80020207720680169CA0653
:104D500015D5C368D90612D56FF010020823026179
:104D60002377C06910F4407F204602D001F03DFC5B
:104D700003E001F03BFC00F044F8002020772068BD
:104D80000169CA0708D5C368D90705D56FF00102C4
:104D900002612046FEF7CAFB20686FF080050169BA
:104DA0000A0606D5C368190603D50561204601F039
:104DB0001EFC20680169CA0506D5C368190603D51B
:104DC0000561204601F013FC206801694A0608D5F8
:104DD000C368590605D56FF040020261204601F014
:104DE00007FC206801698A060AD5C368990607D5B9
:104DF0006FF0200202612046BDE8324001F0F9BBAD
:104E000031BD204601F0F6BB2DE9F043DFF8A0806C
:104E100005884045DFF89C60DFF89C70DFF89CC097
:104E2000DFF89CE0DFF89C3018BFB0F1804FDFF86E
:104E30009840DFF8989007D0484518BFA04203D0AB
:104E4000984218BF70450DD14A6825F0700515438A
:104E5000404518BFB0F1804F0CD048451CBFA04260
:104E6000984207D0704518BF604503D0B84218BFBC
:104E7000B04203D1CC6825F4407525434A694FF60A
:104E80007F731D401543404505808C68C4620B68E4
:104E900018BF7045038504D060451CBFB842B042BE
:104EA00001D10969018601224261BDE8F083000059
:104EB0000000014000480140004401400040014022
:104EC00000040140000C00400008004000040040C5
:104ED0007047FCF7D0B9000010B504001FD0617F07
:104EE00019B900222277FEF710FE0221617720799E
:104EF00070B92268154951612068836823F018034E
:104F00008360607968B922684FF0FF3111610BE06E
:104F1000E268A168204601F06EFB0028F1D0012074
:104F200010BD21682069086121688A68606922F0E3
:104F3000600202438A6021688A68A06922F08002C8
:104F4000024300208A600121617710BDB71DC104B2
:104F500070B504460023257F0020012D01D10220D9
:104F600070BD01260225267765772568AE6846F074
:104F70000106AE60256A012D07D012D3032D0CD097
:104F80003CBF204600F046F80BE0204600F00EF84B
:104F900007E051F823605B1C066093422068F8D359
:104FA0000068012100226177227770BDF0B50023EF
:104FB0000CE06678257807685B1C360446EA0566CF
:104FC000A578E47846EA052626433E60B3EB920FC7
:104FD00001EB8304EDD312F0030218D0012A03D1B0
:104FE00002682178117012E0022A06D161782378D4
:104FF000026841EA0321118009E0032A07D162789F
:105000000168237842EA03220A80A4780C700068C1
:105010000068F0BDF0B5002308E001EB830631F82D
:1050200023505B1C778847EA05472760B3EB520F94
:105030000468F2D3D00744BF31F8231021802068E0
:10504000F0BD000038B5040009D004F17805697896
:1050500009B900F01FF800F022F8012801D1012061
:1050600032BD606B08B100F02AF800F00BF822F0B6
:105070002A02826000F01DF8FFE72046BDE83240BA
:1050800000F0E8BC2068416821F49041416020684C
:105090008268704700202870204600F02BBE242133
:1050A000697020680268520852000260204600F0D1
:1050B000FFB92068016841F0010101607047204696
:1050C00000F064BCF8B5044604F16005687E134640
:1050D000202831D109B1180001D10120F2BD287E6C
:1050E000012829D0012200202A76DFF81C28E1655A
:1050F00021212B8000266B80E86169762869DFF822
:105100000C18C2632A69DFF8080811642969C864A9
:10511000286906652768E16D286907F1280200F013
:10512000C2FE2168402008622E762068816841F026
:10513000800181600020F2BD0220F2BD70B50446FE
:1051400004F16805A87C1346202838D109B118005D
:1051500001D1012070BD287C012830D0012200201F
:105160002A74DFF8B027616622212B80002668614F
:10517000A974E868DFF8A017C263EA68DFF890074F
:105180001164E968C864E86806652668626EE868C4
:1051900006F1240100F087FE0020287420680168D1
:1051A00041F4807101602068826842F001028260EF
:1051B0002068816841F040018160002070BD0220BC
:1051C00070BD38B5044604F17905287821280FD13F
:1051D000206881680A060BD5836823F0800383600A
:1051E000206F08B100F0C9FE00F018F820202870E8
:1051F0006A78222A0BD100F017F808D500F009F8D8
:10520000606F08B100F0B9FE204600F080FC00207D
:1052100032BD836823F040038360704720680168D3
:1052200021F0C00101607047206881684A0670471C
:1052300070B5054605F1700628680124016821F45F
:10524000B0710160296800F049F8306840B1296800
:105250008A68130647BF0FF6B51101650022026583
:10526000706840B129688A68530647BF0FF6BD11C0
:10527000016500220265286881680A060DD58368E9
:1052800023F080038360306838B100F0E4FE00282A
:105290001DBF0020316808650024286881684A061F
:1052A0000AD5FFF7B6FF706830B100F0D4FE98B1B0
:1052B00071680020086500E074B105F1620000210A
:1052C00001800F2301812022F160296828460B62AA
:1052D0007272B27201F0B3F9002070BDDFF83C06C3
:1052E0008A6802408A607047F8B5044604F1740584
:1052F0002168CA690B688E6812F00F000AD1900607
:1053000070D59F0601D4F0006CD52046BDE8F24070
:1053100000F0ACBCDFF80806064208BF13F4907F2B
:1053200060D0D70707D5DF0505D501270F62A9682B
:1053300041F00101A960970708D5F10706D5276854
:1053400002213962A96841F00401A960570708D514
:10535000F10706D5276804213962A96841F00201E6
:10536000A96017070AD5990601D4064206D0276816
:1053700008203862A96841F00801A960A8680028DF
:105380002FD0910606D5980601D4F10002D520460B
:1053900000F06CFCA868010703D4226890684106FD
:1053A0001AD5204600F0B3FBFFF73EFF0FD500F003
:1053B00079F860B10FF645010165286800F04BFEF1
:1053C00000286ED02868016DBDE8F44008472046EB
:1053D000BDE8F240FFF71BBB2046FFF718FB00209B
:1053E000A860F1BDD7020CD570020AD54FF4801227
:1053F00020460A6220216971A971BDE8F24001F0DE
:105400001FB9170636D5180601D4360232D56A7987
:10541000212A46D1B4F8620088B90A68930004D5FD
:10542000886820F40000886003E00A6822F08002A7
:105430000A602068016841F040010160F1BDA26886
:10544000B2F5805F04BF2069002808D1E26D13889F
:10545000C3F308030B85E06D811CE16504E0E06D9A
:10546000421CE26500780885B4F862104A1EA4F870
:105470006220F1BD50060CD55E060AD50A682020D0
:1054800022F040020A6068712046BDE8F240FFF752
:10549000A9BA120205D5580003D50B6823F0804342
:1054A0000B60F1BD836823F0400383602868704778
:1054B0002DE9F84386B0DFF86C6480250446216846
:1054C000002081460F68A268236937406669174348
:1054D000E2691F43A36A374317431F430F604E68B7
:1054E000E26826F440561643DFF83C244E609142B1
:1054F000A769A66A1CBF236A1F43B6F1005F03D1E8
:10550000E36A266B33431F438E68DFF820340FF2C3
:10551000CC7833401F438F60CE6A636ADFF8107423
:10552000360943EA0616DFF80C349942CE62DFF8FA
:10553000086402D167E0042540E0DFF800349942B6
:105540000AD100F01EFA39D8DFE803F09203041400
:105550002537F0E7402531E0DFF8E43399420BD1FD
:1055600000F00FFA2AD8DFE803F0830403051628B9
:10557000F0E7E0E7082521E0DFF8C83399420CD1D5
:1055800000F0FFF91AD8DFE803F0730504030618EA
:10559000F0E7DFE7CFE7102510E0DFF8AC33994202
:1055A0002DD100F0EEF909D8DFE803F0620605041A
:1055B0000307F0E7DEE7CDE7BDE72025914240F0A5
:1055C000E580022D0DD0042D68D0082D00F06E80EE
:1055D000102D00F07680202D00F07580402D61D0D8
:1055E0008BE1FEF758FE002800F08981626802EB2B
:1055F0004201884202D31303834267D27DE1DFF880
:105600004C33994210D17B6D13F038030AD0082B2C
:105610001BD0102B9ED0182BACD0202BBBD0282B0E
:10562000CBD0CBE70125C9E7DFF8243399420DD170
:1056300000F0A7F9C2D8DFE803F01B08070605044D
:10564000BCE7BAE7A7E795E784E774E7DFF8043338
:1056500099420FD100F095F9B0D8DFE803F00908BE
:1056600007060504AAE7A8E795E783E772E762E77C
:105670000025A3E79142A1D1BB6D03F00703052BE1
:105680009CD8DFE803F009080706050496E794E7CD
:1056900081E76FE75EE74EE70225A2E700F06EF9CB
:1056A0000498A0E700F067F901989CE73868810644
:1056B00005D53868C0F3C10126FA01F093E73046FA
:1056C00094E7A54892E74FF400408FE7022D0AD0F7
:1056D000042D0DD0082D1CD0102D2FD0202D3ED004
:1056E000402D0BD049E0FEF7D6FDD4F824C00AE0E7
:1056F00000F044F9D4F824C0049804E000F03BF929
:10570000D4F824C00198626838F81C60B0FBF6F643
:105710001BE0D4F824C00021002338F81C003D68A9
:10572000AD0603D53D68C5F3C107FE40B6FBF0F6F4
:10573000370E360216EB520079410DE0D4F824C042
:10574000854B38F81C60B3FBF6F65008002110EBCF
:10575000062051EB1661002300F074FF0FE0666A2B
:105760004FF4004138F81600B1FBF0F080B2510858
:1057700001EB0021B1FBF2F001E04FF00109A0F5CF
:105780004072764B9A4272D22168B4E0E269B2F577
:10579000004F5FD165B1012D0DD0042D19D0082D1A
:1057A00021D0102D32D0202D3DD0402D16D046E0F6
:1057B000FDF72EFB01E0FDF733FB626A616838F804
:1057C0001230B0FBF3F04E0806EB4006B6FBF1F0EA
:1057D00037E000F0D3F86068049919E000F0CBF8E6
:1057E0006068019914E0606A616838F810003B68ED
:1057F0004A089B0603D53B68C3F3C103DE40B6FBF2
:10580000F0F002EB4002B2FBF1F01AE0606852499E
:10581000626A38F81230B1FBF3F3410801EB43013F
:10582000B1FBF0F00DE0616A606838F81130B2FB4E
:10583000F3F3420802EB4302B2FBF0F001E04FF059
:1058400001094FF6F0710140C0F3420001432068A6
:10585000C16054E065B1012D0DD0042D1BD0082D81
:1058600027D0102D37D0202D38D0402D1AD044E02D
:10587000FDF7CEFA01E0FDF7D3FA626A61682468A9
:1058800038F81230B0FBF3F000EB5100B0FBF1F14F
:1058900089B2E16033E000F071F8626A049900F0C7
:1058A0005FF827E000F067F8626A019900F058F8A5
:1058B00020E0626A38F8120062683C68A30603D5EB
:1058C0003C68C4F3C104E640B6FBF0F000EB5203C1
:1058D000B3FBF2F00EE060681F4A02E060684FF42C
:1058E0000042636A38F81340B2FBF4F404EB50044E
:1058F000B4FBF0F080B2C86001E04FF00109484607
:1059000007B0BDE8F08300002B5B0008575B000880
:10591000A35B00085D5B00089D5B0008FEFF7FEF56
:1059200001000010F369FFCF000C0058FFF4FF11D5
:1059300000440258001001400090D0030044004091
:1059400000480040004C004000500040001401405E
:1059500000780040007C004000093D0000FD0F0081
:10596000606838F81230B1FBF3F303EB50032168A1
:10597000B3FBF0F070476846FEF7BEBC03A8FEF725
:1059800097BC7B6D03F00703052B704710B590F8AB
:105990003410CA0706D502685368816B23F40033BC
:1059A0000B43536090F83420910706D50268536882
:1059B000C16B23F480330B43536090F834205107BC
:1059C00006D502685368016C23F480230B435360AF
:1059D00090F83420110706D502685368416C23F40F
:1059E00000430B43536090F83420D10606D502687B
:1059F0009368816C23F480530B43936090F83420B8
:105A0000910606D502689368C16C23F400530B43DA
:105A1000936090F83420510610D502685368016DE8
:105A200023F480130B435360036DB3F5801F05D13E
:105A30005468416D24F4C0040C43546090F8342041
:105A4000110606D501684A68806D22F400220243DF
:105A50004A6010BDF8B5044604F1780500206FF0E7
:105A60007E476860FDF786F82168064608680207E9
:105A700008D50097334600224FF40011204600F06D
:105A800017F860B9206801684A070AD500973346BD
:105A900000224FF48001204600F00AF808B10320EC
:105AA000F2BD202000226870A87000202A70F2BD8C
:105AB0002DE9F04105460E4690461F46069C286893
:105AC000C1693140B1420CBF0120002040451BD1CB
:105AD00014F1010FF3D024B1FDF74CF8C01B844240
