:020000040800F2
:10000000B80600201D500008994E00089B4E0008BD
:100010009D4E00089F4E0008A14E00080000000001
:10002000000000000000000000000000A34E0008D7
:10003000A54E000800000000A74E0008A94E0008C9
:10004000395000083D500008415000084550000854
:10005000495000084D500008515000085550000804
:10006000595000085D50000861500008AD4E00086E
:10007000B34E000865500008695000086D50000834
:100080007150000875500008795000087D50000834
:100090008150000885500008895000088D500008E4
:1000A0009150000895500008995000089D50000894
:1000B000A1500008A5500008A9500008AD50000844
:1000C000B1500008B5500008B9500008BD500008F4
:1000D000C1500008C5500008B94E0008C9500008BA
:1000E000CD500008D150000800000000D550000895
:1000F000D9500008DD500008E1500008E550000824
:10010000E9500008ED500008F1500008F5500008D3
:10011000F9500008FD500008015100080551000881
:10012000095100080D51000811510008155100082F
:1001300019510008E34E00081D5100082151000824
:1001400000000000000000000000000000000000AF
:1001500025510008295100082D510008315100088F
:1001600035510008395100083D510008415100083F
:1001700045510008495100084D5100080000000099
:100180005151000855510008595100085D510008AF
:100190006151000865510008695100086D5100085F
:1001A0007151000875510008795100087D5100080F
:1001B0008151000885510008895100088D510008BF
:1001C0009151000895510008995100089D5100086F
:1001D000A1510008A5510008A9510008AD5100081F
:1001E000B1510008B5510008B9510008BD510008CF
:1001F000C1510008C5510008C9510008CD5100087F
:10020000D1510008D5510008D9510008DD5100082E
:10021000E1510008E5510008E9510008ED510008DE
:10022000F1510008F5510008F951000800000000E4
:10023000FD510008015200080000000005520008AE
:10024000095200080D52000811520008155200080A
:10025000195200081D5200082152000825520008BA
:10026000295200082D52000831520008355200086A
:10027000395200083D5200084152000800000000B9
:10028000455200080000000049520008000000002C
:10029000000000004D520008F8B5040033D004F10E
:1002A0005105287810B9204601F079F82321DFF8AC
:1002B00018092970026842F002020260006800F02A
:1002C000020000900099207A08B14FF4000001F07C
:1002D000ADF920684FF48056815941F001018151F8
:1002E00001F0B2F9074620688259D10740F19480A5
:1002F00001F0AAF9C01B40F2F5129042F3D304209A
:10030000E021606529700120F2BDDFF83029DFF8B7
:10031000303912189A4238BF46F4407621BFDFF8D0
:1003200024793F18DFF8202997420AD3DFF81C19F7
:10033000DFF81C390818984234BF46F4807646F43A
:1003400080662068C0F8006201F0BFFADFF8041987
:10035000B0FBF1F12068491EC0F8DC10204600F027
:100360006DFD20684FF48851425822F4E01242F4A7
:1003700000224250606910F0030F04D00120E021F8
:1003800060652970F2BD216841F208128B586FF345
:100390004E0343EA400300208B5000211823E268FB
:1003A00043431A4404EB8003401C0428116051604D
:1003B0009160D1609A61F1D3A1622268032141F278
:1003C0002C13D1502668E06841F214117050236854
:1003D000E26803F589500260204600F09BFD6068EA
:1003E00022684179007940EA0120C2F80003606880
:1003F00023688278C178120442EA01624178007869
:1004000042EA0122102102430020C3F80423002203
:10041000626529706970F2BDD0F8006201F055FA8A
:1004200000F09CFB914226F47066BFF46EAF46F478
:10043000007686E710B500EB8104E46A0AB104296E
:1004400003D301214165012010BD2260E0682261D3
:1004500040F08070E0602BB1E068A360636140F021
:100460000070E060E06840F00040E060002010BDF7
:1004700030B5014601F15102CC6A107800231028F2
:1004800047D1232504201570E5685B1C042B45F03B
:100490008045E56001F12C0428BF1B1F401E54F865
:1004A0002340F1D10120C8640868036843F00203C7
:1004B00003600868046844F0010404600868D0F828
:1004C000003D43F00103C0F8003D086841F2041309
:1004D000C45844F00104C450086841F20813C558D8
:1004E00045F00105C55008684FF48B53C45844F4D7
:1004F0008174C4501020107022235370086841F298
:100500003411425842F4504242F04102425000201D
:1005100030BD012030BD10B5044649B194F85130CA
:10052000102B05D1012200F01EFD18B102236365D6
:10053000012010BDA06A401C0428A06224BF001F37
:10054000A062A06A236804EB800100208A6903F599
:100550008954226010BDF0B5024602F12C00D46B24
:10056000516C0025002350F82460002069B1F0BDD3
:10057000F768BE0044BF234601200C46042C02F15C
:100580002C0128BF241F51F82460F168002921D4D0
:10059000042D1FD20F466D1C401C611CFF00E7D5C7
:1005A000012808BF2346042902F12C0428BF091F93
:1005B00054F82140E568002D07D46C0005D5491C8E
:1005C00001250429956428BF091F50640120D163C7
:1005D0001364F0BD20B302F12C0151F823402169CE
:1005E00021604FF08071E160616929B16169A160AA
:1005F000E16841F00071E160E16841F00041E160D3
:10060000D16C19B1E16841F08041E1605B1C042BC1
:1006100002F12C0128BF1B1F401E51F82340DED1E0
:1006200000205064F0BDF8B5064606F12C02376C88
:10063000706C0C4652F8275020B93046FFF78BFFFC
:10064000002841D04FF0000E3B4600212A462046AC
:10065000746C641EA6452AD2516909B9116907E074
:1006600090B31169016071694160806860B351693C
:10067000016071695B1C4160042BD16806F12C029A
:1006800080680EF1010E28BF1B1FC1F30E0152F846
:100690002320DDE75369BBB11369036073694360CD
:1006A000806888B1536903607269891A09E058B19A
:1006B000D368C3F30E03591A73698B42EAD31369E3
:1006C000036041600020F2BD0120F2BD70B5044618
:1006D0000D46606C266C28B92046FFF73CFF08B930
:1006E000012070BD606C401E8619042E28BF361F85
:1006F00004EB8600C16AC868C0F30E00FFE72860FB
:10070000002070BD30B5014601F12C000B6C4A6C25
:1007100050F823400AB9012030BD886C00B1521C4A
:10072000002523E0206920604FF08070E060606960
:1007300028B16069A060E06840F00070E060E068A7
:1007400040F00040E060C86C18B1E06840F08040C4
:10075000E060486C401E854207D25B1C042B01F10F
:100760002C0028BF1B1F50F823406D1C9542D9D385
:10077000086841F228120023845000204B6430BDE9
:1007800070B5044641F2341520684FF48B56284466
:10079000C16A4A060ED5006841060BD52046FFF710
:1007A000DAFE012804BF204600F0DAFE216848F294
:1007B0004000885122685019C36AD90709D50068DA
:1007C000C20706D5204600F01DFF216848F201004F
:1007D00088512268501904F15405C36A590429D577
:1007E0000268530426D5296841F008012960C26ACD
:1007F000D30410D5C26A41F202110A408A420CBFEA
:10080000012100216960016821F440410160E0207C
:1008100084F851000BE0C16A01F4CD41B1F5CD4F30
:100820000CBF0121002169604FF4CD41C162204617
:1008300000F0E9FE206850F8B01F01F4C041B1F5A6
:10084000C04F09D18068E021A860204684F851108B
:1008500000F0DAFE0020A860216801F1B000026813
:10086000D30608D5006900F06000E860204600F07B
:10087000CCFE0021E960206850F8B02F910608D521
:10088000006900F00F002861204600F0BFFE002143
:100890002961DFF870090268510207D54FF480031F
:1008A00003602046BDE8704000F0B1BE70BD70B579
:1008B00004461D462068D0F80032DE071DD4D0F86B
:1008C000003223F0787343EA415323F4F81343EAE8
:1008D000024343F00D03C0F8003200F0B5FE0646B7
:1008E000206800F500700168CA0708D500F0ACFE6A
:1008F000801B40F2E9318842F2D3012070BD40688C
:1009000080B2FCE670B504462068D0F80052EE07CD
:1009100021D4D0F80002DFF8F0589BB26B6020F0D1
:10092000787040EA415020F4F81040EA024020F08C
:100930000C0040F00500286000F086FE05462068A7
:10094000D0F80012CA0708D500F07EFE401B40F226
:10095000E9318842F3D3012070BD002070BD30B56D
:1009600009B9012030BD006801F12802036803F0D5
:100970000C0353600468C4F300131370036803F09E
:1009800060034B6205682D0A05F0010585F001053D
:1009900081F8205003685B0A03F00103CB770468F9
:1009A000A40A00F0A0F88C770368DB0A03F00103C7
:1009B0004B770468240B04F001040C77036803F4FC
:1009C00000538B61046804F480444C6103681B0C81
:1009D00003F001038B740468640C00F084F84C7419
:1009E0000368DB0C03F0010383F001030B7404685C
:1009F000240D04F00104CC7303685B0D03F00103C4
:100A00008B730468A40D04F001044C730368DB0DC0
:100A100003F001030B73046804F0E0648C60036866
:100A2000DB0E03F001030B71046804F0E04441F8AD
:100A30004C4B4368C3F30D03D3604468240C00F0AF
:100A400052F8947243685B0C03F0010353724468DC
:100A5000A40C04F00104147243681B0E03F001039C
:100A600013744368C3F344635361C468240A04F0F5
:100A700001041476C36803F00F03D361036FC3F35B
:100A800040030B72046FE40900F02DF80C70036F43
:100A900003F070034B60046F240C1462D0F89020B4
:100AA00002F001028A72D0F8902000F55060C2F383
:100AB00040024A72036803F07203CB60026B02F0DB
:100AC00023020A61026BC2F3C0028A75026BC2F391
:100AD00000124A75006B800900F0010080F00100EF
:100AE0000875002030BD04F0010484F00104704753
:100AF00080B539B190F85220102A03D100F0ACF83B
:100B0000002002BD012002BD70B504462068D0F867
:100B1000005200F0DAFE00F021F825F470659142F1
:100B200038BF45F4007515D3444B45491B188B421B
:100B300038BF45F4407521BF424A1218424B9A42D1
:100B400008D34249424E0818B04234BF45F480757C
:100B500045F480652068C0F8005270BDDFF8AC161F
:100B6000DFF8AC260918704770B509B9012070BDCF
:100B700003684A7A9C680878CE78551EAD41DFF844
:100B80009426ED0F1440044344EA46040A79087A97
:100B900044EA82044A7944EAC004C87944EA021467
:100BA0008A7944EA451444EA0024887844EA4224D5
:100BB0004A7844EA8024C86844EAC27404430020A6
:100BC0009C6070BD00000000F444025809B9012087
:100BD00070470068826802F001020A708368C3F3FC
:100BE0004002CA708268C2F380020A718268C2F34E
:100BF000C0020A728268C2F300124A7183685B09FC
:100C000003F0010383F001034B72826802F0C0021B
:100C1000CA6083681B0A03F00103CB718268520A21
:100C200002F001028A7183689B0A03F001038B7052
:100C30008068C00F487000207047000040F1E9FD57
:100C400040787D0100796CFC005A6202001F0AFAAC
:100C500080F0FA0240420F002DE9F04105680A7C5D
:100C60004B7C01F12804571EBF41FF0F8A7FB3F16F
:100C7000010E6EEB0E0E4FEADE7E91F820302E68EC
:100C80000868B2F1010C6CEB0C0C8A684FEADC7C52
:100C9000B3F1010868EB0808DFF87C354FEAD87833
:100CA0001E4016430643087946EAC0660A7B487B25
:100CB0008B7C46EAC2568A7B46EA8056C87B46EA67
:100CC00042564A6946EA0056886946EAC74646EAF5
:100CD0004E4646EA03460B7F1643064346EA033672
:100CE0004A7FC87F237846EAC2264A6A46EA8C26AB
:100CF00046EA4026606846EA0826164346EA031696
:100D00000643DFF818052E60A27A6B686669277CB7
:100D1000521E92410340207A43EA4663667AD20F1C
:100D200043EA076343EA8043E06843EA464343EA11
:100D30000243DFF8EC2403436B60EB68267EE06936
:100D4000134001F14C0243EA06230343EB601178A0
:100D50002E6F177A50684B1E9B414FF60D710E4057
:100D600046EA4706DB0F216A064346EAC31646EA0F
:100D700001462E67D5F89000937A517A43EA4103F1
:100D800005F55061800843EA8000C5F890000C68C2
:100D9000D06824F0720404430C60137D0C6B10695E
:100DA0005B1E9B41DB0F24F07B04044344EA831465
:100DB000537D907D44EA031444EAC0040C63BDE80B
:100DC000F081F0B50468DFF85C34DFF85C2404F5EA
:100DD000805504F588542E6808681E4006432E602E
:100DE0006F680B79886817400A7B47EA0337074327
:100DF000DFF8380447EAC2376F6025684A7B0B6A20
:100E0000054045EA0245DFF828241D432560656852
:100E100008690B7D15404A7F0543DFF8180445EA51
:100E2000031545EA02356560A3680A7F89690340B6
:100E300043EAC2730B43A360F0BD000070B5A2B0DB
:100E40000022012112928DF8331000258DF84120E7
:100E500001238DF8432001228DF8281013A98A72EE
:100E60001CAA8DF84C5004460D744FF4C3604D61BC
:100E70004FF48046557595758DF830500B958DF86B
:100E800036508DF8405055604D600D7620258DF818
:100E9000323013754FF4005315614FF040550F93E6
:100EA0000123C8600020099502258DF835300862BD
:100EB00090728DF842308DF8443000231081087212
:100EC0000120D56001254B728DF834002046CB619E
:100ED00009A90E968DF831308DF87050FFF7BCFEE1
:100EE0004FF4067100234FF4001208918DF804505E
:100EF00069460295204600938DF81C30ADF80C3001
:100F000006928DF8143004928DF81D30FFF759FFCA
:100F100022B070BD30B500210022182403694C4373
:100F2000234400EB8104491C03291A605A609A602B
:100F3000DA601A615A61E362EFD9C2630323026483
:100F400041F230114264C2648264046863500568EF
:100F5000026941F21C13EA500169006841F228124B
:100F60004831815030BD2DE9F04790460C46836AE8
:100F700000F118014FF0010951F82350A1689A4679
:100F8000EA68002A59D42678760729D5160C626AB1
:100F900042EA0642EA60EA6842F48032EA600268A5
:100FA000166E46F4801616662278120718D5AA68BF
:100FB000E66AC2EA0642AA60EA6842F40032EA60DF
:100FC000EA6822F44026226B3243EA600268566ED9
:100FD00046F4801656660268166D46F08066166501
:100FE0002278D20609D5AA68960BA26942EA86320F
:100FF000AA60EA6842F08062EA60227812F0140F78
:101000001CD0EA685B1C042B4FF0020942F08042BE
:10101000EA60EA6828BF1B1F42F00042EA6000F164
:10102000180252F82350EA68002A07D5183050F801
:101030002A00C16821F00041C160C9E00A68DFF8F8
:10104000F8C12A60AA684FF0000E960B4A6842EA7F
:101050008632AA608A684AB111460A686A60AA683C
:101060004E680CEA020242EA064204E0C5F804E0D7
:10107000AA680CEA0202AA602278D60611D5EA68AC
:10108000266A22F4F00242EAC642EA60EE68E269A9
:10109000B60C42EA8646EE60EA6842F48022EA60D4
:1010A00017E0EE686268F60B42EAC636EE60267814
:1010B000F70705D5EE68626926F440361643EE6000
:1010C0002678B70605D5EE68226926F040661643F5
:1010D000EE602678770705D5AE68A26A26F440460A
:1010E0001643AE60EA6842F00052EA60EA6822F015
:1010F0008042EA6042F00042EA602278960705D515
:10110000EE68E26826F060761643EE600246084616
:1011100039E06668C90B46EAC131E9602178CF073A
:1011200029D5E968666921F44031314322E001683C
:1011300009F101092960A9684668890B46EA8131ED
:10114000A9608168002945D0084601686960A968DE
:1011500046680CEA010141EA0641A9602178CF0600
:10116000E968D6D5E669890C46EA8141E960E96813
:1011700041F48021E960E96841F00041E960E968F3
:1011800021F08041E960806898B35B1C042B02F178
:10119000180128BF1B1F51F82350E9680029C6D544
:1011A00002F11800002150F82A000FE0C3680AF18C
:1011B000010ABAF1040F23F00043C36002F11800E2
:1011C00028BFAAF1040A50F82A00491C4945EDD36A
:1011D00002200CE0C5F804E0A9680CEA0101BCE7B4
:1011E000A860E86840F08050E86000209362BDE8A5
:1011F000F0875FEA0800A86814BF40F0004020F0C4
:101200000040EDE7A80000580082024000D3CEFE67
:10121000C0E1E40000F8FF7F838004000080F8C094
:10122000F0FEFFFFFD87FFFFFE2FFFFF00C0FEFF68
:10123000EFEFC0FFFFFFC07FFFFF00C02DE9F841C7
:10124000A1B0002400F0F5FD0121DFF87C238DF82A
:10125000001007230192032101228DF808308DF838
:101260000B1068468DF80F20DFF860538DF80E40A4
:10127000DFF85C638DF801408DF80A408DF8094075
:10128000ADF80C4000F0ECFD0121DFF848238DF8AB
:10129000001003218DF80B100D23012101928DF810
:1012A000083068468DF80F408DF80E108DF80D400F
:1012B0008DF801108DF80A408DF809408DF80C402A
:1012C00000F0CEFD042000F0BEFDDFF80C0301218C
:1012D0002860DFF8F4022861603029724FF4C061A1
:1012E000E86028466E606961FEF7D6FF08B100F03D
:1012F00091FE0027DFF8E4824FF4BF6000237843BB
:10130000394608EB00022846FFF794F87F1C042FAB
:10131000F2D3342106F1080000F09AFE21204FF4A8
:101320004031B06006F14800F16106F16801B46136
:1013300000F091FE06F1480000F0A6FE06F148001C
:1013400000F005FF012827DD03284FF480414FF40A
:10135000005604D007D3052803D005D303E00026A8
:1013600001E0002600E00C4608A92846FFF7F7FA3E
:101370000E9608A90D942846FFF7BAFB04A9284643
:10138000FFF724FC012004A98DF811002846FFF77F
:10139000EBFB2846FFF76CF822B0BDE8F08110B5F2
:1013A00086B08F4CA06802220B2340F00100A060A1
:1013B000A16801F0010105910598A16841F00201C1
:1013C000A160A06800F0020005900599A06840F0B7
:1013D0000400A060A16801F0040105910598A168CE
:1013E00041F04001A160A06800F04000059005991F
:1013F00003927C480192002202928622049369465D
:10140000009200F0F3FE4FF40052694600927648D5
:1014100000F0ECFE322069460090744800F0E6FED1
:1014200042F6040069460090714800F0DFFE002299
:1014300007213D2000F0C0FC3D2000F0DAFC2068D0
:1014400040F400402060216801F4004105910598B6
:10145000226842F480322260216801F480310591D3
:101460000598226842F400322260216801F40031BC
:101470000091009806B010BDF8B5A1F10C0500F17F
:101480000804ADB2534E2A462146304600F0AAFF6A
:101490004F49002301F13C00CE630D644B4A4B647D
:1014A000CD600861A0790870E3794B70257A8D7062
:1014B000667A2D04CE70A77A45EA06650F71E47A44
:1014C00045EA032500234C71D2F800C0516047EA79
:1014D000042728430CF5407CCCF80070CCF80400BD
:1014E00044484360BFF34F8F0368434EC3F34E3409
:1014F000C3F3C90543F6E07000EA441040EA857082
:1015000030602846451E0028F4D12046441E00289D
:10151000EED1BFF34F8FBFF36F8F10460831BDE898
:10152000F440FEF7F8BF80B52848FFF7EDFA002039
:1015300002BD0020704713460A460146234880B585
:10154000FFF7B5F906E013460A4601461F4880B585
:10155000FFF7D8F908B14FF0FF3002BD00F074B8C2
:1015600038B5264D04462946FFF7B0F8291D204618
:10157000FFF759F800F0C7FF0128FBD000F0BDFFCE
:1015800000F0AAFF2A68696800F02CFF022000F032
:101590009DFF286880B200F094FF00F050FF00F03B
:1015A000AEFF0E49BFF34F8FC020154A11602031A6
:1015B000401EFBD1BFF34F8FBFF36F8F2046BDE8B6
:1015C0003240FFF79FB80000000004300002002006
:1015D000000000200040043000800240000204307F
:1015E000D84402580000025800040258000802586B
:1015F0000018025880ED00E074EF00E0A002002027
:101600005CEF00E070477047704770477047704765
:1016100080B5032000F0C3FB002000F07BFF08B181
:10162000012002BD00F096FF002002BD05490A68B6
:1016300022F4600202E00A6822F00202104308600D
:10164000704700000404005801484068704700BF1C
:101650007C0000202DE9F8430546DFF8BC723868AD
:10166000894600F00700484502D200F0A7F824D1CF
:101670002878DFF8A042810705D5A269E868120939
:1016800040EA0212A2612978CA0740F18380A36967
:10169000A86823F470630343A3616868022802D139
:1016A00021688A0308E0032802D121688A0103E047
:1016B000012803D12168CA0503D473E023685907C0
:1016C00070D5226941F28938D20840EAC20020610F
:1016D000FFF7BAFF0646686802280BD1206900F0C0
:1016E0003800102856D0FFF7AFFF801B4045F5D3D8
:1016F00003204DE003280AD1206900F038001828A3
:1017000048D0FFF7A1FF801B4045F5D3F0E7012843
:101710004AD1206900F0380008283BD0FFF794FF39
:10172000801B4045F5D3E3E72878410705D5A2693A
:10173000286922F070020243A26129780A0705D5C0
:10174000E369686923F070030343E3612978CA06FB
:1017500005D5E369A86923F4E0630343E3612978CD
:101760008A0605D5236AE86923F0700303432362E0
:1017700000F02EF8A169DFF8A421DFF8A431C1F34D
:101780000321515CC8401860002000F0C3FE002017
:10179000BDE8F283386800F007008145C4D200F04C
:1017A0000DF8C1D00120F3E7206910F0380FF1D017
:1017B000FFF74AFF801B4045F6D399E73968C9080F
:1017C00049EAC10139603A6802F007024A457047A8
:1017D00030B5504A5348116911F0380104D010292E
:1017E0000AD018290AD06EE013689C066CD51168DF
:1017F000C1F3C101C84030BD4B4830BD946A916A05
:10180000D56AC1F30513516B05F00105C1F3CC0195
:101810004D4314F0030400EE105AB8EE400A02D013
:10182000022C27D028E01468DFED390A20EE200AC8
:10183000A10608D51168C1F3C101C840B0FBF3F09F
:1018400000EE900A04E00146B1FBF3F100EE901ABD
:10185000106BF7EE001AF8EE600AC0F3080001EE14
:10186000100AB8EE411A31EE000A70EE211A20EE8D
:10187000A10A19E02C4900E02C49106BDFED241A75
:10188000B1FBF3F100EE901AC0F30800F8EE600A25
:1018900001EE100AB8EE411A00EE211AB7EE000A66
:1018A00031EE000A20EE800A106BC0F34620401C87
:1018B00000EE900AF8EE600A80EE200ABCEEC00A44
:1018C00010EE100A30BD194830BD10B501F0E8FA2D
:1018D0001749124A0968174C01F00F01535CD840B0
:1018E000206010BD80B5FFF7F0FF00F00DF8C1F3E8
:1018F000021106E080B5FFF7E8FF00F005F8C1F33C
:101900000221515CC84002BD0B49044A0968704776
:10191000000000390044025800200052884E0008A0
:10192000880000200090D00340787D0100093D0030
:10193000184402588C0000201C440258F8B5054693
:10194000DFF834442878C1074DD5226902F0380207
:10195000102A09D0206900F03800182802BFA16AB7
:1019600001F00301022908D1226891033BD5686880
:10197000002840F00D810120F2BD6868B0F5803F7D
:101980000FD038B9216821F480312160206820F41B
:10199000802009E0B0F5A02F08D1216841F4802112
:1019A0002160206840F48030206007E0226822F443
:1019B00080322260216821F480212160686868B14A
:1019C000FFF742FE06462168880300F1E180FFF739
:1019D0003BFE801B6528F6D30320F2BDFFF734FEE3
:1019E00006462068810340F1D380FFF72DFE801B5F
:1019F0006528F6D3F0E7FFF727FE801B0328C0F029
:101A0000E680E9E7FFF720FE801B0328C0F019817C
:101A1000E2E7E86888B1216821F0190108432060F5
:101A2000FFF712FE06462068410700F1D480FFF759
:101A30000BFE801B0328F6D3CEE720684008400049
:101A40002060FFF701FE06462168480740F1CA8082
:101A5000FFF7FAFD801B0328F6D3BDE7E86980B1E4
:101A6000216841F080012160FFF7EEFD0646206805
:101A7000C10500F1D180FFF7E7FD801B0328F6D3F5
:101A8000AAE7206820F080002060FFF7DDFD064611
:101A90002168C80540F1C780FFF7D6FD801B0328E9
:101AA000F6D399E7606F400840006067FFF7CCFD10
:101AB0000646606F810740F1C880FFF7C5FD801BB7
:101AC0000328F6D388E7206820F480502060FFF7D1
:101AD000BBFD06462168880440F1CE80FFF7B4FDC7
:101AE000801B0328F6D377E7FFF7AEFD801B652840
:101AF000C0F0CD8070E708B9206F09E00528206F9D
:101B000006D140F004002067216F41F0010105E09B
:101B1000400840002067216F21F004012167A86878
:101B200041F2893660B1FFF78FFD0746206F8107CC
:101B300000F1BA80FFF788FDC01BB042F6D34BE737
:101B4000FFF782FD0746206F810740F1AD80FFF768
:101B50007BFDC01BB042F6D33EE7FFF775FD801B4F
:101B60000328C0F0B48037E7FFF76EFD401B032861
:101B7000C0F0FB8030E7FFF767FD0546216888016C
:101B800040F1F780FFF760FD401B0328F6D323E701
:101B90002878810726D5226912F0380F09D02069EC
:101BA00000F03800182804BFA16A11F0030F7FF479
:101BB00030AFE86821684A0701D500287BD021684A
:101BC00021F0190108432060FFF73EFD064620681A
:101BD00041077FF510AF6068296920F47C3040EA46
:101BE000013060602878C1061DD5226902F03802F4
:101BF000082A0AD0206900F03800182802BFA16A1C
:101C000001F0030101297FF429AF2068C10503D544
:101C1000EA69802A7FF4AFAE6068296A20F0F84054
:101C200040EA816060602A7811070ED56869002853
:101C30003FF438AF616F41F001016167FFF704FDC8
:101C40000646606F81077FF5DDAE2A78930613D5CF
:101C5000A86900283FF437AF216841F48051216022
:101C6000FFF7F2FC06462068810405D4FFF7ECFC80
:101C7000801B0328F7D3AFE62878410714D53F4FE0
:101C80003A6842F480723A60FFF7DEFC0646386834
:101C9000C1057FF529AFA86801287FF42CAF206F1C
:101CA00040F0010020673AE7686A002861D02169A6
:101CB00001F0380118293FF45EAE0228206820F0B8
:101CC000807020607FF457AFFFF7BEFC06462168A6
:101CD00088013FF542AFA26AA86A2949EB6A0A4027
:101CE000024342EA0312A262696B286BAA6B491E87
:101CF0004902401EC0F30800521E01F47E41120446
:101D00000843E96B02F4FE021043491E090601F084
:101D1000FE4108432063606BA96C6FF3CF0040EA7B
:101D2000C1006063E26A286C22F00C020243E262A6
:101D3000E16A686C21F002010143E162E16A41F469
:101D40008031E162E06A40F40030E062E16A41F42F
:101D50008021E162E06A40F00100E062216841F028
:101D600080712160FFF770FC0546206881017FF5D6
:101D7000FBAE0020F2BD00BF0044025800480258EC
:101D80000CFCFFFF0901020002D44848815470474F
:101D9000474A00F00F00131803F8041C7047454B26
:101DA0004FF6FF021968000200F4E060114008439A
:101DB000414908431860704738B53E4B1C68C4F36E
:101DC0000223C3F10704052C28BF04241D1D072D81
:101DD00034BF0023DB1E012505FA04F4641E2140F4
:101DE000994005FA03F35B1E1A401143BDE83440E5
:101DF000C8E7010008D4012200F01F0002FA00F039
:101E00002E4B490943F821007047401EB0F1807FF6
:101E100010B501D3012010BD294C0F2160604FF097
:101E2000FF30FFF7AFFF00220721A26000202160F2
:101E300010BDBFF35F8F23480022016821F4803179
:101E40000160026770471F4940F001000867086899
:101E500040F480300860BFF34F8FBFF36F8F70473F
:101E600010B54378184A13600178D9B144685460BA
:101E7000C37A017B447B1B0643EA0173817A43EA00
:101E8000C143817B43EA8443C47B43EA4143417AB3
:101E900043EA0443047A007843EA012343EA440313
:101EA000034301E051600023936010BD00E400E0B3
:101EB00018ED00E00CED00E00000FA0500E100E0A4
:101EC00010E000E024ED00E098ED00E038B500F00F
:101ED00038F84C490020086000F033F84A4A13688B
:101EE00043F40033136000F02CF81067BFF34F8FFA
:101EF000D36EC3F34E34C3F3C90543F6E07000EA72
:101F0000441040EA857008612846451E0028F4D137
:101F10002046441E0028EED1BFF34F8F106840F4D6
:101F20008030106000F00DF8FFF772FB00F00EF843
:101F300000F064FAFFF782F901F0BAF800F0D0FA85
:101F4000FCE7BFF34F8FBFF36F8F704718B5CBB06F
:101F50002E4C09A821464C2200F044FA01A8202169
:101F600000F076F81CA804F14C01BC2200F03AFA0B
:101F7000022001F07BFA002000902548016841F41E
:101F800040410160026802F44042009200990268F8
:101F90009304FCD5012202210C92002209912023F6
:101FA00012910421139232221491022115920422DB
:101FB000169109A817920C22189100210D931992DD
:101FC0001A911B91FFF7BAFC3F21032201910821CE
:101FD00002924022049140210592002306914FF481
:101FE000806208910221039301A80792FFF732FB58
:101FF000022100221C911CA8399200F0CFFA4CB0AB
:1020000010BD000050EF00E014ED00E0184D000896
:1020100018480258704730B4002513E050F8042BDC
:10202000D30744BFA9F101039A18091F042942F8F4
:10203000045BFAD213468C0744BF15809B1CC9076A
:1020400048BF1D7050F8041B0029E7D130BC704711
:10205000002201F02DBA002830B51CBFCC68002C3E
:1020600005D08B68002B1CBF0A69002A02D14FF0F3
:10207000FF3030BD0D6885604A68C260446103610D
:1020800009698161002030BDF8B500210546009145
:10209000686800260024002846D1A86800B180475F
:1020A00020206FF0040728606B696A4612213046D1
:1020B0009847002848BF3C4604D4009800F01F0011
:1020C000B04208D0761C1F2EEED928681F2805D9EB
:1020D0006FF0020434E02E600024F6E784BB2B6925
:1020E0004FF4004200219847002819D400F02AF844
:1020F000002813D4A8698047064601E06FF0010468
:10210000009908040FD5AA699047801B40F2F51189
:102110008842F3D200F016F80028F1D53C460FE0D3
:102120006FF003040CE05CB9A86980470646A96912
:102130008847801B40F2D1729042F8D3012068603A
:102140002046F2BD28686B696A46002118471CB515
:1021500000230446009300F044F8002823D400F044
:1021600040F800281FD40098410701D4012016BD73
:10217000206863696A4600219847002813D40098B4
:10218000C10409D400F40452B2F5045F17D08104ED
:102190001CD4C00523D520E0206863696A461F214E
:1021A0009847002802D56FF0040016BD0098C104BE
:1021B00001D4062016BD00F01C00182801D1022011
:1021C00016BD009800F01C00082801D1032016BDA0
:1021D000009800F01C00142801D1042016BD052031
:1021E00016BD206863696A46012118472DE9F84742
:1021F00002460B4600246E480F211D680127A740A8
:102200003D40BD4240F0C5805E684FEA8408022E22
:1022100018BF122E12D1E60802EB860C08F01C063D
:1022200001FA06F9DCF820E0D3F810A02EEA090E36
:102230000AFA06F646EA0E06CCF82060166893F80D
:1022400004904FEA440C4FF0030E0EFA0CFE6FEAB6
:102250000E0E0EEA060609F0030909FA0CF949EA1E
:10226000060616605E68012E18BF022E03D0112EDE
:1022700018BF122E12D19668D3F80C900EEA0606FB
:1022800009FA0CF949EA06069660566826EA070735
:102290005E68C6F30016A64037435760D7680EEA5B
:1022A00007069F6807FA0CF73E43D6605E68F600A3
:1022B0006FD50768DFF8FCC008F00C0801FA08FECB
:1022C00047F002070760066806F002060096009FC6
:1022D000A7085CF8276026EA0E0E374EB24208BF08
:1022E00000262CD0354EB24208BF012627D0344EEE
:1022F000B24208BF022622D0324EB24208BF0326A5
:102300001DD0314EB24208BF042618D02F4EB24223
:1023100008BF052613D02E4EB24208BF06260ED0A7
:102320002C4EB24208BF072609D02B4EB24208BF3E
:10233000082604D0294EB2420CBF09260A2606FA06
:1023400008F646EA0E064CF82760DFF894C0DCF881
:1023500000706FEA05085E6808EA0707F60348BFE1
:102360002F4300F01CF8B60348BF2F43CCF804708D
:102370004FF0B04CDCF800705E6808EA0707F60220
:1023800048BF2F4300F00BF8B60248BF2F43CCF8EC
:102390000470641C0F2C7FF630AFBDE8F187CCF8D9
:1023A0000070DCF804705E6808EA070770470000F8
:1023B000F44402580804005800000258000402586F
:1023C00000080258000C025800100258001402586D
:1023D00000180258001C025800200258002402581D
:1023E000800000584AB1000011F8013B521E00F86D
:1023F000013B1CBF11F8013BF8E7704710B543489B
:102400004FF0105181600022C160414C2144428054
:1024100082800161027010BD70B53C4CA588668851
:10242000AE420AD200F032F8761CB0B2A84204BF25
:102430000026A6806680012070BD002070BD38B5E2
:10244000324CA588962D0BDA00F02EF8E0680021BA
:102450006D1C00F5C860418001700120A58032BD6F
:10246000002032BD10B500F5C8642178012905D1DE
:102470006188FFF701F80022628010BD022904D1B3
:10248000618800F0F5FE0020608010BD1F48816863
:10249000036901F5C9629A4234BF01F5C9614FF081
:1024A00010518160084670471848C168036901F5FA
:1024B000C9629A4234BF01F5C9614FF01051C16041
:1024C00070471249CA68A2F8420670470F49CA68A5
:1024D00082F840067047000000BF0C48C068704793
:1024E0000A488068B0F84216002900D1704780B5CC
:1024F000FFF7B8FFBDE801408EE7012000E00020B3
:102500000249087070470148007870478C0200202B
:1025100030AE030038B50D4D04462A780C4B1868D0
:102520004FF47A71B1FBF2F2B0FBF2F0FFF76DFC01
:1025300050B9102C08D2002221464FF0FF30FFF78F
:102540003BFCAC60002032BD012032BD7C0000208D
:102550008800002081B00E48016841F0020101604E
:10256000006800F002000090009901B0704781B04F
:1025700000680849884209D10748026842F40022ED
:102580000260006800F400200090009901B07047DC
:10259000F4440258004C0258E04402582DE9F04738
:1025A000044600262068B046DFF8F058010122D525
:1025B000626E4AB1B2F5801F0BD0B2F5001F15D084
:1025C000B2F5401F09D014E0EB6943F40033EB612E
:1025D00005E0022100F08BFB064630000AD1296C91
:1025E000606E21F440110143296404E000F081FB96
:1025F000F2E70126B0462068C1051DD5626D042AA8
:1026000017D8DFE802F0030E1205050000F065FBA5
:1026100030000FD1296C606DC90840EAC1012964FE
:102620000AE000F063FB0646F2E7002100F05BFBE6
:10263000F9E7012646EA08082068810521D5A26D40
:102640004AB1402A12D0802A14D0C02A18BFB2F54D
:10265000807F02D012E000F040FB30000FD1296CE7
:10266000A06D21F4E071014329640AE000F03EFB13
:102670000646F2E7002100F036FBF9E7012646EABC
:102680000808206804F18407410524D53A6A62B13C
:10269000B2F5001F14D0B2F5800F15D0B2F5C00FFF
:1026A00018BFB2F5000F02D012E000F016FB3000A8
:1026B0000FD1A96C386A21F460010143A9640AE0D2
:1026C00000F014FB0646F2E7002100F00CFBF9E7EE
:1026D000012646EA08082068010524D57A6A62B115
:1026E000B2F1807F14D0B2F1007F15D0B2F1407FFB
:1026F00018BFB2F1806F02D012E000F0EEFA3000A5
:102700000FD1A96C786A21F0E0610143A9640AE065
:1027100000F0ECFA0646F2E7002100F0E4FAF9E7EF
:10272000012646EA0808206881011BD5A26C42B147
:10273000102A04D0202A0DD0302A02D00FE000F059
:10274000CCFA30000CD1E96BA06C21F030010143D0
:10275000E96307E0022100F0CAFA0646F1E7012624
:1027600046EA08082068C10424D5E26D62B1B2F5DA
:10277000805F14D0B2F5005F15D0B2F5405F18BF8E
:10278000B2F5804F02D012E000F0A7FA30000FD16E
:10279000296CE06D21F4E041014329640AE000F076
:1027A000A5FA0646F2E7002100F09DFAF9E70126B6
:1027B00046EA08082068810423D5226E92B1B2F55A
:1027C000803F0BD0B2F5003F15D0B2F5403F1CBFA3
:1027D000B2F5802FB2F5A02F04D00FE0012100F058
:1027E00086FA064630000AD1296C206E21F4E021D9
:1027F0000143296405E000F075FAF2E7012646EA94
:1028000008082068410423D5BA6A92B1B2F1805F0A
:102810000BD0B2F1005F15D0B2F1405F1CBFB2F136
:10282000804FB2F1A04F04D00FE0012100F05FFA19
:10283000064630000AD1A96CB86A21F0E041014394
:10284000A96405E000F04EFAF2E7012646EA08081E
:10285000206801041BD5E26E42B1B2F1805F03D063
:10286000B2F1005F0BD00FE000F037FA30000CD16E
:10287000296CE06E21F040510143296407E00121F9
:1028800000F035FA0646F1E7012646EA0808206816
:10289000C10119D5626C032A13D8DFE802F00402E3
:1028A0000D0400F01AFA30000CD1E96B606C890855
:1028B00040EA8101E96307E0022100F018FA0646C8
:1028C000F1E7012646EA08082068410222D5DFF830
:1028D000F895D9F8002042F48072C9F80020FEF77C
:1028E000B3FE8246D9F80000C10500F1C581FEF7AC
:1028F000ABFEA0EB0A006528F4D308E0FEF7A4FEC7
:10290000A0EB090041F289318842C0F0D38103264F
:1029100046EA08082278D10726D5A06F68B10828B2
:1029200007D010281AD018281CBF2028282804D027
:1029300017E0012100F0DBF90646300012D1696C86
:10294000A06F21F03801014369640DE02960286E11
:10295000F96AC1F30B0108432866DBE700F0C2F90E
:10296000EAE7012646EA080821788A071AD5606F47
:10297000052814D8DFE800F0070310070707012136
:1029800000F0B5F9064630000AD1696C606FC908DD
:1029900040EAC101696405E000F0A4F9F2E701260C
:1029A00046EA080821784A071AD5F868052814D895
:1029B000DFE800F0070310070707012100F097F98F
:1029C000064630000AD1A96CF868C90840EAC1017E
:1029D000A96405E000F086F9F2E7012646EA080856
:1029E00021788A0622D5B86888B1B0F1805F0BD013
:1029F000B0F1005F14D0B0F1405F1CBFB0F1804F68
:102A0000B0F1A04F03D00EE000F070F906463000A0
:102A10000AD1696CB86821F0E0410143696405E0BE
:102A200000F067F9F2E7012646EA080821784A062D
:102A300022D5786988B1B0F5806F0BD0B0F5006F02
:102A400014D0B0F5406F1CBFB0F5805FB0F5A05F4B
:102A500003D00EE000F04AF9064630000AD1A96C16
:102A6000786921F4E0510143A96405E000F041F9DF
:102A7000F2E7012646EA080821780A0622D5B86955
:102A800088B1B0F5005F0BD0B0F5804F14D0B0F531
:102A9000C04F1CBFB0F5004FB0F5204F03D00EE083
:102AA00000F024F9064630000AD1A96CB86921F477
:102AB00060410143A96405E000F01BF9F2E701263B
:102AC00046EA080821780A070ED5D4F88000B0F548
:102AD000805F04D100F00DF940EA080804E0696C59
:102AE00021F44051084368642078C1060DD5386947
:102AF000B0F5807F04D100F0FCF840EA080804E05B
:102B0000A96C21F440710843A864206801031AD518
:102B1000FA6932B1B2F5803F0FD0B2F5003F03D071
:102B20000EE000F0E3F8064630000AD1A96CF8691F
:102B300021F440310143A96405E000F0DAF8F2E73E
:102B4000012646EA080821684A031ED53868B0F510
:102B5000801F06D0B0F5001F10D0B0F5401F04D084
:102B600010E0E96941F40031E96130000BD1696C92
:102B7000386821F440110143696406E000F0B2F8BE
:102B80000646F2E7012646EA08082168CA031AD574
:102B9000E06C18B1B0F5803F0DD011E0E96941F467
:102BA0000031E96130000CD1E96BE06C21F4803137
:102BB0000143E96307E0022100F099F80646F1E7D6
:102BC000012646EA080821688A0003D500F091F83A
:102BD00040EA08082068810319D5E26F5AB1B2F5BE
:102BE000807F06D0B2F5007F18BFB2F5407F02D0DB
:102BF0000AE000F072F8300007D1696CE06F21F450
:102C000040710143696402E0012646EA080822682F
:102C1000D00205D5296C206F21F0004101432964C1
:102C20002168CA0005D52B68386B23F48043034321
:102C30002B6021688A0205D52B6CA06E23F080736F
:102C400003432B6421684A0007D52B6823F4004313
:102C50002B602968786B014329602268002A05D51A
:102C6000EB6B206D23F040530343EB635FEA0800F6
:102C700018BF0120BDE8F08730007FF449AE286E10
:102C8000F96A00F4407001F4407188420BD0286E5C
:102C9000296E41F4803129662A6E20F4407022F4B6
:102CA00080322A662866F86AB0F5807F06D1FEF782
:102CB000CBFC8146286E81077FF520AEF86A296833
:102CC00000F44072B2F5407F21F47C5104D1DFF86A
:102CD000782302EA1012114338E6E86940F4003024
:102CE000E8617047012104F124003CE10021201D2E
:102CF000ECE0022104F1240035E180B5FEF7E5FDAA
:102D0000DFF85813DFF858230968C1F30211515C4A
:102D1000C84002BD30B500F07AF8C1F30533D16B7D
:102D200005F0100500F079F802D0022C06D008E07A
:102D300000F09AF8916B00F042F807E0DFF80C43DE
:102D400001E0DFF81043916B00F04AF8916B00F05E
:102D50007CF8916B00F06BF8916B22E030B500F0DD
:102D600056F8C1F30553516C05F4807500F055F821
:102D700002D0022C06D008E000F076F8116C00F0CA
:102D80001EF807E0DFF8C44201E0DFF8C842116C2A
:102D900000F026F8116C00F058F8116C00F047F8BC
:102DA000116CC1F30661491C00EE901AF8EE600A3E
:102DB00080EE200ABCEEC00A80ED020A30BDF7EEBC
:102DC000001AF8EE600AC1F3080101EE101AB8EE1D
:102DD000411A31EE000A70EE211A20EEA10A704766
:102DE000DFED381AB4FBF3F300EE903AC1F30801BB
:102DF000F8EE600A01EE101AB8EE411A00EE211A40
:102E0000B7EE000A31EE000A20EE800A7047DFF8C4
:102E10005422946A916AD56A7047C1F3CC014D433C
:102E200014F0030400EE105AB8EE400A7047C1F3E4
:102E30000641491C00EE901AF8EE600AC0EE200A26
:102E4000FCEEE00AC0ED010A7047C1F34621491CBF
:102E500000EE901AF8EE600AC0EE200AFCEEE00ADE
:102E6000C0ED000A704700001468DFED160A20EE7E
:102E7000200AA1060AD51168DFF8D451C1F3C101B7
:102E8000CD40B5FBF3F100EE901A7047DFF8C0417A
:102E9000B4FBF3F300EE903A704700001044025880
:102EA00080B5FEF795FCDFF8B011DFF8B4310968A2
:102EB000DFF8B421C1F30321595CC84010601068E9
:102EC00002BD00000000003900480258F8B500F0CB
:102ED000B2F801D10120F2BD286820F0806000F036
:102EE0008FF807462968080120D5FEF7ADFBC01B07
:102EF0000328F7D30320F2BD012C04D1E86A40F483
:102F00008010E86203E0E96A41F40011E962286890
:102F100040F0806000F074F804462968080120D46D
:102F2000FEF792FB001B0328F7D3E3E7A86A31689A
:102F300020F47C3040EA013000F065F8A863E96ACB
:102F4000706921F0C0010143E962E96AB06921F0CA
:102F500020010143002CE962CED1E96A41F400214D
:102F6000D4E70020F2BDF8B500F065F801D10120EA
:102F7000F2BD286820F0805000F042F8074629682A
:102F8000880020D5FEF760FBC01B0328F7D3032081
:102F9000F2BD012C04D1E86A40F40000E86203E0CD
:102FA000E96A41F08071E962286840F0805000F0E1
:102FB00027F804462968880020D4FEF745FB001B4B
:102FC0000328F7D3E3E7A86A316820F07C7040EA71
:102FD000015000F018F82864E96A706921F4406132
:102FE0000143E962E96AB06921F400710143002CF0
:102FF000E962CED1E96A41F48001D4E70020F2BD54
:103000002860FEF721BBA862B1687068F268491EAB
:103010004902401EC0F30800521E01F47E41120412
:103020000843316902F4FE021043491E090601F00B
:10303000FE410843704706460A4DA86A0C4600F058
:103040000300032870470000CFFFFF0040787D0198
:103050000090D00300093D00184402582044025853
:10306000884E0008004402588800002010B5DFF8A0
:10307000B00300214160BFF34F8F0168DFF8A44324
:10308000C1F34E32C1F3C90343F6E07000EA4210C7
:1030900040EA837020601846431E0028F4D1104691
:1030A000421E0028EED1BFF34F8FBFF36F8F10BDCC
:1030B000F0B589B0DC4801680023002441F001012B
:1030C0000160026802F0010200920099026942F474
:1030D00000320261016901F400310091009A8168B7
:1030E000D24A41F008018160806800F00800009039
:1030F0000099CF48838043618361012302600362AA
:1031000000F0F0F908B1FEF785FFFEF792FE01210D
:103110004FF010528DF8001003218DF80B10122380
:10312000012101928DF8083068468DF80F408DF826
:103130000E108DF80D408DF801108DF80A408DF8B5
:1031400009408DF80C40FEF78BFE0420FEF77BFE55
:1031500018210694079401220491B64C059204A903
:103160002046FFF743F860210222049103210592D3
:10317000012307910722069304A908922046FFF72E
:1031800035F8AD49AD4CAE486160206000220C219D
:10319000A260E260204622616161A261E261226276
:1031A0006262A262E2622263626300F051FA08B1D5
:1031B000FEF730FF2B20A34DA34E002168604FF493
:1031C00080672E602846A960E9602F616961A96166
:1031D000E9612962696201F095F808B1FEF71AFF0A
:1031E00006F1180005F1840665672C21A867002008
:1031F00040223060B060F06030617061B06105F114
:103200007800AC63E967C5F88020776001F07AF850
:1032100008B1FEF7FFFE05F1780010212067262097
:10322000F4622268116200220021FEF7C5FD26200B
:10323000FEF7DFFD002201210B20FEF7BDFD0B2074
:10324000FEF7D7FD002200210C20FEF7B5FD0C2073
:10325000FEF7CFFD83A07D49D0E90023C1E900231B
:103260004FF4C8627A49204600F044F809B0F0BD36
:10327000F8B50D46754C03462146BFF34F8F3220FB
:10328000744A11602031401EFBD1BFF34F8FBFF352
:103290006F8F2A46194604F108006F4EFFF7A2F817
:1032A000294604F1080000F020F8306000200321D6
:1032B0006219C3B21A44CBB2F75C401C491E1772A4
:1032C000C2B2042AF4DB0C355C4E96F87900202853
:1032D000FBD11821614A1180FFF7C8FEAAB221462E
:1032E0003046BDE8F84000F0F3B90A4601465048C0
:1032F00000F034B970B504460D46164694F87900CE
:103300002028FBD11821564A118020684FF4C8614B
:10331000036843F010030360284601F00BFC3246BB
:1033200029462046BDE8704000F00EBA10B50446AC
:10333000FFF79CFE20464FF4C8624549BDE81040A7
:10334000D8E7704770472DE9FC4105460022686FB9
:103350003F4E00684068ADF802002846ADF80020F6
:1033600000F035FA284600F069FA2868016821F073
:1033700010010160BDF80220C2F5C862ADF800205E
:10338000BDF8000038B3BDF8001040F2FB52914286
:1033900021DABDF800000C281DDB374604240FF2AB
:1033A000C4083878AA2806D108224146384601F0D8
:1033B000C5FB30B10FE0BDF800007F1C411EADF829
:1033C0000010641EEDD1BDF8001007F108000839A7
:1033D000FFF78BFF48B1FFF749FE3146284602B0A0
:1033E0004FF4C862BDE8F04184E7FFF78CF801288C
:1033F000FBD0FFF782F8BDF80040FFF76DF83946C3
:103400002246FEF7EFFF0120FFF760F8BDF800004D
:10341000FFF757F8FFF713F8FFF771F8DBE7000045
:1034200080ED00E074EF00E0D8440258004C0258F0
:1034300068020020000C0258404B4C008001002024
:1034400000440040900000201000024000B7032418
:1034500000B003245CEF00E0B0020020180C02581A
:103460001A0C0258AAAAAAAAAAAAAAAB38B5DFF8C7
:103470003C40A168C90840EAC100A060FEF7E4F83A
:1034800005462068810409D4A268500706D5FEF7D6
:10349000DBF800F005F8F4D3032032BD002032BD84
:1034A000401B40F2E931884270470000044802584E
:1034B00000B500BF130096469446103928BFA0E817
:1034C0000C50FAD85FEA417C28BF0CC048BF40F8D6
:1034D000042BC90728BF20F8022B48BF00F8012B96
:1034E00000BD000010B504001FD0617F19B9002293
:1034F0002277FFF73CF802216177207970B92268C2
:10350000154951612068836823F01803836060794E
:1035100068B922684FF0FF3111610BE0E268A168E1
:10352000204601F01AFB0028F1D0012010BD2168CF
:103530002069086121688A68606922F0600202439C
:103540008A6021688A68A06922F080020243002014
:103550008A600121617710BDB71DC10470B50446B2
:103560000023257F0020012D01D1022070BD0126FE
:103570000225267765772568AE6846F00106AE60BD
:10358000256A012D07D012D3032D0CD03CBF204655
:1035900000F046F80BE0204600F00EF807E051F886
:1035A00023605B1C066093422068F8D30068012109
:1035B00000226177227770BDF0B500230CE06678B9
:1035C000257807685B1C360446EA0566A578E4782A
:1035D00046EA052626433E60B3EB920F01EB8304D7
:1035E000EDD312F0030218D0012A03D1026821782A
:1035F000117012E0022A06D161782378026841EA4C
:103600000321118009E0032A07D162780168237839
:1036100042EA03220A80A4780C7000680068F0BDBA
:10362000F0B5002308E001EB830631F823505B1C62
:10363000778847EA05472760B3EB520F0468F2D357
:10364000D00744BF31F8231021802068F0BD00006E
:1036500038B5040009D004F17805697809B900F09B
:103660001FF800F022F8012801D1012032BD606B63
:1036700008B100F02AF800F00BF822F02A0282606C
:1036800000F01DF8FFE72046BDE8324000F0E8BC3E
:103690002068416821F49041416020688268704749
:1036A00000202870204600F02BBE2421697020687D
:1036B0000268520852000260204600F0FFB92068FC
:1036C000016841F0010101607047204600F064BCD0
:1036D000F8B5044604F16005687E1346202831D110
:1036E00009B1180001D10120F2BD287E012829D09E
:1036F000012200202A76DFF81C28E16521212B8099
:1037000000266B80E86169762869DFF80C18C263CF
:103710002A69DFF8080811642969C8642869066500
:103720002768E16D286907F1280200F0C2FE2168D0
:10373000402008622E762068816841F08001816017
:103740000020F2BD0220F2BD70B5044604F1680508
:10375000A87C1346202838D109B1180001D10120D6
:1037600070BD287C012830D0012200202A74DFF8A7
:10377000B027616622212B8000266861A974E86861
:10378000DFF8A017C263EA68DFF890071164E96800
:10379000C864E86806652668626EE86806F1240178
:1037A00000F087FE002028742068016841F48071D1
:1037B00001602068826842F00102826020688168AE
:1037C00041F040018160002070BD022070BD38B51D
:1037D000044604F17905287821280FD120688168F2
:1037E0000A060BD5836823F080038360206F08B13D
:1037F00000F0C9FE00F018F8202028706A78222A0C
:103800000BD100F017F808D500F009F8606F08B187
:1038100000F0B9FE204600F080FC002032BD836835
:1038200023F04003836070472068016821F0C001E5
:1038300001607047206881684A06704770B5054688
:1038400005F1700628680124016821F4B071016057
:10385000296800F049F8306840B129688A68130681
:1038600047BF0FF6B511016500220265706840B1CF
:1038700029688A68530647BF0FF6BD11016500220B
:103880000265286881680A060DD5836823F08003E5
:103890008360306838B100F0E4FE00281DBF0020CE
:1038A000316808650024286881684A060AD5FFF750
:1038B000B6FF706830B100F0D4FE98B17168002096
:1038C000086500E074B105F16200002101800F235A
:1038D00001812022F160296828460B627272B2725F
:1038E00001F05FF9002070BDDFF83C068A680240F5
:1038F0008A607047F8B5044604F174052168CA6906
:103900000B688E6812F00F000AD1900670D59F06E2
:1039100001D4F0006CD52046BDE8F24000F0ACBC0C
:10392000DFF80806064208BF13F4907F60D0D7077F
:1039300007D5DF0505D501270F62A96841F0010110
:10394000A960970708D5F10706D5276802213962D3
:10395000A96841F00401A960570708D5F10706D509
:10396000276804213962A96841F00201A96017079C
:103970000AD5990601D4064206D027680820386285
:10398000A96841F00801A960A86800282FD0910615
:1039900006D5980601D4F10002D5204600F06CFC53
:1039A000A868010703D42268906841061AD520460A
:1039B00000F0B3FBFFF73EFF0FD500F079F860B1E0
:1039C0000FF645010165286800F04BFE00286ED017
:1039D0002868016DBDE8F44008472046BDE8F24084
:1039E000FFF7B0BC2046FFF7ADFC0020A860F1BD9A
:1039F000D7020CD570020AD54FF4801220460A6215
:103A000020216971A971BDE8F24001F0CBB8170619
:103A100036D5180601D4360232D56A79212A46D124
:103A2000B4F8620088B90A68930004D5886820F465
:103A30000000886003E00A6822F080020A602068C3
:103A4000016841F040010160F1BDA268B2F5805FFC
:103A500004BF2069002808D1E26D1388C3F308036E
:103A60000B85E06D811CE16504E0E06D421CE265C0
:103A700000780885B4F862104A1EA4F86220F1BDEF
:103A800050060CD55E060AD50A68202022F04002B6
:103A90000A6068712046BDE8F240FFF747BC120299
:103AA00005D5580003D50B6823F080430B60F1BDAA
:103AB000836823F040038360286870472DE9F8434A
:103AC00086B0DFF86C6480250446216800208146BA
:103AD0000F68A2682369374066691743E2691F438C
:103AE000A36A374317431F430F604E68E26826F40A
:103AF00040561643DFF83C244E609142A769A66AFF
:103B00001CBF236A1F43B6F1005F03D1E36A266B33
:103B100033431F438E68DFF820340FF2CC783340F4
:103B20001F438F60CE6A636ADFF81074360943EA78
:103B30000616DFF80C349942CE62DFF8086402D131
:103B400067E0042540E0DFF8003499420AD100F034
:103B50001EFA39D8DFE803F0920304142537F0E7A2
:103B6000402531E0DFF8E43399420BD100F00FFA41
:103B70002AD8DFE803F0830403051628F0E7E0E71E
:103B8000082521E0DFF8C83399420CD100F0FFF995
:103B90001AD8DFE803F0730504030618F0E7DFE73F
:103BA000CFE7102510E0DFF8AC3399422DD100F0BB
:103BB000EEF909D8DFE803F0620605040307F0E731
:103BC000DEE7CDE7BDE72025914240F0E580022DFC
:103BD0000DD0042D68D0082D00F06E80102D00F05F
:103BE0007680202D00F07580402D61D08BE1FFF7AD
:103BF00084F8002800F08981626802EB4201884263
:103C000002D31303834267D27DE1DFF84C3399423C
:103C100010D17B6D13F038030AD0082B1BD0102B6A
:103C20009ED0182BACD0202BBBD0282BCBD0CBE7F1
:103C30000125C9E7DFF8243399420DD100F0A7F937
:103C4000C2D8DFE803F01B0807060504BCE7BAE7A3
:103C5000A7E795E784E774E7DFF8043399420FD1CB
:103C600000F095F9B0D8DFE803F00908070605046D
:103C7000AAE7A8E795E783E772E762E70025A3E7ED
:103C80009142A1D1BB6D03F00703052B9CD8DFE85F
:103C900003F009080706050496E794E781E76FE754
:103CA0005EE74EE70225A2E700F06EF90498A0E770
:103CB00000F067F901989CE73868810605D53868F7
:103CC000C0F3C10126FA01F093E7304694E7A54816
:103CD00092E74FF400408FE7022D0AD0042D0DD05B
:103CE000082D1CD0102D2FD0202D3ED0402D0BD0D4
:103CF00049E0FFF702F8D4F824C00AE000F044F9E4
:103D0000D4F824C0049804E000F03BF9D4F824C0AF
:103D10000198626838F81C60B0FBF6F61BE0D4F836
:103D200024C00021002338F81C003D68AD0603D5EF
:103D30003D68C5F3C107FE40B6FBF0F6370E36020C
:103D400016EB520079410DE0D4F824C0854B38F8C9
:103D50001C60B3FBF6F65008002110EB062051EB77
:103D60001661002300F020FF0FE0666A4FF4004167
:103D700038F81600B1FBF0F080B2510801EB0021D9
:103D8000B1FBF2F001E04FF00109A0F54072764B73
:103D90009A4272D22168B4E0E269B2F5004F5FD175
:103DA00065B1012D0DD0042D19D0082D21D0102D75
:103DB00032D0202D3DD0402D16D046E0FDF792FDAB
:103DC00001E0FDF797FD626A616838F81230B0FBD8
:103DD000F3F04E0806EB4006B6FBF1F037E000F0DA
:103DE000D3F86068049919E000F0CBF86068019995
:103DF00014E0606A616838F810003B684A089B0666
:103E000003D53B68C3F3C103DE40B6FBF0F002EB21
:103E10004002B2FBF1F01AE060685249626A38F879
:103E20001230B1FBF3F3410801EB4301B1FBF0F0B9
:103E30000DE0616A606838F81130B2FBF3F34208B4
:103E400002EB4302B2FBF0F001E04FF001094FF644
:103E5000F0710140C0F3420001432068C16054E0AA
:103E600065B1012D0DD0042D1BD0082D27D0102DAC
:103E700037D0202D38D0402D1AD044E0FDF732FD48
:103E800001E0FDF737FD626A6168246838F8123096
:103E9000B0FBF3F000EB5100B0FBF1F189B2E1604F
:103EA00033E000F071F8626A049900F05FF827E0EF
:103EB00000F067F8626A019900F058F820E0626A41
:103EC00038F8120062683C68A30603D53C68C4F366
:103ED000C104E640B6FBF0F000EB5203B3FBF2F096
:103EE0000EE060681F4A02E060684FF40042636AB7
:103EF00038F81340B2FBF4F404EB5004B4FBF0F0D8
:103F000080B2C86001E04FF00109484607B0BDE843
:103F1000F08300003741000863410008AF4100080A
:103F200069410008A9410008FEFF7FEF0100001071
:103F3000F369FFCF000C0058FFF4FF110044025852
:103F4000001001400090D0030044004000480040B1
:103F5000004C004000500040001401400078004038
:103F6000007C004000093D0000FD0F00606838F84B
:103F70001230B1FBF3F303EB50032168B3FBF0F015
:103F800070476846FEF7EABE03A8FEF7C3BE7B6D26
:103F900003F00703052B704710B590F83410CA07DB
:103FA00006D502685368816B23F400330B435360DA
:103FB00090F83420910706D502685368C16B23F44A
:103FC00080330B43536090F83420510706D50268C4
:103FD0005368016C23F480230B43536090F8342022
:103FE000110706D502685368416C23F400430B4364
:103FF000536090F83420D10606D502689368816C2E
:1040000023F480530B43936090F83420910606D537
:1040100002689368C16C23F400530B43936090F8DB
:104020003420510610D502685368016D23F48013C3
:104030000B435360036DB3F5801F05D15468416D88
:1040400024F4C0040C43546090F83420110606D5C3
:1040500001684A68806D22F4002202434A6010BD64
:10406000F8B5044604F1780500206FF07E476860DB
:10407000FDF7EAFA216806460868020708D50097A6
:10408000334600224FF40011204600F017F860B9C3
:10409000206801684A070AD50097334600224FF48A
:1040A0008001204600F00AF808B10320F2BD20206C
:1040B00000226870A87000202A70F2BD2DE9F0413E
:1040C00005460E4690461F46069C2868C169314049
:1040D000B1420CBF0120002040451BD114F1010F5B
:1040E000F3D024B1FDF7B0FAC01B8442EDD22868AA
:1040F0000023016821F4D0710160286820218268C2
:1041000052085200826005F178004170817003709E
:10411000032000E00020BDE8F08101680A6822F475
:1041200090720A6001688B685B085B008B602021DD
:1041300080F87A107047816BC069B0F5807F04BF4A
:104140000846FFF7F3B80022A1F8622008688368E8
:1041500023F0800383600868016841F0400101603A
:104160007047806B00F0A3BD10B5816BC069B0F5DE
:10417000807F14D001F16A00002202800A6813686F
:1041800023F4807313600A68946864086400946080
:104190000A68936823F04003936020220274084663
:1041A000BDE81040FFF7CDB8806B00F081BD70B561
:1041B000846B00F00BFC022825D004F16200C17D65
:1041C00021290BD121688A68130607D500250580AF
:1041D0000E6826F0C0060E602021C175027E222ADC
:1041E00008D121688B685A0604D500210181204638
:1041F000FFF793FFE06F40F01000E0672046BDE856
:104200007040FFF79FB870BD806B002200F1620123
:104210000A810A80FFF796B838B5806B002100F15B
:10422000700213681965516800291CBF096D0029C7
:1042300000D110E031BD000038B5806B002100F1E5
:10424000700253681965116800291CBF096D0029A7
:1042500000D100E031BD00F1620100230B800F2589
:104260000B812024D36003681D6254729472BDE8F0
:10427000324000F096BC000038B500F16A020168D7
:104280005388147C222C28D18C8C8568B5F5805FEE
:1042900004BF0169002906D12340446E2380416E8A
:1042A0008B1C436604E0416E23404D1C45660B7039
:1042B0001188491E118089B269B901680B6823F41D
:1042C00090730B6001688C68640864008C60202126
:1042D0001174FFF736F8002032BD088B40F008005B
:1042E0000883022032BD0000010002000400060025
:1042F00008000A000C0010002000400080000001AF
:1043000070470000F8B50446FDF79EF9064634B341
:104310002368DFF8D41740F2A94204F13405C91824
:10432000914213D20020022728706F701968490843
:104330004900196023681868C10740F17980FDF7CA
:1043400083F9801B0628F5D3202005E0DFF89C6761
:10435000F0188D281FD340202862032169700120A6
:10436000F2BDB0F5005F0AD1032E00F29280DFE8C3
:1043700006F00D0A0D02B1F1C07F7AD106E0022EDF
:1043800004D9F61E75D1C80140F183804021012275
:10439000296201204AE000200221287069701F680C
:1043A000A06840286FF30E1708BF102004D08028A3
:1043B0000CBF4FF4804000200743E0682269616928
:1043C0001043E2690143A069084347EAD007D208D5
:1043D00002F02002206A1743142247EA10171F60D8
:1043E00021687618B6FBF2F29200AA62204600F02D
:1043F00039FBA068802804BF00216160E96A207948
:104400000860286B6A6B4260606838B1092805D281
:10441000204600F04CFB00F045F803E00021A963C2
:10442000E963296400210122296200206A70F2BD3B
:104430001E68A068DFF8B816E2680E4021690643DE
:1044400060691643A2690E43E1690643206A164378
:10445000626A0E430643042A03D1E16A206B0143DA
:104460000E431E6023685A69606AD20840EAC2029D
:1044700004280ED1A66AE16A324351B1A06900282E
:104480007FF46FAF002E18BF022E3FF47CAFFFF415
:1044900072AF5A61204600F0D1FAA96A3F228A40E1
:1044A0008260A3E7A96B00200860E86B2A6C426079
:1044B00070472DE9F843044600250CB9012059E066
:1044C00004F134063078012808BF022052D00127B9
:1044D00037707078012847D10220DFF80C867070A1
:1044E00040F2A949356200F047F8206808EB000166
:1044F0004945026810D222F01E0242F01602026004
:104500002068416941F080014161F06880B1206814
:10451000016841F008010AE022F00E0242F00A02AE
:104520000260F06820B12068016841F00401016078
:10453000F06A0268D10303D5036843F48073036013
:10454000B06B18B1016841F480710160206880444B
:10455000C84504D2026842F00102026009E0016825
:1045600041F00101016004E035704FF400623262F5
:1045700001252846BDE8F283206807687F087F0090
:104580000760204624E22DE9F04704464FF0080971
:10459000FDF75AF8002C80463DD004F134056878C8
:1045A000022804D08021002229622A7033E020688A
:1045B000DFF8346540F2A94A311851450DD202683E
:1045C00022F01E0202602068416921F080014161F1
:1045D000686A276800F1080904E0016821F00E010B
:1045E00001602768E86A016821F480710160206831
:1045F00003685B085B0003603868C10726D5FDF7D8
:1046000023F8A0EB08000628F6D32020002128621A
:10461000032229706A70012016E0012101FA00F0DE
:10462000DFF8D0241060296B686B4860A86B30B14C
:10463000016821F480710160EA6B286C50600021F0
:104640000120297068700020BDE8F0872168A86A01
:1046500076185645E1D23F2202FA00F0C9F8000070
:10466000E1E738B530B100F134025178022903D0C6
:1046700080201062012032BD0168DFF86C4440F2F6
:10468000A94365189D4206D2042050700A6852085A
:1046900052000A602EE00D6825F00E050D600168DD
:1046A00064189C4204D20B685B085B000B6003E05B
:1046B0000C68640864000C60D16A0124DFF834548B
:1046C0000B6823F480730B60916A8C402C60146B30
:1046D000536B6360916B31B10B6823F480730B6093
:1046E000D46B116C61600023012113705170D1698A
:1046F00001B18847002032BD2DE9FC470446002067
:104700000090DFF8001404F134050A686F6A4FF472
:104710001653B2FBF3F6DFF8D0A30821D7F80080D8
:10472000226840F2A9490AEB020048454FD2AB6A21
:1047300001FA03F318EA030F0DD0106840070AD5F9
:10474000136823F004031360A86A8140B960296AE2
:1047500041F001012962A86ADFF8A02302FA00F003
:1047600018EA000F0CD021680AEB01034B4553D225
:1047700049690A0604D5B860286A40F00200286238
:10478000A86ADFF87C1301FA00F018EA000F0CD0D9
:1047900021680AEB01024A45096806D28B0704D555
:1047A000B860286A40F004002862A96A102202FA60
:1047B00001F118EA010F4AD020680AEB00030068F3
:1047C0004B4534BF00F0080000F0040026E0DFF89D
:1047D0001C0383188D2B80F0F080A86ADFF8183353
:1047E0001F68042606FA00FC17EA0C0F00F0AC80E4
:1047F00017687F0740F1A8801068810603D4176806
:1048000027F00407176000F0DAF8E968002975D08E
:104810002046BDE8FC4708470868B1E7B8B1B96071
:10482000206801684A0307D5006801030BD5696950
:1048300069B1204688470AE00168CA0503D40368C5
:1048400023F008030360E96809B120468847A96A94
:10485000202000FA01F118EA010F4DD020680AEB80
:10486000000200684A4534BF00F0100000F002006A
:10487000002841D0B96020686978042922D10268F3
:1048800022F0160202602068436923F0800343612E
:10489000E968002904BF6869002804D0206801681D
:1048A00021F008010160A86A3F2200210123824013
:1048B000BA6029706B70E96900291FD02046BDE8F5
:1048C000FC47084701684A0307D5006801030FD475
:1048D000296989B1204688470EE00168CA0507D4D6
:1048E0000368012123F01003036000202870697021
:1048F000A96809B120468847286A00285DD0296A3E
:10490000C80754D504226A7020688244CA4516D26A
:1049100001684908490001600099491C8E420091D4
:10492000206802D30168CA07F6D400232B70006800
:10493000C10759BF0120687003226A7037E003681D
:104940005B085B000360E7E71F68022606FA00FCCD
:1049500017EA0C0F15D01768BF0712D5106881062B
:1049600007D41768002027F00A0717600122287073
:104970006A7000F024F8A968F9B12046BDE8FC4748
:1049800008471E6881400E4217D01068010714D5F1
:104990001668012126F00E0616605A68A86A814042
:1049A0000A435A6001232B62002129706B70A969A8
:1049B00019B12046BDE8FC470847BDE8F3875968B0
:1049C000A86A86400E435E6070470000406D7047E5
:1049D000F0B5476E856D866E7E60C46E14B1046F4F
:1049E000466F66600668DFF800C140F2A944B4442F
:1049F000A4450ED2C46D3F27A740AF60356825F4AB
:104A00008025356073608068402813D0B160F26003
:104A1000F0BD364CA7198D2FFAD2364D4FF0010C50
:104A20002F68C46D0CFA04F427432F60736080680C
:104A30004028EBD1B260F160F0BD000030B50168F4
:104A4000182300BF39A401F0FF02890A8902103A35
:104A5000B2FBF3F2042AA55C28BF091DC565816578
:104A6000084630BD30B5214C02680123A4188D2CB6
:104A700002F0FF0109D208391422B1FBF2F1224AF7
:104A8000224D02EB81028B400DE010391824B1FB5E
:104A9000F4F41F491F4D8A18A92A1F4A38BF083449
:104AA00002EB8402A34083664566026630BD01794D
:104AB0000368002900D17047092910B512D20B4AAA
:104AC000D3188D2B04D2154B154A03EB810403E058
:104AD000144A02EB8104144A0123491E8B400267E9
:104AE000C466436710BD0000F0FFFDBFF8ABFDA733
:104AF0003F8010FE04540258005402580100800008
:104B00000400800088000020005802588058025895
:104B1000F0FBFDBF8008024000080240FC5802582C
:104B200040590258FC080240400902400006101695
:104B300000061016002200F0BDB80000030000209F
:104B4000521E22BF13F8010B11F801CBB0EB0C0081
:104B5000F6D0521C08BF1046704710B51F2421FA2A
:104B600004F3DB0703D423465C1E002BF7D11300AC
:104B700007D0082A11D0102A0CD0182A0FD1072CE0
:104B80000DD200684161816821F018010A438260FA
:104B9000002010BD082CF4D301E0102CF1D301202B
:104BA00010BD704770470000D3BBD9B1B2F5803F4C
:104BB0005BD2022A1ED98C46B1FBF2F102FB11C373
:104BC0001B0443EA1043B3FBF2FC02FB1C3380B22C
:104BD00040EA0343B3FBF2F002FB103240EA0C4020
:104BE00000237047022A05D98446B0FBF2F002FB8D
:104BF00010C270474AB105D100F0010249085FEACE
:104C00003000704700220023704700F083B80B008B
:104C10000200002100207047F7D3002200237047D4
:104C2000904271EB030CF2D370B5B1FA81F4B3FA90
:104C300083F52C1BA340C4F1200532FA05F633435B
:104C4000A2405FF00046E64002E05B085FEA320205
:104C5000841A71EB030524BF204629467641F4D31C
:104C600002000B003000002170BD70B5B1FA81F474
:104C7000B2FA82F5C4F120046419B4F12006DAD343
:104C8000B2405FF00044F440002502E052085FEAC1
:104C90003303C61A71EB020E24BF304671466441DD
:104CA0006D41F3D302000B002000290070BD704756
:104CB00070470000401810F0030308D0C91A1FD332
:104CC000DB0748BF00F8012D28BF20F8022D130094
:104CD00030B414461546103928BF20E93C00FAD8F4
:104CE000490728BF20E90C0048BF40F8042D89007F
:104CF00028BF20F8022D48BF00F8012D30BC7047B6
:104D0000C91818BF00F8012DCB0728BF00F8012DE6
:104D10007047000070470000000000000000000025
:104D20000000000000000000000000000000000083
:104D30000000000000000000000000000000000073
:104D40000000000000000000000000000000000063
:104D50000000000000000000000000000000000053
:104D60000000000000000000000000000000000043
:104D70000000000000000000000000000000000033
:104D80000000000000000000000000000000000023
:104D90000000000000000000000000000000000013
:104DA0000000000000000000000000000000000003
:104DB00000000000000000000000000000000000F3
:104DC00000000000000000000000000000000000E3
:104DD00000000000000000000000000000000000D3
:104DE00000000000000000000000000000000000C3
:104DF00000000000000000000000000000000000B3
:104E000000000000000000000000000000000000A2
:104E10000000000000000000000000000000000092
:104E200010B514480023016841F470010160124973
:104E30000A68124842F001020A60114A0B610C68CC
:104E4000044000200C600F4C8B61CB610B628862C8
:104E5000CB620B6348638B63CB6308644B640B6862
:104E600023F480230B604FF000630866012111607A
:104E7000236010BD88ED00E0004402587FEDF6EAA3
:104E80000881005108ED00E0000000000102030469
:104E900001020304060708097047FEE7FEE7FEE784
:104EA000FEE770477047704700F026B80E48FFF7DE
:104EB00023BC0E48FFF720BC10B50D480168CA6935
:104EC000D30609D510240C620A68D30608D50C62F3
:104ED000BDE81040FEF737BABDE81040FEF70ABD46
:104EE00010BD0448FBF74CBC9000002008010020D6
:104EF00080010020000200200248416802788A18E0
:104F0000426070477C00002030B501688468421818
:104F1000416802EB5103C9070BD54C4409E012F973
:104F2000011B12F8015B002904F8015B05D5491C3F
:104F3000F9D19A42F3D10C3030BD491EF1D5F8E7D2
:104F400010B5074979441831064C7C44163404E006
:104F50000A68081D114488470146A142F8D110BDD6
:104F60002C000000700000004EF68851CEF20001C7
:104F7000086840F470000860BFF34F8FBFF36F8F75
:104F80004FF00070E1EE100A704700008BD0FFFF79
:104F900030AE0300000000244006000000B00324EF
:104FA0004006000000B70324C000000000000430E9
:104FB000E0170000000204302402000090000020EE
:104FC0000000000045FFFFFF8802000050000000C5
:104FD0000000002000F00DF8002801D0FFF7B0FF1E
:104FE000AFF300800020AFF30080FCF76FFF00F00C
:104FF00002F80120704700F001B80000074638466B
:1050000000F002F8FBE7000080B5AFF30080024A31
:1050100011001820ABBEFBE72600020001488047C4
:1050200001480047214E00082D500008AFF30080D2
:10503000FFF79AFFFFF7CEFFFFF7FEBFFFF7FEBFB8
:10504000FFF7FEBFFFF7FEBFFFF7FEBFFFF7FEBF94
:10505000FFF7FEBFFFF7FEBFFFF7FEBFFFF7FEBF84
:10506000FFF7FEBFFFF7FEBFFFF7FEBFFFF7FEBF74
:10507000FFF7FEBFFFF7FEBFFFF7FEBFFFF7FEBF64
:1052500000029900142715000833150008471500AF
:1052600008371500085D15000801F9000010FC0062
:085270000690D0030090D0036A
:040000050800502D72
:00000001FF
